{
  "_format": "hh-sol-artifact-1",
  "contractName": "AIHaiku",
  "sourceName": "contracts/AIHaiku.sol",
  "abi": [
    {
      "inputs": [],
      "stateMutability": "nonpayable",
      "type": "constructor"
    },
    {
      "anonymous": false,
      "inputs": [
        {
          "indexed": true,
          "internalType": "address",
          "name": "owner",
          "type": "address"
        },
        {
          "indexed": true,
          "internalType": "address",
          "name": "approved",
          "type": "address"
        },
        {
          "indexed": true,
          "internalType": "uint256",
          "name": "tokenId",
          "type": "uint256"
        }
      ],
      "name": "Approval",
      "type": "event"
    },
    {
      "anonymous": false,
      "inputs": [
        {
          "indexed": true,
          "internalType": "address",
          "name": "owner",
          "type": "address"
        },
        {
          "indexed": true,
          "internalType": "address",
          "name": "operator",
          "type": "address"
        },
        {
          "indexed": false,
          "internalType": "bool",
          "name": "approved",
          "type": "bool"
        }
      ],
      "name": "ApprovalForAll",
      "type": "event"
    },
    {
      "anonymous": false,
      "inputs": [
        {
          "indexed": true,
          "internalType": "uint256",
          "name": "tokenId",
          "type": "uint256"
        },
        {
          "indexed": false,
          "internalType": "string",
          "name": "tokenURI",
          "type": "string"
        }
      ],
      "name": "CreatedAIHaiku",
      "type": "event"
    },
    {
      "anonymous": false,
      "inputs": [
        {
          "indexed": true,
          "internalType": "address",
          "name": "previousOwner",
          "type": "address"
        },
        {
          "indexed": true,
          "internalType": "address",
          "name": "newOwner",
          "type": "address"
        }
      ],
      "name": "OwnershipTransferred",
      "type": "event"
    },
    {
      "anonymous": false,
      "inputs": [
        {
          "indexed": true,
          "internalType": "address",
          "name": "from",
          "type": "address"
        },
        {
          "indexed": true,
          "internalType": "address",
          "name": "to",
          "type": "address"
        },
        {
          "indexed": true,
          "internalType": "uint256",
          "name": "tokenId",
          "type": "uint256"
        }
      ],
      "name": "Transfer",
      "type": "event"
    },
    {
      "inputs": [
        {
          "internalType": "address",
          "name": "to",
          "type": "address"
        },
        {
          "internalType": "uint256",
          "name": "tokenId",
          "type": "uint256"
        }
      ],
      "name": "approve",
      "outputs": [],
      "stateMutability": "nonpayable",
      "type": "function"
    },
    {
      "inputs": [
        {
          "internalType": "address",
          "name": "owner",
          "type": "address"
        }
      ],
      "name": "balanceOf",
      "outputs": [
        {
          "internalType": "uint256",
          "name": "",
          "type": "uint256"
        }
      ],
      "stateMutability": "view",
      "type": "function"
    },
    {
      "inputs": [
        {
          "internalType": "uint256",
          "name": "tokenId",
          "type": "uint256"
        }
      ],
      "name": "getApproved",
      "outputs": [
        {
          "internalType": "address",
          "name": "",
          "type": "address"
        }
      ],
      "stateMutability": "view",
      "type": "function"
    },
    {
      "inputs": [],
      "name": "getReqAddress",
      "outputs": [
        {
          "internalType": "address",
          "name": "",
          "type": "address"
        }
      ],
      "stateMutability": "view",
      "type": "function"
    },
    {
      "inputs": [
        {
          "internalType": "address",
          "name": "owner",
          "type": "address"
        },
        {
          "internalType": "address",
          "name": "operator",
          "type": "address"
        }
      ],
      "name": "isApprovedForAll",
      "outputs": [
        {
          "internalType": "bool",
          "name": "",
          "type": "bool"
        }
      ],
      "stateMutability": "view",
      "type": "function"
    },
    {
      "inputs": [],
      "name": "maxSupply",
      "outputs": [
        {
          "internalType": "uint256",
          "name": "",
          "type": "uint256"
        }
      ],
      "stateMutability": "view",
      "type": "function"
    },
    {
      "inputs": [],
      "name": "mintTimePublic",
      "outputs": [
        {
          "internalType": "uint256",
          "name": "",
          "type": "uint256"
        }
      ],
      "stateMutability": "view",
      "type": "function"
    },
    {
      "inputs": [],
      "name": "mintTimeWhitelist",
      "outputs": [
        {
          "internalType": "uint256",
          "name": "",
          "type": "uint256"
        }
      ],
      "stateMutability": "view",
      "type": "function"
    },
    {
      "inputs": [],
      "name": "name",
      "outputs": [
        {
          "internalType": "string",
          "name": "",
          "type": "string"
        }
      ],
      "stateMutability": "view",
      "type": "function"
    },
    {
      "inputs": [],
      "name": "owner",
      "outputs": [
        {
          "internalType": "address",
          "name": "",
          "type": "address"
        }
      ],
      "stateMutability": "view",
      "type": "function"
    },
    {
      "inputs": [
        {
          "internalType": "uint256",
          "name": "tokenId",
          "type": "uint256"
        }
      ],
      "name": "ownerOf",
      "outputs": [
        {
          "internalType": "address",
          "name": "",
          "type": "address"
        }
      ],
      "stateMutability": "view",
      "type": "function"
    },
    {
      "inputs": [],
      "name": "price",
      "outputs": [
        {
          "internalType": "uint256",
          "name": "",
          "type": "uint256"
        }
      ],
      "stateMutability": "view",
      "type": "function"
    },
    {
      "inputs": [
        {
          "internalType": "string",
          "name": "tokenUri",
          "type": "string"
        },
        {
          "internalType": "bytes",
          "name": "signature",
          "type": "bytes"
        }
      ],
      "name": "publicMint",
      "outputs": [],
      "stateMutability": "payable",
      "type": "function"
    },
    {
      "inputs": [],
      "name": "renounceOwnership",
      "outputs": [],
      "stateMutability": "nonpayable",
      "type": "function"
    },
    {
      "inputs": [
        {
          "internalType": "address",
          "name": "from",
          "type": "address"
        },
        {
          "internalType": "address",
          "name": "to",
          "type": "address"
        },
        {
          "internalType": "uint256",
          "name": "tokenId",
          "type": "uint256"
        }
      ],
      "name": "safeTransferFrom",
      "outputs": [],
      "stateMutability": "nonpayable",
      "type": "function"
    },
    {
      "inputs": [
        {
          "internalType": "address",
          "name": "from",
          "type": "address"
        },
        {
          "internalType": "address",
          "name": "to",
          "type": "address"
        },
        {
          "internalType": "uint256",
          "name": "tokenId",
          "type": "uint256"
        },
        {
          "internalType": "bytes",
          "name": "_data",
          "type": "bytes"
        }
      ],
      "name": "safeTransferFrom",
      "outputs": [],
      "stateMutability": "nonpayable",
      "type": "function"
    },
    {
      "inputs": [
        {
          "internalType": "address",
          "name": "operator",
          "type": "address"
        },
        {
          "internalType": "bool",
          "name": "approved",
          "type": "bool"
        }
      ],
      "name": "setApprovalForAll",
      "outputs": [],
      "stateMutability": "nonpayable",
      "type": "function"
    },
    {
      "inputs": [
        {
          "internalType": "bytes4",
          "name": "interfaceId",
          "type": "bytes4"
        }
      ],
      "name": "supportsInterface",
      "outputs": [
        {
          "internalType": "bool",
          "name": "",
          "type": "bool"
        }
      ],
      "stateMutability": "view",
      "type": "function"
    },
    {
      "inputs": [],
      "name": "symbol",
      "outputs": [
        {
          "internalType": "string",
          "name": "",
          "type": "string"
        }
      ],
      "stateMutability": "view",
      "type": "function"
    },
    {
      "inputs": [],
      "name": "tokenCounter",
      "outputs": [
        {
          "internalType": "uint256",
          "name": "",
          "type": "uint256"
        }
      ],
      "stateMutability": "view",
      "type": "function"
    },
    {
      "inputs": [
        {
          "internalType": "uint256",
          "name": "tokenId",
          "type": "uint256"
        }
      ],
      "name": "tokenURI",
      "outputs": [
        {
          "internalType": "string",
          "name": "",
          "type": "string"
        }
      ],
      "stateMutability": "view",
      "type": "function"
    },
    {
      "inputs": [],
      "name": "totalSupply",
      "outputs": [
        {
          "internalType": "uint256",
          "name": "",
          "type": "uint256"
        }
      ],
      "stateMutability": "view",
      "type": "function"
    },
    {
      "inputs": [
        {
          "internalType": "address",
          "name": "from",
          "type": "address"
        },
        {
          "internalType": "address",
          "name": "to",
          "type": "address"
        },
        {
          "internalType": "uint256",
          "name": "tokenId",
          "type": "uint256"
        }
      ],
      "name": "transferFrom",
      "outputs": [],
      "stateMutability": "nonpayable",
      "type": "function"
    },
    {
      "inputs": [
        {
          "internalType": "address",
          "name": "newOwner",
          "type": "address"
        }
      ],
      "name": "transferOwnership",
      "outputs": [],
      "stateMutability": "nonpayable",
      "type": "function"
    },
    {
      "inputs": [
        {
          "internalType": "address",
          "name": "newAddress",
          "type": "address"
        }
      ],
      "name": "updateSignerPublicKey",
      "outputs": [],
      "stateMutability": "nonpayable",
      "type": "function"
    },
    {
      "inputs": [
        {
          "internalType": "string",
          "name": "tokenUri",
          "type": "string"
        },
        {
          "internalType": "bytes",
          "name": "signature",
          "type": "bytes"
        }
      ],
      "name": "whitelistMint",
      "outputs": [],
      "stateMutability": "payable",
      "type": "function"
    }
  ],
  "bytecode": "0x60806040523480156200001157600080fd5b506040518060400160405280600881526020017f4149204861696b750000000000000000000000000000000000000000000000008152506040518060400160405280600581526020017f4841494b5500000000000000000000000000000000000000000000000000000081525081600090805190602001906200009692919062000203565b508060019080519060200190620000af92919062000203565b505050620000d2620000c66200013560201b60201c565b6200013d60201b60201c565b600060088190555073dba800f4da03dba3f604268aec2ad9eb28a055a4600960006101000a81548173ffffffffffffffffffffffffffffffffffffffff021916908373ffffffffffffffffffffffffffffffffffffffff16021790555062000318565b600033905090565b6000600760009054906101000a900473ffffffffffffffffffffffffffffffffffffffff16905081600760006101000a81548173ffffffffffffffffffffffffffffffffffffffff021916908373ffffffffffffffffffffffffffffffffffffffff1602179055508173ffffffffffffffffffffffffffffffffffffffff168173ffffffffffffffffffffffffffffffffffffffff167f8be0079c531659141344cd1fd0a4f28419497f9722a3daafe3b4186f6b6457e060405160405180910390a35050565b8280546200021190620002e2565b90600052602060002090601f01602090048101928262000235576000855562000281565b82601f106200025057805160ff191683800117855562000281565b8280016001018555821562000281579182015b828111156200028057825182559160200191906001019062000263565b5b50905062000290919062000294565b5090565b5b80821115620002af57600081600090555060010162000295565b5090565b7f4e487b7100000000000000000000000000000000000000000000000000000000600052602260045260246000fd5b60006002820490506001821680620002fb57607f821691505b60208210811415620003125762000311620002b3565b5b50919050565b61415080620003286000396000f3fe6080604052600436106101815760003560e01c80637d27b9ec116100d1578063a7a8412c1161008a578063d082e38111610064578063d082e38114610554578063d5abeb011461057f578063e985e9c5146105aa578063f2fde38b146105e757610181565b8063a7a8412c146104c3578063b88d4fde146104ee578063c87b56dd1461051757610181565b80637d27b9ec146103d45780638da5cb5b146103f05780638ebcce601461041b57806395d89b4114610444578063a035b1fe1461046f578063a22cb4651461049a57610181565b8063418035571161013e5780635b5b557d116101185780635b5b557d146103185780636352211e1461034357806370a0823114610380578063715018a6146103bd57610181565b806341803557146102a857806342842e0e146102d357806342f5d95d146102fc57610181565b806301ffc9a71461018657806306fdde03146101c3578063081812fc146101ee578063095ea7b31461022b57806318160ddd1461025457806323b872dd1461027f575b600080fd5b34801561019257600080fd5b506101ad60048036038101906101a891906127df565b610610565b6040516101ba9190612827565b60405180910390f35b3480156101cf57600080fd5b506101d86106f2565b6040516101e591906128db565b60405180910390f35b3480156101fa57600080fd5b5061021560048036038101906102109190612933565b610784565b60405161022291906129a1565b60405180910390f35b34801561023757600080fd5b50610252600480360381019061024d91906129e8565b610809565b005b34801561026057600080fd5b50610269610921565b6040516102769190612a37565b60405180910390f35b34801561028b57600080fd5b506102a660048036038101906102a19190612a52565b61092b565b005b3480156102b457600080fd5b506102bd61098b565b6040516102ca91906129a1565b60405180910390f35b3480156102df57600080fd5b506102fa60048036038101906102f59190612a52565b610993565b005b61031660048036038101906103119190612c7b565b6109b3565b005b34801561032457600080fd5b5061032d610ae9565b60405161033a9190612a37565b60405180910390f35b34801561034f57600080fd5b5061036a60048036038101906103659190612933565b610af1565b60405161037791906129a1565b60405180910390f35b34801561038c57600080fd5b506103a760048036038101906103a29190612cf3565b610ba3565b6040516103b49190612a37565b60405180910390f35b3480156103c957600080fd5b506103d2610c5b565b005b6103ee60048036038101906103e99190612c7b565b610ce3565b005b3480156103fc57600080fd5b50610405610e5f565b60405161041291906129a1565b60405180910390f35b34801561042757600080fd5b50610442600480360381019061043d9190612cf3565b610e89565b005b34801561045057600080fd5b50610459610f49565b60405161046691906128db565b60405180910390f35b34801561047b57600080fd5b50610484610fdb565b6040516104919190612a37565b60405180910390f35b3480156104a657600080fd5b506104c160048036038101906104bc9190612d4c565b610fe6565b005b3480156104cf57600080fd5b506104d8611167565b6040516104e59190612a37565b60405180910390f35b3480156104fa57600080fd5b5061051560048036038101906105109190612d8c565b61116f565b005b34801561052357600080fd5b5061053e60048036038101906105399190612933565b6111d1565b60405161054b91906128db565b60405180910390f35b34801561056057600080fd5b50610569611323565b6040516105769190612a37565b60405180910390f35b34801561058b57600080fd5b50610594611329565b6040516105a19190612a37565b60405180910390f35b3480156105b657600080fd5b506105d160048036038101906105cc9190612e0f565b61132f565b6040516105de9190612827565b60405180910390f35b3480156105f357600080fd5b5061060e60048036038101906106099190612cf3565b6113c3565b005b60007f80ac58cd000000000000000000000000000000000000000000000000000000007bffffffffffffffffffffffffffffffffffffffffffffffffffffffff1916827bffffffffffffffffffffffffffffffffffffffffffffffffffffffff191614806106db57507f5b5e139f000000000000000000000000000000000000000000000000000000007bffffffffffffffffffffffffffffffffffffffffffffffffffffffff1916827bffffffffffffffffffffffffffffffffffffffffffffffffffffffff1916145b806106eb57506106ea826114bb565b5b9050919050565b60606000805461070190612e7e565b80601f016020809104026020016040519081016040528092919081815260200182805461072d90612e7e565b801561077a5780601f1061074f5761010080835404028352916020019161077a565b820191906000526020600020905b81548152906001019060200180831161075d57829003601f168201915b5050505050905090565b600061078f82611525565b6107ce576040517f08c379a00000000000000000000000000000000000000000000000000000000081526004016107c590612f22565b60405180910390fd5b6004600083815260200190815260200160002060009054906101000a900473ffffffffffffffffffffffffffffffffffffffff169050919050565b600061081482610af1565b90508073ffffffffffffffffffffffffffffffffffffffff168373ffffffffffffffffffffffffffffffffffffffff161415610885576040517f08c379a000000000000000000000000000000000000000000000000000000000815260040161087c90612fb4565b60405180910390fd5b8073ffffffffffffffffffffffffffffffffffffffff166108a4611591565b73ffffffffffffffffffffffffffffffffffffffff1614806108d357506108d2816108cd611591565b61132f565b5b610912576040517f08c379a000000000000000000000000000000000000000000000000000000000815260040161090990613046565b60405180910390fd5b61091c8383611599565b505050565b6000600854905090565b61093c610936611591565b82611652565b61097b576040517f08c379a0000000000000000000000000000000000000000000000000000000008152600401610972906130d8565b60405180910390fd5b610986838383611730565b505050565b600033905090565b6109ae8383836040518060200160405280600081525061116f565b505050565b34662386f26fc100008110156109c857600080fd5b8282600080816109f757836040516020016109e39190613134565b604051602081830303815290604052610a18565b83604051602001610a089190613197565b6040516020818303038152906040525b90506000610a2c828051906020012061198c565b90506000610a4385836119bc90919063ffffffff16565b9050600960009054906101000a900473ffffffffffffffffffffffffffffffffffffffff1673ffffffffffffffffffffffffffffffffffffffff168173ffffffffffffffffffffffffffffffffffffffff1614610ad5576040517f08c379a0000000000000000000000000000000000000000000000000000000008152600401610acc9061322b565b60405180910390fd5b610ade896119e3565b505050505050505050565b6361a4342081565b6000806002600084815260200190815260200160002060009054906101000a900473ffffffffffffffffffffffffffffffffffffffff169050600073ffffffffffffffffffffffffffffffffffffffff168173ffffffffffffffffffffffffffffffffffffffff161415610b9a576040517f08c379a0000000000000000000000000000000000000000000000000000000008152600401610b91906132bd565b60405180910390fd5b80915050919050565b60008073ffffffffffffffffffffffffffffffffffffffff168273ffffffffffffffffffffffffffffffffffffffff161415610c14576040517f08c379a0000000000000000000000000000000000000000000000000000000008152600401610c0b9061334f565b60405180910390fd5b600360008373ffffffffffffffffffffffffffffffffffffffff1673ffffffffffffffffffffffffffffffffffffffff168152602001908152602001600020549050919050565b610c63611591565b73ffffffffffffffffffffffffffffffffffffffff16610c81610e5f565b73ffffffffffffffffffffffffffffffffffffffff1614610cd7576040517f08c379a0000000000000000000000000000000000000000000000000000000008152600401610cce906133bb565b60405180910390fd5b610ce16000611b81565b565b34662386f26fc10000811015610cf857600080fd5b82826001600081610d285783604051602001610d149190613134565b604051602081830303815290604052610d49565b83604051602001610d399190613197565b6040516020818303038152906040525b90506000610d5d828051906020012061198c565b90506000610d7485836119bc90919063ffffffff16565b9050600960009054906101000a900473ffffffffffffffffffffffffffffffffffffffff1673ffffffffffffffffffffffffffffffffffffffff168173ffffffffffffffffffffffffffffffffffffffff1614610e06576040517f08c379a0000000000000000000000000000000000000000000000000000000008152600401610dfd9061322b565b60405180910390fd5b610e0f896119e3565b6001600b60003373ffffffffffffffffffffffffffffffffffffffff1673ffffffffffffffffffffffffffffffffffffffff16815260200190815260200160002081905550505050505050505050565b6000600760009054906101000a900473ffffffffffffffffffffffffffffffffffffffff16905090565b610e91611591565b73ffffffffffffffffffffffffffffffffffffffff16610eaf610e5f565b73ffffffffffffffffffffffffffffffffffffffff1614610f05576040517f08c379a0000000000000000000000000000000000000000000000000000000008152600401610efc906133bb565b60405180910390fd5b80600960006101000a81548173ffffffffffffffffffffffffffffffffffffffff021916908373ffffffffffffffffffffffffffffffffffffffff16021790555050565b606060018054610f5890612e7e565b80601f0160208091040260200160405190810160405280929190818152602001828054610f8490612e7e565b8015610fd15780601f10610fa657610100808354040283529160200191610fd1565b820191906000526020600020905b815481529060010190602001808311610fb457829003601f168201915b5050505050905090565b662386f26fc1000081565b610fee611591565b73ffffffffffffffffffffffffffffffffffffffff168273ffffffffffffffffffffffffffffffffffffffff16141561105c576040517f08c379a000000000000000000000000000000000000000000000000000000000815260040161105390613427565b60405180910390fd5b8060056000611069611591565b73ffffffffffffffffffffffffffffffffffffffff1673ffffffffffffffffffffffffffffffffffffffff16815260200190815260200160002060008473ffffffffffffffffffffffffffffffffffffffff1673ffffffffffffffffffffffffffffffffffffffff16815260200190815260200160002060006101000a81548160ff0219169083151502179055508173ffffffffffffffffffffffffffffffffffffffff16611116611591565b73ffffffffffffffffffffffffffffffffffffffff167f17307eab39ab6107e8899845ad3d59bd9653f200f220920489ca2b5937696c318360405161115b9190612827565b60405180910390a35050565b6361a4261081565b61118061117a611591565b83611652565b6111bf576040517f08c379a00000000000000000000000000000000000000000000000000000000081526004016111b6906130d8565b60405180910390fd5b6111cb84848484611c47565b50505050565b60606111dc82611525565b61121b576040517f08c379a0000000000000000000000000000000000000000000000000000000008152600401611212906134b9565b60405180910390fd5b600060066000848152602001908152602001600020805461123b90612e7e565b80601f016020809104026020016040519081016040528092919081815260200182805461126790612e7e565b80156112b45780601f10611289576101008083540402835291602001916112b4565b820191906000526020600020905b81548152906001019060200180831161129757829003601f168201915b5050505050905060006112c5611ca3565b90506000815114156112db57819250505061131e565b6000825111156113105780826040516020016112f89291906134d9565b6040516020818303038152906040529250505061131e565b61131984611cba565b925050505b919050565b60085481565b61023f81565b6000600560008473ffffffffffffffffffffffffffffffffffffffff1673ffffffffffffffffffffffffffffffffffffffff16815260200190815260200160002060008373ffffffffffffffffffffffffffffffffffffffff1673ffffffffffffffffffffffffffffffffffffffff16815260200190815260200160002060009054906101000a900460ff16905092915050565b6113cb611591565b73ffffffffffffffffffffffffffffffffffffffff166113e9610e5f565b73ffffffffffffffffffffffffffffffffffffffff161461143f576040517f08c379a0000000000000000000000000000000000000000000000000000000008152600401611436906133bb565b60405180910390fd5b600073ffffffffffffffffffffffffffffffffffffffff168173ffffffffffffffffffffffffffffffffffffffff1614156114af576040517f08c379a00000000000000000000000000000000000000000000000000000000081526004016114a69061356f565b60405180910390fd5b6114b881611b81565b50565b60007f01ffc9a7000000000000000000000000000000000000000000000000000000007bffffffffffffffffffffffffffffffffffffffffffffffffffffffff1916827bffffffffffffffffffffffffffffffffffffffffffffffffffffffff1916149050919050565b60008073ffffffffffffffffffffffffffffffffffffffff166002600084815260200190815260200160002060009054906101000a900473ffffffffffffffffffffffffffffffffffffffff1673ffffffffffffffffffffffffffffffffffffffff1614159050919050565b600033905090565b816004600083815260200190815260200160002060006101000a81548173ffffffffffffffffffffffffffffffffffffffff021916908373ffffffffffffffffffffffffffffffffffffffff160217905550808273ffffffffffffffffffffffffffffffffffffffff1661160c83610af1565b73ffffffffffffffffffffffffffffffffffffffff167f8c5be1e5ebec7d5bd14f71427d1e84f3dd0314c0f7b2291e5b200ac8c7c3b92560405160405180910390a45050565b600061165d82611525565b61169c576040517f08c379a000000000000000000000000000000000000000000000000000000000815260040161169390613601565b60405180910390fd5b60006116a783610af1565b90508073ffffffffffffffffffffffffffffffffffffffff168473ffffffffffffffffffffffffffffffffffffffff16148061171657508373ffffffffffffffffffffffffffffffffffffffff166116fe84610784565b73ffffffffffffffffffffffffffffffffffffffff16145b806117275750611726818561132f565b5b91505092915050565b8273ffffffffffffffffffffffffffffffffffffffff1661175082610af1565b73ffffffffffffffffffffffffffffffffffffffff16146117a6576040517f08c379a000000000000000000000000000000000000000000000000000000000815260040161179d90613693565b60405180910390fd5b600073ffffffffffffffffffffffffffffffffffffffff168273ffffffffffffffffffffffffffffffffffffffff161415611816576040517f08c379a000000000000000000000000000000000000000000000000000000000815260040161180d90613725565b60405180910390fd5b611821838383611d61565b61182c600082611599565b6001600360008573ffffffffffffffffffffffffffffffffffffffff1673ffffffffffffffffffffffffffffffffffffffff168152602001908152602001600020600082825461187c9190613774565b925050819055506001600360008473ffffffffffffffffffffffffffffffffffffffff1673ffffffffffffffffffffffffffffffffffffffff16815260200190815260200160002060008282546118d391906137a8565b92505081905550816002600083815260200190815260200160002060006101000a81548173ffffffffffffffffffffffffffffffffffffffff021916908373ffffffffffffffffffffffffffffffffffffffff160217905550808273ffffffffffffffffffffffffffffffffffffffff168473ffffffffffffffffffffffffffffffffffffffff167fddf252ad1be2c89b69c2b068fc378daa952ba7f163c4a11628f55a4df523b3ef60405160405180910390a4505050565b60008160405160200161199f9190613875565b604051602081830303815290604052805190602001209050919050565b60008060006119cb8585611d66565b915091506119d881611de9565b819250505092915050565b61023f6119ee610921565b10611a2e576040517f08c379a0000000000000000000000000000000000000000000000000000000008152600401611a259061390d565b60405180910390fd5b80600a81604051611a3f9190613134565b908152602001604051809103902060009054906101000a900460ff1615611a9b576040517f08c379a0000000000000000000000000000000000000000000000000000000008152600401611a9290613979565b60405180910390fd5b6000421015611adf576040517f08c379a0000000000000000000000000000000000000000000000000000000008152600401611ad6906139e5565b60405180910390fd5b611aeb33600854611fbe565b611af760085483611fdc565b6001600854611b0691906137a8565b6008819055506001600a83604051611b1e9190613134565b908152602001604051809103902060006101000a81548160ff0219169083151502179055506008547f76f7fca95f42b7cc08ae899562323ce35e06277441faebeac6111259312439be83604051611b7591906128db565b60405180910390a25050565b6000600760009054906101000a900473ffffffffffffffffffffffffffffffffffffffff16905081600760006101000a81548173ffffffffffffffffffffffffffffffffffffffff021916908373ffffffffffffffffffffffffffffffffffffffff1602179055508173ffffffffffffffffffffffffffffffffffffffff168173ffffffffffffffffffffffffffffffffffffffff167f8be0079c531659141344cd1fd0a4f28419497f9722a3daafe3b4186f6b6457e060405160405180910390a35050565b611c52848484611730565b611c5e84848484612050565b611c9d576040517f08c379a0000000000000000000000000000000000000000000000000000000008152600401611c9490613a77565b60405180910390fd5b50505050565b606060405180602001604052806000815250905090565b6060611cc582611525565b611d04576040517f08c379a0000000000000000000000000000000000000000000000000000000008152600401611cfb90613b09565b60405180910390fd5b6000611d0e611ca3565b90506000815111611d2e5760405180602001604052806000815250611d59565b80611d38846121d8565b604051602001611d499291906134d9565b6040516020818303038152906040525b915050919050565b505050565b600080604183511415611da85760008060006020860151925060408601519150606086015160001a9050611d9c87828585612339565b94509450505050611de2565b604083511415611dd9576000806020850151915060408501519050611dce868383612446565b935093505050611de2565b60006002915091505b9250929050565b60006004811115611dfd57611dfc613b29565b5b816004811115611e1057611e0f613b29565b5b1415611e1b57611fbb565b60016004811115611e2f57611e2e613b29565b5b816004811115611e4257611e41613b29565b5b1415611e83576040517f08c379a0000000000000000000000000000000000000000000000000000000008152600401611e7a90613ba4565b60405180910390fd5b60026004811115611e9757611e96613b29565b5b816004811115611eaa57611ea9613b29565b5b1415611eeb576040517f08c379a0000000000000000000000000000000000000000000000000000000008152600401611ee290613c10565b60405180910390fd5b60036004811115611eff57611efe613b29565b5b816004811115611f1257611f11613b29565b5b1415611f53576040517f08c379a0000000000000000000000000000000000000000000000000000000008152600401611f4a90613ca2565b60405180910390fd5b600480811115611f6657611f65613b29565b5b816004811115611f7957611f78613b29565b5b1415611fba576040517f08c379a0000000000000000000000000000000000000000000000000000000008152600401611fb190613d34565b60405180910390fd5b5b50565b611fd8828260405180602001604052806000815250612494565b5050565b611fe582611525565b612024576040517f08c379a000000000000000000000000000000000000000000000000000000000815260040161201b90613dc6565b60405180910390fd5b8060066000848152602001908152602001600020908051906020019061204b9291906126d0565b505050565b60006120718473ffffffffffffffffffffffffffffffffffffffff166124ef565b156121cb578373ffffffffffffffffffffffffffffffffffffffff1663150b7a0261209a611591565b8786866040518563ffffffff1660e01b81526004016120bc9493929190613e3b565b6020604051808303816000875af19250505080156120f857506040513d601f19601f820116820180604052508101906120f59190613e9c565b60015b61217b573d8060008114612128576040519150601f19603f3d011682016040523d82523d6000602084013e61212d565b606091505b50600081511415612173576040517f08c379a000000000000000000000000000000000000000000000000000000000815260040161216a90613a77565b60405180910390fd5b805181602001fd5b63150b7a0260e01b7bffffffffffffffffffffffffffffffffffffffffffffffffffffffff1916817bffffffffffffffffffffffffffffffffffffffffffffffffffffffff1916149150506121d0565b600190505b949350505050565b60606000821415612220576040518060400160405280600181526020017f30000000000000000000000000000000000000000000000000000000000000008152509050612334565b600082905060005b6000821461225257808061223b90613ec9565b915050600a8261224b9190613f41565b9150612228565b60008167ffffffffffffffff81111561226e5761226d612aaf565b5b6040519080825280601f01601f1916602001820160405280156122a05781602001600182028036833780820191505090505b5090505b6000851461232d576001826122b99190613774565b9150600a856122c89190613f72565b60306122d491906137a8565b60f81b8183815181106122ea576122e9613fa3565b5b60200101907effffffffffffffffffffffffffffffffffffffffffffffffffffffffffffff1916908160001a905350600a856123269190613f41565b94506122a4565b8093505050505b919050565b6000807f7fffffffffffffffffffffffffffffff5d576e7357a4501ddfe92f46681b20a08360001c111561237457600060039150915061243d565b601b8560ff161415801561238c5750601c8560ff1614155b1561239e57600060049150915061243d565b6000600187878787604051600081526020016040526040516123c39493929190613ffd565b6020604051602081039080840390855afa1580156123e5573d6000803e3d6000fd5b505050602060405103519050600073ffffffffffffffffffffffffffffffffffffffff168173ffffffffffffffffffffffffffffffffffffffff1614156124345760006001925092505061243d565b80600092509250505b94509492505050565b6000806000807f7fffffffffffffffffffffffffffffffffffffffffffffffffffffffffffffff85169150601b8560ff1c01905061248687828885612339565b935093505050935093915050565b61249e8383612502565b6124ab6000848484612050565b6124ea576040517f08c379a00000000000000000000000000000000000000000000000000000000081526004016124e190613a77565b60405180910390fd5b505050565b600080823b905060008111915050919050565b600073ffffffffffffffffffffffffffffffffffffffff168273ffffffffffffffffffffffffffffffffffffffff161415612572576040517f08c379a00000000000000000000000000000000000000000000000000000000081526004016125699061408e565b60405180910390fd5b61257b81611525565b156125bb576040517f08c379a00000000000000000000000000000000000000000000000000000000081526004016125b2906140fa565b60405180910390fd5b6125c760008383611d61565b6001600360008473ffffffffffffffffffffffffffffffffffffffff1673ffffffffffffffffffffffffffffffffffffffff168152602001908152602001600020600082825461261791906137a8565b92505081905550816002600083815260200190815260200160002060006101000a81548173ffffffffffffffffffffffffffffffffffffffff021916908373ffffffffffffffffffffffffffffffffffffffff160217905550808273ffffffffffffffffffffffffffffffffffffffff16600073ffffffffffffffffffffffffffffffffffffffff167fddf252ad1be2c89b69c2b068fc378daa952ba7f163c4a11628f55a4df523b3ef60405160405180910390a45050565b8280546126dc90612e7e565b90600052602060002090601f0160209004810192826126fe5760008555612745565b82601f1061271757805160ff1916838001178555612745565b82800160010185558215612745579182015b82811115612744578251825591602001919060010190612729565b5b5090506127529190612756565b5090565b5b8082111561276f576000816000905550600101612757565b5090565b6000604051905090565b600080fd5b600080fd5b60007fffffffff0000000000000000000000000000000000000000000000000000000082169050919050565b6127bc81612787565b81146127c757600080fd5b50565b6000813590506127d9816127b3565b92915050565b6000602082840312156127f5576127f461277d565b5b6000612803848285016127ca565b91505092915050565b60008115159050919050565b6128218161280c565b82525050565b600060208201905061283c6000830184612818565b92915050565b600081519050919050565b600082825260208201905092915050565b60005b8381101561287c578082015181840152602081019050612861565b8381111561288b576000848401525b50505050565b6000601f19601f8301169050919050565b60006128ad82612842565b6128b7818561284d565b93506128c781856020860161285e565b6128d081612891565b840191505092915050565b600060208201905081810360008301526128f581846128a2565b905092915050565b6000819050919050565b612910816128fd565b811461291b57600080fd5b50565b60008135905061292d81612907565b92915050565b6000602082840312156129495761294861277d565b5b60006129578482850161291e565b91505092915050565b600073ffffffffffffffffffffffffffffffffffffffff82169050919050565b600061298b82612960565b9050919050565b61299b81612980565b82525050565b60006020820190506129b66000830184612992565b92915050565b6129c581612980565b81146129d057600080fd5b50565b6000813590506129e2816129bc565b92915050565b600080604083850312156129ff576129fe61277d565b5b6000612a0d858286016129d3565b9250506020612a1e8582860161291e565b9150509250929050565b612a31816128fd565b82525050565b6000602082019050612a4c6000830184612a28565b92915050565b600080600060608486031215612a6b57612a6a61277d565b5b6000612a79868287016129d3565b9350506020612a8a868287016129d3565b9250506040612a9b8682870161291e565b9150509250925092565b600080fd5b600080fd5b7f4e487b7100000000000000000000000000000000000000000000000000000000600052604160045260246000fd5b612ae782612891565b810181811067ffffffffffffffff82111715612b0657612b05612aaf565b5b80604052505050565b6000612b19612773565b9050612b258282612ade565b919050565b600067ffffffffffffffff821115612b4557612b44612aaf565b5b612b4e82612891565b9050602081019050919050565b82818337600083830152505050565b6000612b7d612b7884612b2a565b612b0f565b905082815260208101848484011115612b9957612b98612aaa565b5b612ba4848285612b5b565b509392505050565b600082601f830112612bc157612bc0612aa5565b5b8135612bd1848260208601612b6a565b91505092915050565b600067ffffffffffffffff821115612bf557612bf4612aaf565b5b612bfe82612891565b9050602081019050919050565b6000612c1e612c1984612bda565b612b0f565b905082815260208101848484011115612c3a57612c39612aaa565b5b612c45848285612b5b565b509392505050565b600082601f830112612c6257612c61612aa5565b5b8135612c72848260208601612c0b565b91505092915050565b60008060408385031215612c9257612c9161277d565b5b600083013567ffffffffffffffff811115612cb057612caf612782565b5b612cbc85828601612bac565b925050602083013567ffffffffffffffff811115612cdd57612cdc612782565b5b612ce985828601612c4d565b9150509250929050565b600060208284031215612d0957612d0861277d565b5b6000612d17848285016129d3565b91505092915050565b612d298161280c565b8114612d3457600080fd5b50565b600081359050612d4681612d20565b92915050565b60008060408385031215612d6357612d6261277d565b5b6000612d71858286016129d3565b9250506020612d8285828601612d37565b9150509250929050565b60008060008060808587031215612da657612da561277d565b5b6000612db4878288016129d3565b9450506020612dc5878288016129d3565b9350506040612dd68782880161291e565b925050606085013567ffffffffffffffff811115612df757612df6612782565b5b612e0387828801612c4d565b91505092959194509250565b60008060408385031215612e2657612e2561277d565b5b6000612e34858286016129d3565b9250506020612e45858286016129d3565b9150509250929050565b7f4e487b7100000000000000000000000000000000000000000000000000000000600052602260045260246000fd5b60006002820490506001821680612e9657607f821691505b60208210811415612eaa57612ea9612e4f565b5b50919050565b7f4552433732313a20617070726f76656420717565727920666f72206e6f6e657860008201527f697374656e7420746f6b656e0000000000000000000000000000000000000000602082015250565b6000612f0c602c8361284d565b9150612f1782612eb0565b604082019050919050565b60006020820190508181036000830152612f3b81612eff565b9050919050565b7f4552433732313a20617070726f76616c20746f2063757272656e74206f776e6560008201527f7200000000000000000000000000000000000000000000000000000000000000602082015250565b6000612f9e60218361284d565b9150612fa982612f42565b604082019050919050565b60006020820190508181036000830152612fcd81612f91565b9050919050565b7f4552433732313a20617070726f76652063616c6c6572206973206e6f74206f7760008201527f6e6572206e6f7220617070726f76656420666f7220616c6c0000000000000000602082015250565b600061303060388361284d565b915061303b82612fd4565b604082019050919050565b6000602082019050818103600083015261305f81613023565b9050919050565b7f4552433732313a207472616e736665722063616c6c6572206973206e6f74206f60008201527f776e6572206e6f7220617070726f766564000000000000000000000000000000602082015250565b60006130c260318361284d565b91506130cd82613066565b604082019050919050565b600060208201905081810360008301526130f1816130b5565b9050919050565b600081905092915050565b600061310e82612842565b61311881856130f8565b935061312881856020860161285e565b80840191505092915050565b60006131408284613103565b915081905092915050565b7f57686974656c69737465643a0000000000000000000000000000000000000000600082015250565b6000613181600c836130f8565b915061318c8261314b565b600c82019050919050565b60006131a282613174565b91506131ae8284613103565b915081905092915050565b7f4d657373616765206e6f74207369676e65642062792074727565207369676e6560008201527f722e000000000000000000000000000000000000000000000000000000000000602082015250565b600061321560228361284d565b9150613220826131b9565b604082019050919050565b6000602082019050818103600083015261324481613208565b9050919050565b7f4552433732313a206f776e657220717565727920666f72206e6f6e657869737460008201527f656e7420746f6b656e0000000000000000000000000000000000000000000000602082015250565b60006132a760298361284d565b91506132b28261324b565b604082019050919050565b600060208201905081810360008301526132d68161329a565b9050919050565b7f4552433732313a2062616c616e636520717565727920666f7220746865207a6560008201527f726f206164647265737300000000000000000000000000000000000000000000602082015250565b6000613339602a8361284d565b9150613344826132dd565b604082019050919050565b600060208201905081810360008301526133688161332c565b9050919050565b7f4f776e61626c653a2063616c6c6572206973206e6f7420746865206f776e6572600082015250565b60006133a560208361284d565b91506133b08261336f565b602082019050919050565b600060208201905081810360008301526133d481613398565b9050919050565b7f4552433732313a20617070726f766520746f2063616c6c657200000000000000600082015250565b600061341160198361284d565b915061341c826133db565b602082019050919050565b6000602082019050818103600083015261344081613404565b9050919050565b7f45524337323155524953746f726167653a2055524920717565727920666f722060008201527f6e6f6e6578697374656e7420746f6b656e000000000000000000000000000000602082015250565b60006134a360318361284d565b91506134ae82613447565b604082019050919050565b600060208201905081810360008301526134d281613496565b9050919050565b60006134e58285613103565b91506134f18284613103565b91508190509392505050565b7f4f776e61626c653a206e6577206f776e657220697320746865207a65726f206160008201527f6464726573730000000000000000000000000000000000000000000000000000602082015250565b600061355960268361284d565b9150613564826134fd565b604082019050919050565b600060208201905081810360008301526135888161354c565b9050919050565b7f4552433732313a206f70657261746f7220717565727920666f72206e6f6e657860008201527f697374656e7420746f6b656e0000000000000000000000000000000000000000602082015250565b60006135eb602c8361284d565b91506135f68261358f565b604082019050919050565b6000602082019050818103600083015261361a816135de565b9050919050565b7f4552433732313a207472616e73666572206f6620746f6b656e2074686174206960008201527f73206e6f74206f776e0000000000000000000000000000000000000000000000602082015250565b600061367d60298361284d565b915061368882613621565b604082019050919050565b600060208201905081810360008301526136ac81613670565b9050919050565b7f4552433732313a207472616e7366657220746f20746865207a65726f2061646460008201527f7265737300000000000000000000000000000000000000000000000000000000602082015250565b600061370f60248361284d565b915061371a826136b3565b604082019050919050565b6000602082019050818103600083015261373e81613702565b9050919050565b7f4e487b7100000000000000000000000000000000000000000000000000000000600052601160045260246000fd5b600061377f826128fd565b915061378a836128fd565b92508282101561379d5761379c613745565b5b828203905092915050565b60006137b3826128fd565b91506137be836128fd565b9250827fffffffffffffffffffffffffffffffffffffffffffffffffffffffffffffffff038211156137f3576137f2613745565b5b828201905092915050565b7f19457468657265756d205369676e6564204d6573736167653a0a333200000000600082015250565b6000613834601c836130f8565b915061383f826137fe565b601c82019050919050565b6000819050919050565b6000819050919050565b61386f61386a8261384a565b613854565b82525050565b600061388082613827565b915061388c828461385e565b60208201915081905092915050565b7f4d617820737570706c792068617320616c7265616479206265656e206d696e7460008201527f65642e0000000000000000000000000000000000000000000000000000000000602082015250565b60006138f760238361284d565b91506139028261389b565b604082019050919050565b60006020820190508181036000830152613926816138ea565b9050919050565b7f546f6b656e205552492065786973747300000000000000000000000000000000600082015250565b600061396360108361284d565b915061396e8261392d565b602082019050919050565b6000602082019050818103600083015261399281613956565b9050919050565b7f54696d6520746f206d696e74206e6f742079657420726561636865642e000000600082015250565b60006139cf601d8361284d565b91506139da82613999565b602082019050919050565b600060208201905081810360008301526139fe816139c2565b9050919050565b7f4552433732313a207472616e7366657220746f206e6f6e20455243373231526560008201527f63656976657220696d706c656d656e7465720000000000000000000000000000602082015250565b6000613a6160328361284d565b9150613a6c82613a05565b604082019050919050565b60006020820190508181036000830152613a9081613a54565b9050919050565b7f4552433732314d657461646174613a2055524920717565727920666f72206e6f60008201527f6e6578697374656e7420746f6b656e0000000000000000000000000000000000602082015250565b6000613af3602f8361284d565b9150613afe82613a97565b604082019050919050565b60006020820190508181036000830152613b2281613ae6565b9050919050565b7f4e487b7100000000000000000000000000000000000000000000000000000000600052602160045260246000fd5b7f45434453413a20696e76616c6964207369676e61747572650000000000000000600082015250565b6000613b8e60188361284d565b9150613b9982613b58565b602082019050919050565b60006020820190508181036000830152613bbd81613b81565b9050919050565b7f45434453413a20696e76616c6964207369676e6174757265206c656e67746800600082015250565b6000613bfa601f8361284d565b9150613c0582613bc4565b602082019050919050565b60006020820190508181036000830152613c2981613bed565b9050919050565b7f45434453413a20696e76616c6964207369676e6174757265202773272076616c60008201527f7565000000000000000000000000000000000000000000000000000000000000602082015250565b6000613c8c60228361284d565b9150613c9782613c30565b604082019050919050565b60006020820190508181036000830152613cbb81613c7f565b9050919050565b7f45434453413a20696e76616c6964207369676e6174757265202776272076616c60008201527f7565000000000000000000000000000000000000000000000000000000000000602082015250565b6000613d1e60228361284d565b9150613d2982613cc2565b604082019050919050565b60006020820190508181036000830152613d4d81613d11565b9050919050565b7f45524337323155524953746f726167653a2055524920736574206f66206e6f6e60008201527f6578697374656e7420746f6b656e000000000000000000000000000000000000602082015250565b6000613db0602e8361284d565b9150613dbb82613d54565b604082019050919050565b60006020820190508181036000830152613ddf81613da3565b9050919050565b600081519050919050565b600082825260208201905092915050565b6000613e0d82613de6565b613e178185613df1565b9350613e2781856020860161285e565b613e3081612891565b840191505092915050565b6000608082019050613e506000830187612992565b613e5d6020830186612992565b613e6a6040830185612a28565b8181036060830152613e7c8184613e02565b905095945050505050565b600081519050613e96816127b3565b92915050565b600060208284031215613eb257613eb161277d565b5b6000613ec084828501613e87565b91505092915050565b6000613ed4826128fd565b91507fffffffffffffffffffffffffffffffffffffffffffffffffffffffffffffffff821415613f0757613f06613745565b5b600182019050919050565b7f4e487b7100000000000000000000000000000000000000000000000000000000600052601260045260246000fd5b6000613f4c826128fd565b9150613f57836128fd565b925082613f6757613f66613f12565b5b828204905092915050565b6000613f7d826128fd565b9150613f88836128fd565b925082613f9857613f97613f12565b5b828206905092915050565b7f4e487b7100000000000000000000000000000000000000000000000000000000600052603260045260246000fd5b613fdb8161384a565b82525050565b600060ff82169050919050565b613ff781613fe1565b82525050565b60006080820190506140126000830187613fd2565b61401f6020830186613fee565b61402c6040830185613fd2565b6140396060830184613fd2565b95945050505050565b7f4552433732313a206d696e7420746f20746865207a65726f2061646472657373600082015250565b600061407860208361284d565b915061408382614042565b602082019050919050565b600060208201905081810360008301526140a78161406b565b9050919050565b7f4552433732313a20746f6b656e20616c7265616479206d696e74656400000000600082015250565b60006140e4601c8361284d565b91506140ef826140ae565b602082019050919050565b60006020820190508181036000830152614113816140d7565b905091905056fea2646970667358221220dbf70fc891fb6f2880446009a84f69c93decf7fb963fe96d66f4132fb6f0f0c364736f6c634300080a0033",
  "linkReferences": {},
  "deployedLinkReferences": {}
}