{
  "_format": "hh-sol-artifact-1",
  "contractName": "AIHaiku",
  "sourceName": "contracts/AIHaiku.sol",
  "abi": [
    {
      "inputs": [],
      "stateMutability": "nonpayable",
      "type": "constructor"
    },
    {
      "anonymous": false,
      "inputs": [
        {
          "indexed": true,
          "internalType": "address",
          "name": "owner",
          "type": "address"
        },
        {
          "indexed": true,
          "internalType": "address",
          "name": "approved",
          "type": "address"
        },
        {
          "indexed": true,
          "internalType": "uint256",
          "name": "tokenId",
          "type": "uint256"
        }
      ],
      "name": "Approval",
      "type": "event"
    },
    {
      "anonymous": false,
      "inputs": [
        {
          "indexed": true,
          "internalType": "address",
          "name": "owner",
          "type": "address"
        },
        {
          "indexed": true,
          "internalType": "address",
          "name": "operator",
          "type": "address"
        },
        {
          "indexed": false,
          "internalType": "bool",
          "name": "approved",
          "type": "bool"
        }
      ],
      "name": "ApprovalForAll",
      "type": "event"
    },
    {
      "anonymous": false,
      "inputs": [
        {
          "indexed": true,
          "internalType": "uint256",
          "name": "tokenId",
          "type": "uint256"
        },
        {
          "indexed": false,
          "internalType": "string",
          "name": "tokenURI",
          "type": "string"
        }
      ],
      "name": "CreatedAIHaiku",
      "type": "event"
    },
    {
      "anonymous": false,
      "inputs": [
        {
          "indexed": true,
          "internalType": "address",
          "name": "previousOwner",
          "type": "address"
        },
        {
          "indexed": true,
          "internalType": "address",
          "name": "newOwner",
          "type": "address"
        }
      ],
      "name": "OwnershipTransferred",
      "type": "event"
    },
    {
      "anonymous": false,
      "inputs": [
        {
          "indexed": true,
          "internalType": "address",
          "name": "from",
          "type": "address"
        },
        {
          "indexed": true,
          "internalType": "address",
          "name": "to",
          "type": "address"
        },
        {
          "indexed": true,
          "internalType": "uint256",
          "name": "tokenId",
          "type": "uint256"
        }
      ],
      "name": "Transfer",
      "type": "event"
    },
    {
      "inputs": [],
      "name": "MAX_SUPPLY",
      "outputs": [
        {
          "internalType": "uint256",
          "name": "",
          "type": "uint256"
        }
      ],
      "stateMutability": "view",
      "type": "function"
    },
    {
      "inputs": [],
      "name": "PRICE",
      "outputs": [
        {
          "internalType": "uint256",
          "name": "",
          "type": "uint256"
        }
      ],
      "stateMutability": "view",
      "type": "function"
    },
    {
      "inputs": [
        {
          "internalType": "address",
          "name": "to",
          "type": "address"
        },
        {
          "internalType": "uint256",
          "name": "tokenId",
          "type": "uint256"
        }
      ],
      "name": "approve",
      "outputs": [],
      "stateMutability": "nonpayable",
      "type": "function"
    },
    {
      "inputs": [
        {
          "internalType": "address",
          "name": "owner",
          "type": "address"
        }
      ],
      "name": "balanceOf",
      "outputs": [
        {
          "internalType": "uint256",
          "name": "",
          "type": "uint256"
        }
      ],
      "stateMutability": "view",
      "type": "function"
    },
    {
      "inputs": [
        {
          "internalType": "uint256",
          "name": "tokenId",
          "type": "uint256"
        }
      ],
      "name": "getApproved",
      "outputs": [
        {
          "internalType": "address",
          "name": "",
          "type": "address"
        }
      ],
      "stateMutability": "view",
      "type": "function"
    },
    {
      "inputs": [
        {
          "internalType": "address",
          "name": "owner",
          "type": "address"
        },
        {
          "internalType": "address",
          "name": "operator",
          "type": "address"
        }
      ],
      "name": "isApprovedForAll",
      "outputs": [
        {
          "internalType": "bool",
          "name": "",
          "type": "bool"
        }
      ],
      "stateMutability": "view",
      "type": "function"
    },
    {
      "inputs": [
        {
          "internalType": "string",
          "name": "tokenUri",
          "type": "string"
        },
        {
          "internalType": "bytes",
          "name": "signature",
          "type": "bytes"
        }
      ],
      "name": "mint",
      "outputs": [],
      "stateMutability": "payable",
      "type": "function"
    },
    {
      "inputs": [],
      "name": "name",
      "outputs": [
        {
          "internalType": "string",
          "name": "",
          "type": "string"
        }
      ],
      "stateMutability": "view",
      "type": "function"
    },
    {
      "inputs": [],
      "name": "owner",
      "outputs": [
        {
          "internalType": "address",
          "name": "",
          "type": "address"
        }
      ],
      "stateMutability": "view",
      "type": "function"
    },
    {
      "inputs": [
        {
          "internalType": "uint256",
          "name": "tokenId",
          "type": "uint256"
        }
      ],
      "name": "ownerOf",
      "outputs": [
        {
          "internalType": "address",
          "name": "",
          "type": "address"
        }
      ],
      "stateMutability": "view",
      "type": "function"
    },
    {
      "inputs": [],
      "name": "renounceOwnership",
      "outputs": [],
      "stateMutability": "nonpayable",
      "type": "function"
    },
    {
      "inputs": [
        {
          "internalType": "address",
          "name": "from",
          "type": "address"
        },
        {
          "internalType": "address",
          "name": "to",
          "type": "address"
        },
        {
          "internalType": "uint256",
          "name": "tokenId",
          "type": "uint256"
        }
      ],
      "name": "safeTransferFrom",
      "outputs": [],
      "stateMutability": "nonpayable",
      "type": "function"
    },
    {
      "inputs": [
        {
          "internalType": "address",
          "name": "from",
          "type": "address"
        },
        {
          "internalType": "address",
          "name": "to",
          "type": "address"
        },
        {
          "internalType": "uint256",
          "name": "tokenId",
          "type": "uint256"
        },
        {
          "internalType": "bytes",
          "name": "_data",
          "type": "bytes"
        }
      ],
      "name": "safeTransferFrom",
      "outputs": [],
      "stateMutability": "nonpayable",
      "type": "function"
    },
    {
      "inputs": [
        {
          "internalType": "address",
          "name": "operator",
          "type": "address"
        },
        {
          "internalType": "bool",
          "name": "approved",
          "type": "bool"
        }
      ],
      "name": "setApprovalForAll",
      "outputs": [],
      "stateMutability": "nonpayable",
      "type": "function"
    },
    {
      "inputs": [
        {
          "internalType": "bytes4",
          "name": "interfaceId",
          "type": "bytes4"
        }
      ],
      "name": "supportsInterface",
      "outputs": [
        {
          "internalType": "bool",
          "name": "",
          "type": "bool"
        }
      ],
      "stateMutability": "view",
      "type": "function"
    },
    {
      "inputs": [],
      "name": "symbol",
      "outputs": [
        {
          "internalType": "string",
          "name": "",
          "type": "string"
        }
      ],
      "stateMutability": "view",
      "type": "function"
    },
    {
      "inputs": [],
      "name": "tokenCounter",
      "outputs": [
        {
          "internalType": "uint256",
          "name": "",
          "type": "uint256"
        }
      ],
      "stateMutability": "view",
      "type": "function"
    },
    {
      "inputs": [
        {
          "internalType": "uint256",
          "name": "tokenId",
          "type": "uint256"
        }
      ],
      "name": "tokenURI",
      "outputs": [
        {
          "internalType": "string",
          "name": "",
          "type": "string"
        }
      ],
      "stateMutability": "view",
      "type": "function"
    },
    {
      "inputs": [],
      "name": "totalSupply",
      "outputs": [
        {
          "internalType": "uint256",
          "name": "",
          "type": "uint256"
        }
      ],
      "stateMutability": "view",
      "type": "function"
    },
    {
      "inputs": [
        {
          "internalType": "address",
          "name": "from",
          "type": "address"
        },
        {
          "internalType": "address",
          "name": "to",
          "type": "address"
        },
        {
          "internalType": "uint256",
          "name": "tokenId",
          "type": "uint256"
        }
      ],
      "name": "transferFrom",
      "outputs": [],
      "stateMutability": "nonpayable",
      "type": "function"
    },
    {
      "inputs": [
        {
          "internalType": "address",
          "name": "newOwner",
          "type": "address"
        }
      ],
      "name": "transferOwnership",
      "outputs": [],
      "stateMutability": "nonpayable",
      "type": "function"
    },
    {
      "inputs": [
        {
          "internalType": "address",
          "name": "newAddress",
          "type": "address"
        }
      ],
      "name": "updateSignerPublicKey",
      "outputs": [],
      "stateMutability": "nonpayable",
      "type": "function"
    }
  ],
  "bytecode": "0x60806040523480156200001157600080fd5b506040518060400160405280600881526020017f4149204861696b750000000000000000000000000000000000000000000000008152506040518060400160405280600581526020017f4841494b5500000000000000000000000000000000000000000000000000000081525081600090805190602001906200009692919062000203565b508060019080519060200190620000af92919062000203565b505050620000d2620000c66200013560201b60201c565b6200013d60201b60201c565b600060088190555073dba800f4da03dba3f604268aec2ad9eb28a055a4600960006101000a81548173ffffffffffffffffffffffffffffffffffffffff021916908373ffffffffffffffffffffffffffffffffffffffff16021790555062000318565b600033905090565b6000600760009054906101000a900473ffffffffffffffffffffffffffffffffffffffff16905081600760006101000a81548173ffffffffffffffffffffffffffffffffffffffff021916908373ffffffffffffffffffffffffffffffffffffffff1602179055508173ffffffffffffffffffffffffffffffffffffffff168173ffffffffffffffffffffffffffffffffffffffff167f8be0079c531659141344cd1fd0a4f28419497f9722a3daafe3b4186f6b6457e060405160405180910390a35050565b8280546200021190620002e2565b90600052602060002090601f01602090048101928262000235576000855562000281565b82601f106200025057805160ff191683800117855562000281565b8280016001018555821562000281579182015b828111156200028057825182559160200191906001019062000263565b5b50905062000290919062000294565b5090565b5b80821115620002af57600081600090555060010162000295565b5090565b7f4e487b7100000000000000000000000000000000000000000000000000000000600052602260045260246000fd5b60006002820490506001821680620002fb57607f821691505b60208210811415620003125762000311620002b3565b5b50919050565b613d7680620003286000396000f3fe6080604052600436106101355760003560e01c8063715018a6116100ab578063a22cb4651161006f578063a22cb46514610407578063b88d4fde14610430578063c87b56dd14610459578063d082e38114610496578063e985e9c5146104c1578063f2fde38b146104fe57610135565b8063715018a6146103465780638d859f3e1461035d5780638da5cb5b146103885780638ebcce60146103b357806395d89b41146103dc57610135565b806323b872dd116100fd57806323b872dd1461023357806332cb6b0c1461025c57806342842e0e146102875780634737576e146102b05780636352211e146102cc57806370a082311461030957610135565b806301ffc9a71461013a57806306fdde0314610177578063081812fc146101a2578063095ea7b3146101df57806318160ddd14610208575b600080fd5b34801561014657600080fd5b50610161600480360381019061015c91906124df565b610527565b60405161016e9190612527565b60405180910390f35b34801561018357600080fd5b5061018c610609565b60405161019991906125db565b60405180910390f35b3480156101ae57600080fd5b506101c960048036038101906101c49190612633565b61069b565b6040516101d691906126a1565b60405180910390f35b3480156101eb57600080fd5b50610206600480360381019061020191906126e8565b610720565b005b34801561021457600080fd5b5061021d610838565b60405161022a9190612737565b60405180910390f35b34801561023f57600080fd5b5061025a60048036038101906102559190612752565b610842565b005b34801561026857600080fd5b506102716108a2565b60405161027e9190612737565b60405180910390f35b34801561029357600080fd5b506102ae60048036038101906102a99190612752565b6108a8565b005b6102ca60048036038101906102c5919061297b565b6108c8565b005b3480156102d857600080fd5b506102f360048036038101906102ee9190612633565b610b19565b60405161030091906126a1565b60405180910390f35b34801561031557600080fd5b50610330600480360381019061032b91906129f3565b610bcb565b60405161033d9190612737565b60405180910390f35b34801561035257600080fd5b5061035b610c83565b005b34801561036957600080fd5b50610372610d0b565b60405161037f9190612737565b60405180910390f35b34801561039457600080fd5b5061039d610d16565b6040516103aa91906126a1565b60405180910390f35b3480156103bf57600080fd5b506103da60048036038101906103d591906129f3565b610d40565b005b3480156103e857600080fd5b506103f1610e00565b6040516103fe91906125db565b60405180910390f35b34801561041357600080fd5b5061042e60048036038101906104299190612a4c565b610e92565b005b34801561043c57600080fd5b5061045760048036038101906104529190612a8c565b611013565b005b34801561046557600080fd5b50610480600480360381019061047b9190612633565b611075565b60405161048d91906125db565b60405180910390f35b3480156104a257600080fd5b506104ab6111c7565b6040516104b89190612737565b60405180910390f35b3480156104cd57600080fd5b506104e860048036038101906104e39190612b0f565b6111cd565b6040516104f59190612527565b60405180910390f35b34801561050a57600080fd5b50610525600480360381019061052091906129f3565b611261565b005b60007f80ac58cd000000000000000000000000000000000000000000000000000000007bffffffffffffffffffffffffffffffffffffffffffffffffffffffff1916827bffffffffffffffffffffffffffffffffffffffffffffffffffffffff191614806105f257507f5b5e139f000000000000000000000000000000000000000000000000000000007bffffffffffffffffffffffffffffffffffffffffffffffffffffffff1916827bffffffffffffffffffffffffffffffffffffffffffffffffffffffff1916145b80610602575061060182611359565b5b9050919050565b60606000805461061890612b7e565b80601f016020809104026020016040519081016040528092919081815260200182805461064490612b7e565b80156106915780601f1061066657610100808354040283529160200191610691565b820191906000526020600020905b81548152906001019060200180831161067457829003601f168201915b5050505050905090565b60006106a6826113c3565b6106e5576040517f08c379a00000000000000000000000000000000000000000000000000000000081526004016106dc90612c22565b60405180910390fd5b6004600083815260200190815260200160002060009054906101000a900473ffffffffffffffffffffffffffffffffffffffff169050919050565b600061072b82610b19565b90508073ffffffffffffffffffffffffffffffffffffffff168373ffffffffffffffffffffffffffffffffffffffff16141561079c576040517f08c379a000000000000000000000000000000000000000000000000000000000815260040161079390612cb4565b60405180910390fd5b8073ffffffffffffffffffffffffffffffffffffffff166107bb61142f565b73ffffffffffffffffffffffffffffffffffffffff1614806107ea57506107e9816107e461142f565b6111cd565b5b610829576040517f08c379a000000000000000000000000000000000000000000000000000000000815260040161082090612d46565b60405180910390fd5b6108338383611437565b505050565b6000600854905090565b61085361084d61142f565b826114f0565b610892576040517f08c379a000000000000000000000000000000000000000000000000000000000815260040161088990612dd8565b60405180910390fd5b61089d8383836115ce565b505050565b610d0581565b6108c383838360405180602001604052806000815250611013565b505050565b610d056108d3610838565b10610913576040517f08c379a000000000000000000000000000000000000000000000000000000000815260040161090a90612e6a565b60405180910390fd5b34662386f26fc1000081101561092857600080fd5b82600a816040516109399190612ec6565b908152602001604051809103902060009054906101000a900460ff1615610995576040517f08c379a000000000000000000000000000000000000000000000000000000000815260040161098c90612f29565b60405180910390fd5b838360006109c8836040516020016109ad9190612ec6565b6040516020818303038152906040528051906020012061182a565b905060006109df838361185a90919063ffffffff16565b9050600960009054906101000a900473ffffffffffffffffffffffffffffffffffffffff1673ffffffffffffffffffffffffffffffffffffffff168173ffffffffffffffffffffffffffffffffffffffff1614610a71576040517f08c379a0000000000000000000000000000000000000000000000000000000008152600401610a6890612fbb565b60405180910390fd5b610a7d33600854611881565b610a896008548961189f565b6001600854610a98919061300a565b6008819055506001600a89604051610ab09190612ec6565b908152602001604051809103902060006101000a81548160ff0219169083151502179055506008547f76f7fca95f42b7cc08ae899562323ce35e06277441faebeac6111259312439be89604051610b0791906125db565b60405180910390a25050505050505050565b6000806002600084815260200190815260200160002060009054906101000a900473ffffffffffffffffffffffffffffffffffffffff169050600073ffffffffffffffffffffffffffffffffffffffff168173ffffffffffffffffffffffffffffffffffffffff161415610bc2576040517f08c379a0000000000000000000000000000000000000000000000000000000008152600401610bb9906130d2565b60405180910390fd5b80915050919050565b60008073ffffffffffffffffffffffffffffffffffffffff168273ffffffffffffffffffffffffffffffffffffffff161415610c3c576040517f08c379a0000000000000000000000000000000000000000000000000000000008152600401610c3390613164565b60405180910390fd5b600360008373ffffffffffffffffffffffffffffffffffffffff1673ffffffffffffffffffffffffffffffffffffffff168152602001908152602001600020549050919050565b610c8b61142f565b73ffffffffffffffffffffffffffffffffffffffff16610ca9610d16565b73ffffffffffffffffffffffffffffffffffffffff1614610cff576040517f08c379a0000000000000000000000000000000000000000000000000000000008152600401610cf6906131d0565b60405180910390fd5b610d096000611913565b565b662386f26fc1000081565b6000600760009054906101000a900473ffffffffffffffffffffffffffffffffffffffff16905090565b610d4861142f565b73ffffffffffffffffffffffffffffffffffffffff16610d66610d16565b73ffffffffffffffffffffffffffffffffffffffff1614610dbc576040517f08c379a0000000000000000000000000000000000000000000000000000000008152600401610db3906131d0565b60405180910390fd5b80600960006101000a81548173ffffffffffffffffffffffffffffffffffffffff021916908373ffffffffffffffffffffffffffffffffffffffff16021790555050565b606060018054610e0f90612b7e565b80601f0160208091040260200160405190810160405280929190818152602001828054610e3b90612b7e565b8015610e885780601f10610e5d57610100808354040283529160200191610e88565b820191906000526020600020905b815481529060010190602001808311610e6b57829003601f168201915b5050505050905090565b610e9a61142f565b73ffffffffffffffffffffffffffffffffffffffff168273ffffffffffffffffffffffffffffffffffffffff161415610f08576040517f08c379a0000000000000000000000000000000000000000000000000000000008152600401610eff9061323c565b60405180910390fd5b8060056000610f1561142f565b73ffffffffffffffffffffffffffffffffffffffff1673ffffffffffffffffffffffffffffffffffffffff16815260200190815260200160002060008473ffffffffffffffffffffffffffffffffffffffff1673ffffffffffffffffffffffffffffffffffffffff16815260200190815260200160002060006101000a81548160ff0219169083151502179055508173ffffffffffffffffffffffffffffffffffffffff16610fc261142f565b73ffffffffffffffffffffffffffffffffffffffff167f17307eab39ab6107e8899845ad3d59bd9653f200f220920489ca2b5937696c31836040516110079190612527565b60405180910390a35050565b61102461101e61142f565b836114f0565b611063576040517f08c379a000000000000000000000000000000000000000000000000000000000815260040161105a90612dd8565b60405180910390fd5b61106f848484846119d9565b50505050565b6060611080826113c3565b6110bf576040517f08c379a00000000000000000000000000000000000000000000000000000000081526004016110b6906132ce565b60405180910390fd5b60006006600084815260200190815260200160002080546110df90612b7e565b80601f016020809104026020016040519081016040528092919081815260200182805461110b90612b7e565b80156111585780601f1061112d57610100808354040283529160200191611158565b820191906000526020600020905b81548152906001019060200180831161113b57829003601f168201915b505050505090506000611169611a35565b905060008151141561117f5781925050506111c2565b6000825111156111b457808260405160200161119c9291906132ee565b604051602081830303815290604052925050506111c2565b6111bd84611a4c565b925050505b919050565b60085481565b6000600560008473ffffffffffffffffffffffffffffffffffffffff1673ffffffffffffffffffffffffffffffffffffffff16815260200190815260200160002060008373ffffffffffffffffffffffffffffffffffffffff1673ffffffffffffffffffffffffffffffffffffffff16815260200190815260200160002060009054906101000a900460ff16905092915050565b61126961142f565b73ffffffffffffffffffffffffffffffffffffffff16611287610d16565b73ffffffffffffffffffffffffffffffffffffffff16146112dd576040517f08c379a00000000000000000000000000000000000000000000000000000000081526004016112d4906131d0565b60405180910390fd5b600073ffffffffffffffffffffffffffffffffffffffff168173ffffffffffffffffffffffffffffffffffffffff16141561134d576040517f08c379a000000000000000000000000000000000000000000000000000000000815260040161134490613384565b60405180910390fd5b61135681611913565b50565b60007f01ffc9a7000000000000000000000000000000000000000000000000000000007bffffffffffffffffffffffffffffffffffffffffffffffffffffffff1916827bffffffffffffffffffffffffffffffffffffffffffffffffffffffff1916149050919050565b60008073ffffffffffffffffffffffffffffffffffffffff166002600084815260200190815260200160002060009054906101000a900473ffffffffffffffffffffffffffffffffffffffff1673ffffffffffffffffffffffffffffffffffffffff1614159050919050565b600033905090565b816004600083815260200190815260200160002060006101000a81548173ffffffffffffffffffffffffffffffffffffffff021916908373ffffffffffffffffffffffffffffffffffffffff160217905550808273ffffffffffffffffffffffffffffffffffffffff166114aa83610b19565b73ffffffffffffffffffffffffffffffffffffffff167f8c5be1e5ebec7d5bd14f71427d1e84f3dd0314c0f7b2291e5b200ac8c7c3b92560405160405180910390a45050565b60006114fb826113c3565b61153a576040517f08c379a000000000000000000000000000000000000000000000000000000000815260040161153190613416565b60405180910390fd5b600061154583610b19565b90508073ffffffffffffffffffffffffffffffffffffffff168473ffffffffffffffffffffffffffffffffffffffff1614806115b457508373ffffffffffffffffffffffffffffffffffffffff1661159c8461069b565b73ffffffffffffffffffffffffffffffffffffffff16145b806115c557506115c481856111cd565b5b91505092915050565b8273ffffffffffffffffffffffffffffffffffffffff166115ee82610b19565b73ffffffffffffffffffffffffffffffffffffffff1614611644576040517f08c379a000000000000000000000000000000000000000000000000000000000815260040161163b906134a8565b60405180910390fd5b600073ffffffffffffffffffffffffffffffffffffffff168273ffffffffffffffffffffffffffffffffffffffff1614156116b4576040517f08c379a00000000000000000000000000000000000000000000000000000000081526004016116ab9061353a565b60405180910390fd5b6116bf838383611af3565b6116ca600082611437565b6001600360008573ffffffffffffffffffffffffffffffffffffffff1673ffffffffffffffffffffffffffffffffffffffff168152602001908152602001600020600082825461171a919061355a565b925050819055506001600360008473ffffffffffffffffffffffffffffffffffffffff1673ffffffffffffffffffffffffffffffffffffffff1681526020019081526020016000206000828254611771919061300a565b92505081905550816002600083815260200190815260200160002060006101000a81548173ffffffffffffffffffffffffffffffffffffffff021916908373ffffffffffffffffffffffffffffffffffffffff160217905550808273ffffffffffffffffffffffffffffffffffffffff168473ffffffffffffffffffffffffffffffffffffffff167fddf252ad1be2c89b69c2b068fc378daa952ba7f163c4a11628f55a4df523b3ef60405160405180910390a4505050565b60008160405160200161183d9190613605565b604051602081830303815290604052805190602001209050919050565b60008060006118698585611af8565b9150915061187681611b7b565b819250505092915050565b61189b828260405180602001604052806000815250611d50565b5050565b6118a8826113c3565b6118e7576040517f08c379a00000000000000000000000000000000000000000000000000000000081526004016118de9061369d565b60405180910390fd5b8060066000848152602001908152602001600020908051906020019061190e9291906123d0565b505050565b6000600760009054906101000a900473ffffffffffffffffffffffffffffffffffffffff16905081600760006101000a81548173ffffffffffffffffffffffffffffffffffffffff021916908373ffffffffffffffffffffffffffffffffffffffff1602179055508173ffffffffffffffffffffffffffffffffffffffff168173ffffffffffffffffffffffffffffffffffffffff167f8be0079c531659141344cd1fd0a4f28419497f9722a3daafe3b4186f6b6457e060405160405180910390a35050565b6119e48484846115ce565b6119f084848484611dab565b611a2f576040517f08c379a0000000000000000000000000000000000000000000000000000000008152600401611a269061372f565b60405180910390fd5b50505050565b606060405180602001604052806000815250905090565b6060611a57826113c3565b611a96576040517f08c379a0000000000000000000000000000000000000000000000000000000008152600401611a8d906137c1565b60405180910390fd5b6000611aa0611a35565b90506000815111611ac05760405180602001604052806000815250611aeb565b80611aca84611f33565b604051602001611adb9291906132ee565b6040516020818303038152906040525b915050919050565b505050565b600080604183511415611b3a5760008060006020860151925060408601519150606086015160001a9050611b2e87828585612094565b94509450505050611b74565b604083511415611b6b576000806020850151915060408501519050611b608683836121a1565b935093505050611b74565b60006002915091505b9250929050565b60006004811115611b8f57611b8e6137e1565b5b816004811115611ba257611ba16137e1565b5b1415611bad57611d4d565b60016004811115611bc157611bc06137e1565b5b816004811115611bd457611bd36137e1565b5b1415611c15576040517f08c379a0000000000000000000000000000000000000000000000000000000008152600401611c0c9061385c565b60405180910390fd5b60026004811115611c2957611c286137e1565b5b816004811115611c3c57611c3b6137e1565b5b1415611c7d576040517f08c379a0000000000000000000000000000000000000000000000000000000008152600401611c74906138c8565b60405180910390fd5b60036004811115611c9157611c906137e1565b5b816004811115611ca457611ca36137e1565b5b1415611ce5576040517f08c379a0000000000000000000000000000000000000000000000000000000008152600401611cdc9061395a565b60405180910390fd5b600480811115611cf857611cf76137e1565b5b816004811115611d0b57611d0a6137e1565b5b1415611d4c576040517f08c379a0000000000000000000000000000000000000000000000000000000008152600401611d43906139ec565b60405180910390fd5b5b50565b611d5a83836121ef565b611d676000848484611dab565b611da6576040517f08c379a0000000000000000000000000000000000000000000000000000000008152600401611d9d9061372f565b60405180910390fd5b505050565b6000611dcc8473ffffffffffffffffffffffffffffffffffffffff166123bd565b15611f26578373ffffffffffffffffffffffffffffffffffffffff1663150b7a02611df561142f565b8786866040518563ffffffff1660e01b8152600401611e179493929190613a61565b6020604051808303816000875af1925050508015611e5357506040513d601f19601f82011682018060405250810190611e509190613ac2565b60015b611ed6573d8060008114611e83576040519150601f19603f3d011682016040523d82523d6000602084013e611e88565b606091505b50600081511415611ece576040517f08c379a0000000000000000000000000000000000000000000000000000000008152600401611ec59061372f565b60405180910390fd5b805181602001fd5b63150b7a0260e01b7bffffffffffffffffffffffffffffffffffffffffffffffffffffffff1916817bffffffffffffffffffffffffffffffffffffffffffffffffffffffff191614915050611f2b565b600190505b949350505050565b60606000821415611f7b576040518060400160405280600181526020017f3000000000000000000000000000000000000000000000000000000000000000815250905061208f565b600082905060005b60008214611fad578080611f9690613aef565b915050600a82611fa69190613b67565b9150611f83565b60008167ffffffffffffffff811115611fc957611fc86127af565b5b6040519080825280601f01601f191660200182016040528015611ffb5781602001600182028036833780820191505090505b5090505b6000851461208857600182612014919061355a565b9150600a856120239190613b98565b603061202f919061300a565b60f81b81838151811061204557612044613bc9565b5b60200101907effffffffffffffffffffffffffffffffffffffffffffffffffffffffffffff1916908160001a905350600a856120819190613b67565b9450611fff565b8093505050505b919050565b6000807f7fffffffffffffffffffffffffffffff5d576e7357a4501ddfe92f46681b20a08360001c11156120cf576000600391509150612198565b601b8560ff16141580156120e75750601c8560ff1614155b156120f9576000600491509150612198565b60006001878787876040516000815260200160405260405161211e9493929190613c23565b6020604051602081039080840390855afa158015612140573d6000803e3d6000fd5b505050602060405103519050600073ffffffffffffffffffffffffffffffffffffffff168173ffffffffffffffffffffffffffffffffffffffff16141561218f57600060019250925050612198565b80600092509250505b94509492505050565b6000806000807f7fffffffffffffffffffffffffffffffffffffffffffffffffffffffffffffff85169150601b8560ff1c0190506121e187828885612094565b935093505050935093915050565b600073ffffffffffffffffffffffffffffffffffffffff168273ffffffffffffffffffffffffffffffffffffffff16141561225f576040517f08c379a000000000000000000000000000000000000000000000000000000000815260040161225690613cb4565b60405180910390fd5b612268816113c3565b156122a8576040517f08c379a000000000000000000000000000000000000000000000000000000000815260040161229f90613d20565b60405180910390fd5b6122b460008383611af3565b6001600360008473ffffffffffffffffffffffffffffffffffffffff1673ffffffffffffffffffffffffffffffffffffffff1681526020019081526020016000206000828254612304919061300a565b92505081905550816002600083815260200190815260200160002060006101000a81548173ffffffffffffffffffffffffffffffffffffffff021916908373ffffffffffffffffffffffffffffffffffffffff160217905550808273ffffffffffffffffffffffffffffffffffffffff16600073ffffffffffffffffffffffffffffffffffffffff167fddf252ad1be2c89b69c2b068fc378daa952ba7f163c4a11628f55a4df523b3ef60405160405180910390a45050565b600080823b905060008111915050919050565b8280546123dc90612b7e565b90600052602060002090601f0160209004810192826123fe5760008555612445565b82601f1061241757805160ff1916838001178555612445565b82800160010185558215612445579182015b82811115612444578251825591602001919060010190612429565b5b5090506124529190612456565b5090565b5b8082111561246f576000816000905550600101612457565b5090565b6000604051905090565b600080fd5b600080fd5b60007fffffffff0000000000000000000000000000000000000000000000000000000082169050919050565b6124bc81612487565b81146124c757600080fd5b50565b6000813590506124d9816124b3565b92915050565b6000602082840312156124f5576124f461247d565b5b6000612503848285016124ca565b91505092915050565b60008115159050919050565b6125218161250c565b82525050565b600060208201905061253c6000830184612518565b92915050565b600081519050919050565b600082825260208201905092915050565b60005b8381101561257c578082015181840152602081019050612561565b8381111561258b576000848401525b50505050565b6000601f19601f8301169050919050565b60006125ad82612542565b6125b7818561254d565b93506125c781856020860161255e565b6125d081612591565b840191505092915050565b600060208201905081810360008301526125f581846125a2565b905092915050565b6000819050919050565b612610816125fd565b811461261b57600080fd5b50565b60008135905061262d81612607565b92915050565b6000602082840312156126495761264861247d565b5b60006126578482850161261e565b91505092915050565b600073ffffffffffffffffffffffffffffffffffffffff82169050919050565b600061268b82612660565b9050919050565b61269b81612680565b82525050565b60006020820190506126b66000830184612692565b92915050565b6126c581612680565b81146126d057600080fd5b50565b6000813590506126e2816126bc565b92915050565b600080604083850312156126ff576126fe61247d565b5b600061270d858286016126d3565b925050602061271e8582860161261e565b9150509250929050565b612731816125fd565b82525050565b600060208201905061274c6000830184612728565b92915050565b60008060006060848603121561276b5761276a61247d565b5b6000612779868287016126d3565b935050602061278a868287016126d3565b925050604061279b8682870161261e565b9150509250925092565b600080fd5b600080fd5b7f4e487b7100000000000000000000000000000000000000000000000000000000600052604160045260246000fd5b6127e782612591565b810181811067ffffffffffffffff82111715612806576128056127af565b5b80604052505050565b6000612819612473565b905061282582826127de565b919050565b600067ffffffffffffffff821115612845576128446127af565b5b61284e82612591565b9050602081019050919050565b82818337600083830152505050565b600061287d6128788461282a565b61280f565b905082815260208101848484011115612899576128986127aa565b5b6128a484828561285b565b509392505050565b600082601f8301126128c1576128c06127a5565b5b81356128d184826020860161286a565b91505092915050565b600067ffffffffffffffff8211156128f5576128f46127af565b5b6128fe82612591565b9050602081019050919050565b600061291e612919846128da565b61280f565b90508281526020810184848401111561293a576129396127aa565b5b61294584828561285b565b509392505050565b600082601f830112612962576129616127a5565b5b813561297284826020860161290b565b91505092915050565b600080604083850312156129925761299161247d565b5b600083013567ffffffffffffffff8111156129b0576129af612482565b5b6129bc858286016128ac565b925050602083013567ffffffffffffffff8111156129dd576129dc612482565b5b6129e98582860161294d565b9150509250929050565b600060208284031215612a0957612a0861247d565b5b6000612a17848285016126d3565b91505092915050565b612a298161250c565b8114612a3457600080fd5b50565b600081359050612a4681612a20565b92915050565b60008060408385031215612a6357612a6261247d565b5b6000612a71858286016126d3565b9250506020612a8285828601612a37565b9150509250929050565b60008060008060808587031215612aa657612aa561247d565b5b6000612ab4878288016126d3565b9450506020612ac5878288016126d3565b9350506040612ad68782880161261e565b925050606085013567ffffffffffffffff811115612af757612af6612482565b5b612b038782880161294d565b91505092959194509250565b60008060408385031215612b2657612b2561247d565b5b6000612b34858286016126d3565b9250506020612b45858286016126d3565b9150509250929050565b7f4e487b7100000000000000000000000000000000000000000000000000000000600052602260045260246000fd5b60006002820490506001821680612b9657607f821691505b60208210811415612baa57612ba9612b4f565b5b50919050565b7f4552433732313a20617070726f76656420717565727920666f72206e6f6e657860008201527f697374656e7420746f6b656e0000000000000000000000000000000000000000602082015250565b6000612c0c602c8361254d565b9150612c1782612bb0565b604082019050919050565b60006020820190508181036000830152612c3b81612bff565b9050919050565b7f4552433732313a20617070726f76616c20746f2063757272656e74206f776e6560008201527f7200000000000000000000000000000000000000000000000000000000000000602082015250565b6000612c9e60218361254d565b9150612ca982612c42565b604082019050919050565b60006020820190508181036000830152612ccd81612c91565b9050919050565b7f4552433732313a20617070726f76652063616c6c6572206973206e6f74206f7760008201527f6e6572206e6f7220617070726f76656420666f7220616c6c0000000000000000602082015250565b6000612d3060388361254d565b9150612d3b82612cd4565b604082019050919050565b60006020820190508181036000830152612d5f81612d23565b9050919050565b7f4552433732313a207472616e736665722063616c6c6572206973206e6f74206f60008201527f776e6572206e6f7220617070726f766564000000000000000000000000000000602082015250565b6000612dc260318361254d565b9150612dcd82612d66565b604082019050919050565b60006020820190508181036000830152612df181612db5565b9050919050565b7f4d617820737570706c792068617320616c7265616479206265656e206d696e7460008201527f65642e0000000000000000000000000000000000000000000000000000000000602082015250565b6000612e5460238361254d565b9150612e5f82612df8565b604082019050919050565b60006020820190508181036000830152612e8381612e47565b9050919050565b600081905092915050565b6000612ea082612542565b612eaa8185612e8a565b9350612eba81856020860161255e565b80840191505092915050565b6000612ed28284612e95565b915081905092915050565b7f546f6b656e205552492065786973747300000000000000000000000000000000600082015250565b6000612f1360108361254d565b9150612f1e82612edd565b602082019050919050565b60006020820190508181036000830152612f4281612f06565b9050919050565b7f4d657373616765206e6f74207369676e65642062792074727565207369676e6560008201527f722e000000000000000000000000000000000000000000000000000000000000602082015250565b6000612fa560228361254d565b9150612fb082612f49565b604082019050919050565b60006020820190508181036000830152612fd481612f98565b9050919050565b7f4e487b7100000000000000000000000000000000000000000000000000000000600052601160045260246000fd5b6000613015826125fd565b9150613020836125fd565b9250827fffffffffffffffffffffffffffffffffffffffffffffffffffffffffffffffff0382111561305557613054612fdb565b5b828201905092915050565b7f4552433732313a206f776e657220717565727920666f72206e6f6e657869737460008201527f656e7420746f6b656e0000000000000000000000000000000000000000000000602082015250565b60006130bc60298361254d565b91506130c782613060565b604082019050919050565b600060208201905081810360008301526130eb816130af565b9050919050565b7f4552433732313a2062616c616e636520717565727920666f7220746865207a6560008201527f726f206164647265737300000000000000000000000000000000000000000000602082015250565b600061314e602a8361254d565b9150613159826130f2565b604082019050919050565b6000602082019050818103600083015261317d81613141565b9050919050565b7f4f776e61626c653a2063616c6c6572206973206e6f7420746865206f776e6572600082015250565b60006131ba60208361254d565b91506131c582613184565b602082019050919050565b600060208201905081810360008301526131e9816131ad565b9050919050565b7f4552433732313a20617070726f766520746f2063616c6c657200000000000000600082015250565b600061322660198361254d565b9150613231826131f0565b602082019050919050565b6000602082019050818103600083015261325581613219565b9050919050565b7f45524337323155524953746f726167653a2055524920717565727920666f722060008201527f6e6f6e6578697374656e7420746f6b656e000000000000000000000000000000602082015250565b60006132b860318361254d565b91506132c38261325c565b604082019050919050565b600060208201905081810360008301526132e7816132ab565b9050919050565b60006132fa8285612e95565b91506133068284612e95565b91508190509392505050565b7f4f776e61626c653a206e6577206f776e657220697320746865207a65726f206160008201527f6464726573730000000000000000000000000000000000000000000000000000602082015250565b600061336e60268361254d565b915061337982613312565b604082019050919050565b6000602082019050818103600083015261339d81613361565b9050919050565b7f4552433732313a206f70657261746f7220717565727920666f72206e6f6e657860008201527f697374656e7420746f6b656e0000000000000000000000000000000000000000602082015250565b6000613400602c8361254d565b915061340b826133a4565b604082019050919050565b6000602082019050818103600083015261342f816133f3565b9050919050565b7f4552433732313a207472616e73666572206f6620746f6b656e2074686174206960008201527f73206e6f74206f776e0000000000000000000000000000000000000000000000602082015250565b600061349260298361254d565b915061349d82613436565b604082019050919050565b600060208201905081810360008301526134c181613485565b9050919050565b7f4552433732313a207472616e7366657220746f20746865207a65726f2061646460008201527f7265737300000000000000000000000000000000000000000000000000000000602082015250565b600061352460248361254d565b915061352f826134c8565b604082019050919050565b6000602082019050818103600083015261355381613517565b9050919050565b6000613565826125fd565b9150613570836125fd565b92508282101561358357613582612fdb565b5b828203905092915050565b7f19457468657265756d205369676e6564204d6573736167653a0a333200000000600082015250565b60006135c4601c83612e8a565b91506135cf8261358e565b601c82019050919050565b6000819050919050565b6000819050919050565b6135ff6135fa826135da565b6135e4565b82525050565b6000613610826135b7565b915061361c82846135ee565b60208201915081905092915050565b7f45524337323155524953746f726167653a2055524920736574206f66206e6f6e60008201527f6578697374656e7420746f6b656e000000000000000000000000000000000000602082015250565b6000613687602e8361254d565b91506136928261362b565b604082019050919050565b600060208201905081810360008301526136b68161367a565b9050919050565b7f4552433732313a207472616e7366657220746f206e6f6e20455243373231526560008201527f63656976657220696d706c656d656e7465720000000000000000000000000000602082015250565b600061371960328361254d565b9150613724826136bd565b604082019050919050565b600060208201905081810360008301526137488161370c565b9050919050565b7f4552433732314d657461646174613a2055524920717565727920666f72206e6f60008201527f6e6578697374656e7420746f6b656e0000000000000000000000000000000000602082015250565b60006137ab602f8361254d565b91506137b68261374f565b604082019050919050565b600060208201905081810360008301526137da8161379e565b9050919050565b7f4e487b7100000000000000000000000000000000000000000000000000000000600052602160045260246000fd5b7f45434453413a20696e76616c6964207369676e61747572650000000000000000600082015250565b600061384660188361254d565b915061385182613810565b602082019050919050565b6000602082019050818103600083015261387581613839565b9050919050565b7f45434453413a20696e76616c6964207369676e6174757265206c656e67746800600082015250565b60006138b2601f8361254d565b91506138bd8261387c565b602082019050919050565b600060208201905081810360008301526138e1816138a5565b9050919050565b7f45434453413a20696e76616c6964207369676e6174757265202773272076616c60008201527f7565000000000000000000000000000000000000000000000000000000000000602082015250565b600061394460228361254d565b915061394f826138e8565b604082019050919050565b6000602082019050818103600083015261397381613937565b9050919050565b7f45434453413a20696e76616c6964207369676e6174757265202776272076616c60008201527f7565000000000000000000000000000000000000000000000000000000000000602082015250565b60006139d660228361254d565b91506139e18261397a565b604082019050919050565b60006020820190508181036000830152613a05816139c9565b9050919050565b600081519050919050565b600082825260208201905092915050565b6000613a3382613a0c565b613a3d8185613a17565b9350613a4d81856020860161255e565b613a5681612591565b840191505092915050565b6000608082019050613a766000830187612692565b613a836020830186612692565b613a906040830185612728565b8181036060830152613aa28184613a28565b905095945050505050565b600081519050613abc816124b3565b92915050565b600060208284031215613ad857613ad761247d565b5b6000613ae684828501613aad565b91505092915050565b6000613afa826125fd565b91507fffffffffffffffffffffffffffffffffffffffffffffffffffffffffffffffff821415613b2d57613b2c612fdb565b5b600182019050919050565b7f4e487b7100000000000000000000000000000000000000000000000000000000600052601260045260246000fd5b6000613b72826125fd565b9150613b7d836125fd565b925082613b8d57613b8c613b38565b5b828204905092915050565b6000613ba3826125fd565b9150613bae836125fd565b925082613bbe57613bbd613b38565b5b828206905092915050565b7f4e487b7100000000000000000000000000000000000000000000000000000000600052603260045260246000fd5b613c01816135da565b82525050565b600060ff82169050919050565b613c1d81613c07565b82525050565b6000608082019050613c386000830187613bf8565b613c456020830186613c14565b613c526040830185613bf8565b613c5f6060830184613bf8565b95945050505050565b7f4552433732313a206d696e7420746f20746865207a65726f2061646472657373600082015250565b6000613c9e60208361254d565b9150613ca982613c68565b602082019050919050565b60006020820190508181036000830152613ccd81613c91565b9050919050565b7f4552433732313a20746f6b656e20616c7265616479206d696e74656400000000600082015250565b6000613d0a601c8361254d565b9150613d1582613cd4565b602082019050919050565b60006020820190508181036000830152613d3981613cfd565b905091905056fea2646970667358221220c7a6e82a2d05943abd18c9e1f61020da14f08c3f9d865612f53ce30301c0937664736f6c634300080a0033",
  "linkReferences": {},
  "deployedLinkReferences": {}
}