{
  "_format": "hh-sol-artifact-1",
  "contractName": "AIHaiku",
  "sourceName": "contracts/AIHaiku.sol",
  "abi": [
    {
      "inputs": [],
      "stateMutability": "nonpayable",
      "type": "constructor"
    },
    {
      "anonymous": false,
      "inputs": [
        {
          "indexed": true,
          "internalType": "address",
          "name": "owner",
          "type": "address"
        },
        {
          "indexed": true,
          "internalType": "address",
          "name": "approved",
          "type": "address"
        },
        {
          "indexed": true,
          "internalType": "uint256",
          "name": "tokenId",
          "type": "uint256"
        }
      ],
      "name": "Approval",
      "type": "event"
    },
    {
      "anonymous": false,
      "inputs": [
        {
          "indexed": true,
          "internalType": "address",
          "name": "owner",
          "type": "address"
        },
        {
          "indexed": true,
          "internalType": "address",
          "name": "operator",
          "type": "address"
        },
        {
          "indexed": false,
          "internalType": "bool",
          "name": "approved",
          "type": "bool"
        }
      ],
      "name": "ApprovalForAll",
      "type": "event"
    },
    {
      "anonymous": false,
      "inputs": [
        {
          "indexed": true,
          "internalType": "uint256",
          "name": "tokenId",
          "type": "uint256"
        },
        {
          "indexed": false,
          "internalType": "string",
          "name": "tokenURI",
          "type": "string"
        }
      ],
      "name": "CreatedAIHaiku",
      "type": "event"
    },
    {
      "anonymous": false,
      "inputs": [
        {
          "indexed": true,
          "internalType": "address",
          "name": "previousOwner",
          "type": "address"
        },
        {
          "indexed": true,
          "internalType": "address",
          "name": "newOwner",
          "type": "address"
        }
      ],
      "name": "OwnershipTransferred",
      "type": "event"
    },
    {
      "anonymous": false,
      "inputs": [
        {
          "indexed": true,
          "internalType": "address",
          "name": "from",
          "type": "address"
        },
        {
          "indexed": true,
          "internalType": "address",
          "name": "to",
          "type": "address"
        },
        {
          "indexed": true,
          "internalType": "uint256",
          "name": "tokenId",
          "type": "uint256"
        }
      ],
      "name": "Transfer",
      "type": "event"
    },
    {
      "inputs": [
        {
          "internalType": "address",
          "name": "to",
          "type": "address"
        },
        {
          "internalType": "uint256",
          "name": "tokenId",
          "type": "uint256"
        }
      ],
      "name": "approve",
      "outputs": [],
      "stateMutability": "nonpayable",
      "type": "function"
    },
    {
      "inputs": [
        {
          "internalType": "address",
          "name": "owner",
          "type": "address"
        }
      ],
      "name": "balanceOf",
      "outputs": [
        {
          "internalType": "uint256",
          "name": "",
          "type": "uint256"
        }
      ],
      "stateMutability": "view",
      "type": "function"
    },
    {
      "inputs": [
        {
          "internalType": "uint256",
          "name": "tokenId",
          "type": "uint256"
        }
      ],
      "name": "getApproved",
      "outputs": [
        {
          "internalType": "address",
          "name": "",
          "type": "address"
        }
      ],
      "stateMutability": "view",
      "type": "function"
    },
    {
      "inputs": [
        {
          "internalType": "address",
          "name": "owner",
          "type": "address"
        },
        {
          "internalType": "address",
          "name": "operator",
          "type": "address"
        }
      ],
      "name": "isApprovedForAll",
      "outputs": [
        {
          "internalType": "bool",
          "name": "",
          "type": "bool"
        }
      ],
      "stateMutability": "view",
      "type": "function"
    },
    {
      "inputs": [],
      "name": "maxSupply",
      "outputs": [
        {
          "internalType": "uint256",
          "name": "",
          "type": "uint256"
        }
      ],
      "stateMutability": "view",
      "type": "function"
    },
    {
      "inputs": [],
      "name": "name",
      "outputs": [
        {
          "internalType": "string",
          "name": "",
          "type": "string"
        }
      ],
      "stateMutability": "view",
      "type": "function"
    },
    {
      "inputs": [],
      "name": "owner",
      "outputs": [
        {
          "internalType": "address",
          "name": "",
          "type": "address"
        }
      ],
      "stateMutability": "view",
      "type": "function"
    },
    {
      "inputs": [
        {
          "internalType": "uint256",
          "name": "tokenId",
          "type": "uint256"
        }
      ],
      "name": "ownerOf",
      "outputs": [
        {
          "internalType": "address",
          "name": "",
          "type": "address"
        }
      ],
      "stateMutability": "view",
      "type": "function"
    },
    {
      "inputs": [],
      "name": "payout",
      "outputs": [],
      "stateMutability": "payable",
      "type": "function"
    },
    {
      "inputs": [],
      "name": "price",
      "outputs": [
        {
          "internalType": "uint256",
          "name": "",
          "type": "uint256"
        }
      ],
      "stateMutability": "view",
      "type": "function"
    },
    {
      "inputs": [
        {
          "internalType": "string",
          "name": "tokenUri",
          "type": "string"
        },
        {
          "internalType": "bytes",
          "name": "signature",
          "type": "bytes"
        }
      ],
      "name": "publicMint",
      "outputs": [],
      "stateMutability": "payable",
      "type": "function"
    },
    {
      "inputs": [],
      "name": "renounceOwnership",
      "outputs": [],
      "stateMutability": "nonpayable",
      "type": "function"
    },
    {
      "inputs": [
        {
          "internalType": "address",
          "name": "from",
          "type": "address"
        },
        {
          "internalType": "address",
          "name": "to",
          "type": "address"
        },
        {
          "internalType": "uint256",
          "name": "tokenId",
          "type": "uint256"
        }
      ],
      "name": "safeTransferFrom",
      "outputs": [],
      "stateMutability": "nonpayable",
      "type": "function"
    },
    {
      "inputs": [
        {
          "internalType": "address",
          "name": "from",
          "type": "address"
        },
        {
          "internalType": "address",
          "name": "to",
          "type": "address"
        },
        {
          "internalType": "uint256",
          "name": "tokenId",
          "type": "uint256"
        },
        {
          "internalType": "bytes",
          "name": "_data",
          "type": "bytes"
        }
      ],
      "name": "safeTransferFrom",
      "outputs": [],
      "stateMutability": "nonpayable",
      "type": "function"
    },
    {
      "inputs": [
        {
          "internalType": "address",
          "name": "operator",
          "type": "address"
        },
        {
          "internalType": "bool",
          "name": "approved",
          "type": "bool"
        }
      ],
      "name": "setApprovalForAll",
      "outputs": [],
      "stateMutability": "nonpayable",
      "type": "function"
    },
    {
      "inputs": [
        {
          "internalType": "bytes4",
          "name": "interfaceId",
          "type": "bytes4"
        }
      ],
      "name": "supportsInterface",
      "outputs": [
        {
          "internalType": "bool",
          "name": "",
          "type": "bool"
        }
      ],
      "stateMutability": "view",
      "type": "function"
    },
    {
      "inputs": [],
      "name": "symbol",
      "outputs": [
        {
          "internalType": "string",
          "name": "",
          "type": "string"
        }
      ],
      "stateMutability": "view",
      "type": "function"
    },
    {
      "inputs": [],
      "name": "tokenCounter",
      "outputs": [
        {
          "internalType": "uint256",
          "name": "",
          "type": "uint256"
        }
      ],
      "stateMutability": "view",
      "type": "function"
    },
    {
      "inputs": [
        {
          "internalType": "uint256",
          "name": "tokenId",
          "type": "uint256"
        }
      ],
      "name": "tokenURI",
      "outputs": [
        {
          "internalType": "string",
          "name": "",
          "type": "string"
        }
      ],
      "stateMutability": "view",
      "type": "function"
    },
    {
      "inputs": [],
      "name": "totalSupply",
      "outputs": [
        {
          "internalType": "uint256",
          "name": "",
          "type": "uint256"
        }
      ],
      "stateMutability": "view",
      "type": "function"
    },
    {
      "inputs": [
        {
          "internalType": "address",
          "name": "from",
          "type": "address"
        },
        {
          "internalType": "address",
          "name": "to",
          "type": "address"
        },
        {
          "internalType": "uint256",
          "name": "tokenId",
          "type": "uint256"
        }
      ],
      "name": "transferFrom",
      "outputs": [],
      "stateMutability": "nonpayable",
      "type": "function"
    },
    {
      "inputs": [
        {
          "internalType": "address",
          "name": "newOwner",
          "type": "address"
        }
      ],
      "name": "transferOwnership",
      "outputs": [],
      "stateMutability": "nonpayable",
      "type": "function"
    },
    {
      "inputs": [
        {
          "internalType": "address",
          "name": "newAddress",
          "type": "address"
        }
      ],
      "name": "updateSignerPublicKey",
      "outputs": [],
      "stateMutability": "nonpayable",
      "type": "function"
    },
    {
      "inputs": [
        {
          "internalType": "string",
          "name": "tokenUri",
          "type": "string"
        },
        {
          "internalType": "bytes",
          "name": "signature",
          "type": "bytes"
        }
      ],
      "name": "whitelistMint",
      "outputs": [],
      "stateMutability": "payable",
      "type": "function"
    }
  ],
  "bytecode": "0x60806040523480156200001157600080fd5b506040518060400160405280600881526020017f4149204861696b750000000000000000000000000000000000000000000000008152506040518060400160405280600581526020017f4841494b5500000000000000000000000000000000000000000000000000000081525081600090805190602001906200009692919062000258565b508060019080519060200190620000af92919062000258565b505050620000d2620000c66200018a60201b60201c565b6200019260201b60201c565b600060088190555073dba800f4da03dba3f604268aec2ad9eb28a055a4600960006101000a81548173ffffffffffffffffffffffffffffffffffffffff021916908373ffffffffffffffffffffffffffffffffffffffff16021790555073dba800f4da03dba3f604268aec2ad9eb28a055a4600a60006101000a81548173ffffffffffffffffffffffffffffffffffffffff021916908373ffffffffffffffffffffffffffffffffffffffff1602179055506200036d565b600033905090565b6000600760009054906101000a900473ffffffffffffffffffffffffffffffffffffffff16905081600760006101000a81548173ffffffffffffffffffffffffffffffffffffffff021916908373ffffffffffffffffffffffffffffffffffffffff1602179055508173ffffffffffffffffffffffffffffffffffffffff168173ffffffffffffffffffffffffffffffffffffffff167f8be0079c531659141344cd1fd0a4f28419497f9722a3daafe3b4186f6b6457e060405160405180910390a35050565b828054620002669062000337565b90600052602060002090601f0160209004810192826200028a5760008555620002d6565b82601f10620002a557805160ff1916838001178555620002d6565b82800160010185558215620002d6579182015b82811115620002d5578251825591602001919060010190620002b8565b5b509050620002e59190620002e9565b5090565b5b8082111562000304576000816000905550600101620002ea565b5090565b7f4e487b7100000000000000000000000000000000000000000000000000000000600052602260045260246000fd5b600060028204905060018216806200035057607f821691505b6020821081141562000367576200036662000308565b5b50919050565b6140c2806200037d6000396000f3fe60806040526004361061014b5760003560e01c80637d27b9ec116100b6578063b88d4fde1161006f578063b88d4fde14610441578063c87b56dd1461046a578063d082e381146104a7578063d5abeb01146104d2578063e985e9c5146104fd578063f2fde38b1461053a5761014b565b80637d27b9ec146103525780638da5cb5b1461036e5780638ebcce601461039957806395d89b41146103c2578063a035b1fe146103ed578063a22cb465146104185761014b565b806342842e0e1161010857806342842e0e1461027257806342f5d95d1461029b5780636352211e146102b757806363bd1d4a146102f457806370a08231146102fe578063715018a61461033b5761014b565b806301ffc9a71461015057806306fdde031461018d578063081812fc146101b8578063095ea7b3146101f557806318160ddd1461021e57806323b872dd14610249575b600080fd5b34801561015c57600080fd5b50610177600480360381019061017291906127bd565b610563565b6040516101849190612805565b60405180910390f35b34801561019957600080fd5b506101a2610645565b6040516101af91906128b9565b60405180910390f35b3480156101c457600080fd5b506101df60048036038101906101da9190612911565b6106d7565b6040516101ec919061297f565b60405180910390f35b34801561020157600080fd5b5061021c600480360381019061021791906129c6565b61075c565b005b34801561022a57600080fd5b50610233610874565b6040516102409190612a15565b60405180910390f35b34801561025557600080fd5b50610270600480360381019061026b9190612a30565b61087e565b005b34801561027e57600080fd5b5061029960048036038101906102949190612a30565b6108de565b005b6102b560048036038101906102b09190612c59565b6108fe565b005b3480156102c357600080fd5b506102de60048036038101906102d99190612911565b610a34565b6040516102eb919061297f565b60405180910390f35b6102fc610ae6565b005b34801561030a57600080fd5b5061032560048036038101906103209190612cd1565b610bcd565b6040516103329190612a15565b60405180910390f35b34801561034757600080fd5b50610350610c85565b005b61036c60048036038101906103679190612c59565b610d0d565b005b34801561037a57600080fd5b50610383610e89565b604051610390919061297f565b60405180910390f35b3480156103a557600080fd5b506103c060048036038101906103bb9190612cd1565b610eb3565b005b3480156103ce57600080fd5b506103d7610f73565b6040516103e491906128b9565b60405180910390f35b3480156103f957600080fd5b50610402611005565b60405161040f9190612a15565b60405180910390f35b34801561042457600080fd5b5061043f600480360381019061043a9190612d2a565b611010565b005b34801561044d57600080fd5b5061046860048036038101906104639190612d6a565b611191565b005b34801561047657600080fd5b50610491600480360381019061048c9190612911565b6111f3565b60405161049e91906128b9565b60405180910390f35b3480156104b357600080fd5b506104bc611345565b6040516104c99190612a15565b60405180910390f35b3480156104de57600080fd5b506104e761134b565b6040516104f49190612a15565b60405180910390f35b34801561050957600080fd5b50610524600480360381019061051f9190612ded565b611351565b6040516105319190612805565b60405180910390f35b34801561054657600080fd5b50610561600480360381019061055c9190612cd1565b6113e5565b005b60007f80ac58cd000000000000000000000000000000000000000000000000000000007bffffffffffffffffffffffffffffffffffffffffffffffffffffffff1916827bffffffffffffffffffffffffffffffffffffffffffffffffffffffff1916148061062e57507f5b5e139f000000000000000000000000000000000000000000000000000000007bffffffffffffffffffffffffffffffffffffffffffffffffffffffff1916827bffffffffffffffffffffffffffffffffffffffffffffffffffffffff1916145b8061063e575061063d826114dd565b5b9050919050565b60606000805461065490612e5c565b80601f016020809104026020016040519081016040528092919081815260200182805461068090612e5c565b80156106cd5780601f106106a2576101008083540402835291602001916106cd565b820191906000526020600020905b8154815290600101906020018083116106b057829003601f168201915b5050505050905090565b60006106e282611547565b610721576040517f08c379a000000000000000000000000000000000000000000000000000000000815260040161071890612f00565b60405180910390fd5b6004600083815260200190815260200160002060009054906101000a900473ffffffffffffffffffffffffffffffffffffffff169050919050565b600061076782610a34565b90508073ffffffffffffffffffffffffffffffffffffffff168373ffffffffffffffffffffffffffffffffffffffff1614156107d8576040517f08c379a00000000000000000000000000000000000000000000000000000000081526004016107cf90612f92565b60405180910390fd5b8073ffffffffffffffffffffffffffffffffffffffff166107f76115b3565b73ffffffffffffffffffffffffffffffffffffffff1614806108265750610825816108206115b3565b611351565b5b610865576040517f08c379a000000000000000000000000000000000000000000000000000000000815260040161085c90613024565b60405180910390fd5b61086f83836115bb565b505050565b6000600854905090565b61088f6108896115b3565b82611674565b6108ce576040517f08c379a00000000000000000000000000000000000000000000000000000000081526004016108c5906130b6565b60405180910390fd5b6108d9838383611752565b505050565b6108f983838360405180602001604052806000815250611191565b505050565b34662386f26fc1000081101561091357600080fd5b828260008081610942578360405160200161092e9190613112565b604051602081830303815290604052610963565b836040516020016109539190613175565b6040516020818303038152906040525b9050600061097782805190602001206119ae565b9050600061098e85836119de90919063ffffffff16565b9050600960009054906101000a900473ffffffffffffffffffffffffffffffffffffffff1673ffffffffffffffffffffffffffffffffffffffff168173ffffffffffffffffffffffffffffffffffffffff1614610a20576040517f08c379a0000000000000000000000000000000000000000000000000000000008152600401610a1790613209565b60405180910390fd5b610a2989611a05565b505050505050505050565b6000806002600084815260200190815260200160002060009054906101000a900473ffffffffffffffffffffffffffffffffffffffff169050600073ffffffffffffffffffffffffffffffffffffffff168173ffffffffffffffffffffffffffffffffffffffff161415610add576040517f08c379a0000000000000000000000000000000000000000000000000000000008152600401610ad49061329b565b60405180910390fd5b80915050919050565b610aee6115b3565b73ffffffffffffffffffffffffffffffffffffffff16610b0c610e89565b73ffffffffffffffffffffffffffffffffffffffff1614610b62576040517f08c379a0000000000000000000000000000000000000000000000000000000008152600401610b5990613307565b60405180910390fd5b600a60009054906101000a900473ffffffffffffffffffffffffffffffffffffffff1673ffffffffffffffffffffffffffffffffffffffff166108fc479081150290604051600060405180830381858888f19350505050158015610bca573d6000803e3d6000fd5b50565b60008073ffffffffffffffffffffffffffffffffffffffff168273ffffffffffffffffffffffffffffffffffffffff161415610c3e576040517f08c379a0000000000000000000000000000000000000000000000000000000008152600401610c3590613399565b60405180910390fd5b600360008373ffffffffffffffffffffffffffffffffffffffff1673ffffffffffffffffffffffffffffffffffffffff168152602001908152602001600020549050919050565b610c8d6115b3565b73ffffffffffffffffffffffffffffffffffffffff16610cab610e89565b73ffffffffffffffffffffffffffffffffffffffff1614610d01576040517f08c379a0000000000000000000000000000000000000000000000000000000008152600401610cf890613307565b60405180910390fd5b610d0b6000611b5f565b565b34662386f26fc10000811015610d2257600080fd5b82826001600081610d525783604051602001610d3e9190613112565b604051602081830303815290604052610d73565b83604051602001610d639190613175565b6040516020818303038152906040525b90506000610d8782805190602001206119ae565b90506000610d9e85836119de90919063ffffffff16565b9050600960009054906101000a900473ffffffffffffffffffffffffffffffffffffffff1673ffffffffffffffffffffffffffffffffffffffff168173ffffffffffffffffffffffffffffffffffffffff1614610e30576040517f08c379a0000000000000000000000000000000000000000000000000000000008152600401610e2790613209565b60405180910390fd5b610e3989611a05565b6001600c60003373ffffffffffffffffffffffffffffffffffffffff1673ffffffffffffffffffffffffffffffffffffffff16815260200190815260200160002081905550505050505050505050565b6000600760009054906101000a900473ffffffffffffffffffffffffffffffffffffffff16905090565b610ebb6115b3565b73ffffffffffffffffffffffffffffffffffffffff16610ed9610e89565b73ffffffffffffffffffffffffffffffffffffffff1614610f2f576040517f08c379a0000000000000000000000000000000000000000000000000000000008152600401610f2690613307565b60405180910390fd5b80600960006101000a81548173ffffffffffffffffffffffffffffffffffffffff021916908373ffffffffffffffffffffffffffffffffffffffff16021790555050565b606060018054610f8290612e5c565b80601f0160208091040260200160405190810160405280929190818152602001828054610fae90612e5c565b8015610ffb5780601f10610fd057610100808354040283529160200191610ffb565b820191906000526020600020905b815481529060010190602001808311610fde57829003601f168201915b5050505050905090565b662386f26fc1000081565b6110186115b3565b73ffffffffffffffffffffffffffffffffffffffff168273ffffffffffffffffffffffffffffffffffffffff161415611086576040517f08c379a000000000000000000000000000000000000000000000000000000000815260040161107d90613405565b60405180910390fd5b80600560006110936115b3565b73ffffffffffffffffffffffffffffffffffffffff1673ffffffffffffffffffffffffffffffffffffffff16815260200190815260200160002060008473ffffffffffffffffffffffffffffffffffffffff1673ffffffffffffffffffffffffffffffffffffffff16815260200190815260200160002060006101000a81548160ff0219169083151502179055508173ffffffffffffffffffffffffffffffffffffffff166111406115b3565b73ffffffffffffffffffffffffffffffffffffffff167f17307eab39ab6107e8899845ad3d59bd9653f200f220920489ca2b5937696c31836040516111859190612805565b60405180910390a35050565b6111a261119c6115b3565b83611674565b6111e1576040517f08c379a00000000000000000000000000000000000000000000000000000000081526004016111d8906130b6565b60405180910390fd5b6111ed84848484611c25565b50505050565b60606111fe82611547565b61123d576040517f08c379a000000000000000000000000000000000000000000000000000000000815260040161123490613497565b60405180910390fd5b600060066000848152602001908152602001600020805461125d90612e5c565b80601f016020809104026020016040519081016040528092919081815260200182805461128990612e5c565b80156112d65780601f106112ab576101008083540402835291602001916112d6565b820191906000526020600020905b8154815290600101906020018083116112b957829003601f168201915b5050505050905060006112e7611c81565b90506000815114156112fd578192505050611340565b60008251111561133257808260405160200161131a9291906134b7565b60405160208183030381529060405292505050611340565b61133b84611c98565b925050505b919050565b60085481565b61023f81565b6000600560008473ffffffffffffffffffffffffffffffffffffffff1673ffffffffffffffffffffffffffffffffffffffff16815260200190815260200160002060008373ffffffffffffffffffffffffffffffffffffffff1673ffffffffffffffffffffffffffffffffffffffff16815260200190815260200160002060009054906101000a900460ff16905092915050565b6113ed6115b3565b73ffffffffffffffffffffffffffffffffffffffff1661140b610e89565b73ffffffffffffffffffffffffffffffffffffffff1614611461576040517f08c379a000000000000000000000000000000000000000000000000000000000815260040161145890613307565b60405180910390fd5b600073ffffffffffffffffffffffffffffffffffffffff168173ffffffffffffffffffffffffffffffffffffffff1614156114d1576040517f08c379a00000000000000000000000000000000000000000000000000000000081526004016114c89061354d565b60405180910390fd5b6114da81611b5f565b50565b60007f01ffc9a7000000000000000000000000000000000000000000000000000000007bffffffffffffffffffffffffffffffffffffffffffffffffffffffff1916827bffffffffffffffffffffffffffffffffffffffffffffffffffffffff1916149050919050565b60008073ffffffffffffffffffffffffffffffffffffffff166002600084815260200190815260200160002060009054906101000a900473ffffffffffffffffffffffffffffffffffffffff1673ffffffffffffffffffffffffffffffffffffffff1614159050919050565b600033905090565b816004600083815260200190815260200160002060006101000a81548173ffffffffffffffffffffffffffffffffffffffff021916908373ffffffffffffffffffffffffffffffffffffffff160217905550808273ffffffffffffffffffffffffffffffffffffffff1661162e83610a34565b73ffffffffffffffffffffffffffffffffffffffff167f8c5be1e5ebec7d5bd14f71427d1e84f3dd0314c0f7b2291e5b200ac8c7c3b92560405160405180910390a45050565b600061167f82611547565b6116be576040517f08c379a00000000000000000000000000000000000000000000000000000000081526004016116b5906135df565b60405180910390fd5b60006116c983610a34565b90508073ffffffffffffffffffffffffffffffffffffffff168473ffffffffffffffffffffffffffffffffffffffff16148061173857508373ffffffffffffffffffffffffffffffffffffffff16611720846106d7565b73ffffffffffffffffffffffffffffffffffffffff16145b8061174957506117488185611351565b5b91505092915050565b8273ffffffffffffffffffffffffffffffffffffffff1661177282610a34565b73ffffffffffffffffffffffffffffffffffffffff16146117c8576040517f08c379a00000000000000000000000000000000000000000000000000000000081526004016117bf90613671565b60405180910390fd5b600073ffffffffffffffffffffffffffffffffffffffff168273ffffffffffffffffffffffffffffffffffffffff161415611838576040517f08c379a000000000000000000000000000000000000000000000000000000000815260040161182f90613703565b60405180910390fd5b611843838383611d3f565b61184e6000826115bb565b6001600360008573ffffffffffffffffffffffffffffffffffffffff1673ffffffffffffffffffffffffffffffffffffffff168152602001908152602001600020600082825461189e9190613752565b925050819055506001600360008473ffffffffffffffffffffffffffffffffffffffff1673ffffffffffffffffffffffffffffffffffffffff16815260200190815260200160002060008282546118f59190613786565b92505081905550816002600083815260200190815260200160002060006101000a81548173ffffffffffffffffffffffffffffffffffffffff021916908373ffffffffffffffffffffffffffffffffffffffff160217905550808273ffffffffffffffffffffffffffffffffffffffff168473ffffffffffffffffffffffffffffffffffffffff167fddf252ad1be2c89b69c2b068fc378daa952ba7f163c4a11628f55a4df523b3ef60405160405180910390a4505050565b6000816040516020016119c19190613853565b604051602081830303815290604052805190602001209050919050565b60008060006119ed8585611d44565b915091506119fa81611dc7565b819250505092915050565b61023f611a10610874565b10611a50576040517f08c379a0000000000000000000000000000000000000000000000000000000008152600401611a47906138eb565b60405180910390fd5b80600b81604051611a619190613112565b908152602001604051809103902060009054906101000a900460ff1615611abd576040517f08c379a0000000000000000000000000000000000000000000000000000000008152600401611ab490613957565b60405180910390fd5b611ac933600854611f9c565b611ad560085483611fba565b6001600854611ae49190613786565b6008819055506001600b83604051611afc9190613112565b908152602001604051809103902060006101000a81548160ff0219169083151502179055506008547f76f7fca95f42b7cc08ae899562323ce35e06277441faebeac6111259312439be83604051611b5391906128b9565b60405180910390a25050565b6000600760009054906101000a900473ffffffffffffffffffffffffffffffffffffffff16905081600760006101000a81548173ffffffffffffffffffffffffffffffffffffffff021916908373ffffffffffffffffffffffffffffffffffffffff1602179055508173ffffffffffffffffffffffffffffffffffffffff168173ffffffffffffffffffffffffffffffffffffffff167f8be0079c531659141344cd1fd0a4f28419497f9722a3daafe3b4186f6b6457e060405160405180910390a35050565b611c30848484611752565b611c3c8484848461202e565b611c7b576040517f08c379a0000000000000000000000000000000000000000000000000000000008152600401611c72906139e9565b60405180910390fd5b50505050565b606060405180602001604052806000815250905090565b6060611ca382611547565b611ce2576040517f08c379a0000000000000000000000000000000000000000000000000000000008152600401611cd990613a7b565b60405180910390fd5b6000611cec611c81565b90506000815111611d0c5760405180602001604052806000815250611d37565b80611d16846121b6565b604051602001611d279291906134b7565b6040516020818303038152906040525b915050919050565b505050565b600080604183511415611d865760008060006020860151925060408601519150606086015160001a9050611d7a87828585612317565b94509450505050611dc0565b604083511415611db7576000806020850151915060408501519050611dac868383612424565b935093505050611dc0565b60006002915091505b9250929050565b60006004811115611ddb57611dda613a9b565b5b816004811115611dee57611ded613a9b565b5b1415611df957611f99565b60016004811115611e0d57611e0c613a9b565b5b816004811115611e2057611e1f613a9b565b5b1415611e61576040517f08c379a0000000000000000000000000000000000000000000000000000000008152600401611e5890613b16565b60405180910390fd5b60026004811115611e7557611e74613a9b565b5b816004811115611e8857611e87613a9b565b5b1415611ec9576040517f08c379a0000000000000000000000000000000000000000000000000000000008152600401611ec090613b82565b60405180910390fd5b60036004811115611edd57611edc613a9b565b5b816004811115611ef057611eef613a9b565b5b1415611f31576040517f08c379a0000000000000000000000000000000000000000000000000000000008152600401611f2890613c14565b60405180910390fd5b600480811115611f4457611f43613a9b565b5b816004811115611f5757611f56613a9b565b5b1415611f98576040517f08c379a0000000000000000000000000000000000000000000000000000000008152600401611f8f90613ca6565b60405180910390fd5b5b50565b611fb6828260405180602001604052806000815250612472565b5050565b611fc382611547565b612002576040517f08c379a0000000000000000000000000000000000000000000000000000000008152600401611ff990613d38565b60405180910390fd5b806006600084815260200190815260200160002090805190602001906120299291906126ae565b505050565b600061204f8473ffffffffffffffffffffffffffffffffffffffff166124cd565b156121a9578373ffffffffffffffffffffffffffffffffffffffff1663150b7a026120786115b3565b8786866040518563ffffffff1660e01b815260040161209a9493929190613dad565b6020604051808303816000875af19250505080156120d657506040513d601f19601f820116820180604052508101906120d39190613e0e565b60015b612159573d8060008114612106576040519150601f19603f3d011682016040523d82523d6000602084013e61210b565b606091505b50600081511415612151576040517f08c379a0000000000000000000000000000000000000000000000000000000008152600401612148906139e9565b60405180910390fd5b805181602001fd5b63150b7a0260e01b7bffffffffffffffffffffffffffffffffffffffffffffffffffffffff1916817bffffffffffffffffffffffffffffffffffffffffffffffffffffffff1916149150506121ae565b600190505b949350505050565b606060008214156121fe576040518060400160405280600181526020017f30000000000000000000000000000000000000000000000000000000000000008152509050612312565b600082905060005b6000821461223057808061221990613e3b565b915050600a826122299190613eb3565b9150612206565b60008167ffffffffffffffff81111561224c5761224b612a8d565b5b6040519080825280601f01601f19166020018201604052801561227e5781602001600182028036833780820191505090505b5090505b6000851461230b576001826122979190613752565b9150600a856122a69190613ee4565b60306122b29190613786565b60f81b8183815181106122c8576122c7613f15565b5b60200101907effffffffffffffffffffffffffffffffffffffffffffffffffffffffffffff1916908160001a905350600a856123049190613eb3565b9450612282565b8093505050505b919050565b6000807f7fffffffffffffffffffffffffffffff5d576e7357a4501ddfe92f46681b20a08360001c111561235257600060039150915061241b565b601b8560ff161415801561236a5750601c8560ff1614155b1561237c57600060049150915061241b565b6000600187878787604051600081526020016040526040516123a19493929190613f6f565b6020604051602081039080840390855afa1580156123c3573d6000803e3d6000fd5b505050602060405103519050600073ffffffffffffffffffffffffffffffffffffffff168173ffffffffffffffffffffffffffffffffffffffff1614156124125760006001925092505061241b565b80600092509250505b94509492505050565b6000806000807f7fffffffffffffffffffffffffffffffffffffffffffffffffffffffffffffff85169150601b8560ff1c01905061246487828885612317565b935093505050935093915050565b61247c83836124e0565b612489600084848461202e565b6124c8576040517f08c379a00000000000000000000000000000000000000000000000000000000081526004016124bf906139e9565b60405180910390fd5b505050565b600080823b905060008111915050919050565b600073ffffffffffffffffffffffffffffffffffffffff168273ffffffffffffffffffffffffffffffffffffffff161415612550576040517f08c379a000000000000000000000000000000000000000000000000000000000815260040161254790614000565b60405180910390fd5b61255981611547565b15612599576040517f08c379a00000000000000000000000000000000000000000000000000000000081526004016125909061406c565b60405180910390fd5b6125a560008383611d3f565b6001600360008473ffffffffffffffffffffffffffffffffffffffff1673ffffffffffffffffffffffffffffffffffffffff16815260200190815260200160002060008282546125f59190613786565b92505081905550816002600083815260200190815260200160002060006101000a81548173ffffffffffffffffffffffffffffffffffffffff021916908373ffffffffffffffffffffffffffffffffffffffff160217905550808273ffffffffffffffffffffffffffffffffffffffff16600073ffffffffffffffffffffffffffffffffffffffff167fddf252ad1be2c89b69c2b068fc378daa952ba7f163c4a11628f55a4df523b3ef60405160405180910390a45050565b8280546126ba90612e5c565b90600052602060002090601f0160209004810192826126dc5760008555612723565b82601f106126f557805160ff1916838001178555612723565b82800160010185558215612723579182015b82811115612722578251825591602001919060010190612707565b5b5090506127309190612734565b5090565b5b8082111561274d576000816000905550600101612735565b5090565b6000604051905090565b600080fd5b600080fd5b60007fffffffff0000000000000000000000000000000000000000000000000000000082169050919050565b61279a81612765565b81146127a557600080fd5b50565b6000813590506127b781612791565b92915050565b6000602082840312156127d3576127d261275b565b5b60006127e1848285016127a8565b91505092915050565b60008115159050919050565b6127ff816127ea565b82525050565b600060208201905061281a60008301846127f6565b92915050565b600081519050919050565b600082825260208201905092915050565b60005b8381101561285a57808201518184015260208101905061283f565b83811115612869576000848401525b50505050565b6000601f19601f8301169050919050565b600061288b82612820565b612895818561282b565b93506128a581856020860161283c565b6128ae8161286f565b840191505092915050565b600060208201905081810360008301526128d38184612880565b905092915050565b6000819050919050565b6128ee816128db565b81146128f957600080fd5b50565b60008135905061290b816128e5565b92915050565b6000602082840312156129275761292661275b565b5b6000612935848285016128fc565b91505092915050565b600073ffffffffffffffffffffffffffffffffffffffff82169050919050565b60006129698261293e565b9050919050565b6129798161295e565b82525050565b60006020820190506129946000830184612970565b92915050565b6129a38161295e565b81146129ae57600080fd5b50565b6000813590506129c08161299a565b92915050565b600080604083850312156129dd576129dc61275b565b5b60006129eb858286016129b1565b92505060206129fc858286016128fc565b9150509250929050565b612a0f816128db565b82525050565b6000602082019050612a2a6000830184612a06565b92915050565b600080600060608486031215612a4957612a4861275b565b5b6000612a57868287016129b1565b9350506020612a68868287016129b1565b9250506040612a79868287016128fc565b9150509250925092565b600080fd5b600080fd5b7f4e487b7100000000000000000000000000000000000000000000000000000000600052604160045260246000fd5b612ac58261286f565b810181811067ffffffffffffffff82111715612ae457612ae3612a8d565b5b80604052505050565b6000612af7612751565b9050612b038282612abc565b919050565b600067ffffffffffffffff821115612b2357612b22612a8d565b5b612b2c8261286f565b9050602081019050919050565b82818337600083830152505050565b6000612b5b612b5684612b08565b612aed565b905082815260208101848484011115612b7757612b76612a88565b5b612b82848285612b39565b509392505050565b600082601f830112612b9f57612b9e612a83565b5b8135612baf848260208601612b48565b91505092915050565b600067ffffffffffffffff821115612bd357612bd2612a8d565b5b612bdc8261286f565b9050602081019050919050565b6000612bfc612bf784612bb8565b612aed565b905082815260208101848484011115612c1857612c17612a88565b5b612c23848285612b39565b509392505050565b600082601f830112612c4057612c3f612a83565b5b8135612c50848260208601612be9565b91505092915050565b60008060408385031215612c7057612c6f61275b565b5b600083013567ffffffffffffffff811115612c8e57612c8d612760565b5b612c9a85828601612b8a565b925050602083013567ffffffffffffffff811115612cbb57612cba612760565b5b612cc785828601612c2b565b9150509250929050565b600060208284031215612ce757612ce661275b565b5b6000612cf5848285016129b1565b91505092915050565b612d07816127ea565b8114612d1257600080fd5b50565b600081359050612d2481612cfe565b92915050565b60008060408385031215612d4157612d4061275b565b5b6000612d4f858286016129b1565b9250506020612d6085828601612d15565b9150509250929050565b60008060008060808587031215612d8457612d8361275b565b5b6000612d92878288016129b1565b9450506020612da3878288016129b1565b9350506040612db4878288016128fc565b925050606085013567ffffffffffffffff811115612dd557612dd4612760565b5b612de187828801612c2b565b91505092959194509250565b60008060408385031215612e0457612e0361275b565b5b6000612e12858286016129b1565b9250506020612e23858286016129b1565b9150509250929050565b7f4e487b7100000000000000000000000000000000000000000000000000000000600052602260045260246000fd5b60006002820490506001821680612e7457607f821691505b60208210811415612e8857612e87612e2d565b5b50919050565b7f4552433732313a20617070726f76656420717565727920666f72206e6f6e657860008201527f697374656e7420746f6b656e0000000000000000000000000000000000000000602082015250565b6000612eea602c8361282b565b9150612ef582612e8e565b604082019050919050565b60006020820190508181036000830152612f1981612edd565b9050919050565b7f4552433732313a20617070726f76616c20746f2063757272656e74206f776e6560008201527f7200000000000000000000000000000000000000000000000000000000000000602082015250565b6000612f7c60218361282b565b9150612f8782612f20565b604082019050919050565b60006020820190508181036000830152612fab81612f6f565b9050919050565b7f4552433732313a20617070726f76652063616c6c6572206973206e6f74206f7760008201527f6e6572206e6f7220617070726f76656420666f7220616c6c0000000000000000602082015250565b600061300e60388361282b565b915061301982612fb2565b604082019050919050565b6000602082019050818103600083015261303d81613001565b9050919050565b7f4552433732313a207472616e736665722063616c6c6572206973206e6f74206f60008201527f776e6572206e6f7220617070726f766564000000000000000000000000000000602082015250565b60006130a060318361282b565b91506130ab82613044565b604082019050919050565b600060208201905081810360008301526130cf81613093565b9050919050565b600081905092915050565b60006130ec82612820565b6130f681856130d6565b935061310681856020860161283c565b80840191505092915050565b600061311e82846130e1565b915081905092915050565b7f57686974656c69737465643a0000000000000000000000000000000000000000600082015250565b600061315f600c836130d6565b915061316a82613129565b600c82019050919050565b600061318082613152565b915061318c82846130e1565b915081905092915050565b7f4d657373616765206e6f74207369676e65642062792074727565207369676e6560008201527f722e000000000000000000000000000000000000000000000000000000000000602082015250565b60006131f360228361282b565b91506131fe82613197565b604082019050919050565b60006020820190508181036000830152613222816131e6565b9050919050565b7f4552433732313a206f776e657220717565727920666f72206e6f6e657869737460008201527f656e7420746f6b656e0000000000000000000000000000000000000000000000602082015250565b600061328560298361282b565b915061329082613229565b604082019050919050565b600060208201905081810360008301526132b481613278565b9050919050565b7f4f776e61626c653a2063616c6c6572206973206e6f7420746865206f776e6572600082015250565b60006132f160208361282b565b91506132fc826132bb565b602082019050919050565b60006020820190508181036000830152613320816132e4565b9050919050565b7f4552433732313a2062616c616e636520717565727920666f7220746865207a6560008201527f726f206164647265737300000000000000000000000000000000000000000000602082015250565b6000613383602a8361282b565b915061338e82613327565b604082019050919050565b600060208201905081810360008301526133b281613376565b9050919050565b7f4552433732313a20617070726f766520746f2063616c6c657200000000000000600082015250565b60006133ef60198361282b565b91506133fa826133b9565b602082019050919050565b6000602082019050818103600083015261341e816133e2565b9050919050565b7f45524337323155524953746f726167653a2055524920717565727920666f722060008201527f6e6f6e6578697374656e7420746f6b656e000000000000000000000000000000602082015250565b600061348160318361282b565b915061348c82613425565b604082019050919050565b600060208201905081810360008301526134b081613474565b9050919050565b60006134c382856130e1565b91506134cf82846130e1565b91508190509392505050565b7f4f776e61626c653a206e6577206f776e657220697320746865207a65726f206160008201527f6464726573730000000000000000000000000000000000000000000000000000602082015250565b600061353760268361282b565b9150613542826134db565b604082019050919050565b600060208201905081810360008301526135668161352a565b9050919050565b7f4552433732313a206f70657261746f7220717565727920666f72206e6f6e657860008201527f697374656e7420746f6b656e0000000000000000000000000000000000000000602082015250565b60006135c9602c8361282b565b91506135d48261356d565b604082019050919050565b600060208201905081810360008301526135f8816135bc565b9050919050565b7f4552433732313a207472616e73666572206f6620746f6b656e2074686174206960008201527f73206e6f74206f776e0000000000000000000000000000000000000000000000602082015250565b600061365b60298361282b565b9150613666826135ff565b604082019050919050565b6000602082019050818103600083015261368a8161364e565b9050919050565b7f4552433732313a207472616e7366657220746f20746865207a65726f2061646460008201527f7265737300000000000000000000000000000000000000000000000000000000602082015250565b60006136ed60248361282b565b91506136f882613691565b604082019050919050565b6000602082019050818103600083015261371c816136e0565b9050919050565b7f4e487b7100000000000000000000000000000000000000000000000000000000600052601160045260246000fd5b600061375d826128db565b9150613768836128db565b92508282101561377b5761377a613723565b5b828203905092915050565b6000613791826128db565b915061379c836128db565b9250827fffffffffffffffffffffffffffffffffffffffffffffffffffffffffffffffff038211156137d1576137d0613723565b5b828201905092915050565b7f19457468657265756d205369676e6564204d6573736167653a0a333200000000600082015250565b6000613812601c836130d6565b915061381d826137dc565b601c82019050919050565b6000819050919050565b6000819050919050565b61384d61384882613828565b613832565b82525050565b600061385e82613805565b915061386a828461383c565b60208201915081905092915050565b7f4d617820737570706c792068617320616c7265616479206265656e206d696e7460008201527f65642e0000000000000000000000000000000000000000000000000000000000602082015250565b60006138d560238361282b565b91506138e082613879565b604082019050919050565b60006020820190508181036000830152613904816138c8565b9050919050565b7f546f6b656e205552492065786973747300000000000000000000000000000000600082015250565b600061394160108361282b565b915061394c8261390b565b602082019050919050565b6000602082019050818103600083015261397081613934565b9050919050565b7f4552433732313a207472616e7366657220746f206e6f6e20455243373231526560008201527f63656976657220696d706c656d656e7465720000000000000000000000000000602082015250565b60006139d360328361282b565b91506139de82613977565b604082019050919050565b60006020820190508181036000830152613a02816139c6565b9050919050565b7f4552433732314d657461646174613a2055524920717565727920666f72206e6f60008201527f6e6578697374656e7420746f6b656e0000000000000000000000000000000000602082015250565b6000613a65602f8361282b565b9150613a7082613a09565b604082019050919050565b60006020820190508181036000830152613a9481613a58565b9050919050565b7f4e487b7100000000000000000000000000000000000000000000000000000000600052602160045260246000fd5b7f45434453413a20696e76616c6964207369676e61747572650000000000000000600082015250565b6000613b0060188361282b565b9150613b0b82613aca565b602082019050919050565b60006020820190508181036000830152613b2f81613af3565b9050919050565b7f45434453413a20696e76616c6964207369676e6174757265206c656e67746800600082015250565b6000613b6c601f8361282b565b9150613b7782613b36565b602082019050919050565b60006020820190508181036000830152613b9b81613b5f565b9050919050565b7f45434453413a20696e76616c6964207369676e6174757265202773272076616c60008201527f7565000000000000000000000000000000000000000000000000000000000000602082015250565b6000613bfe60228361282b565b9150613c0982613ba2565b604082019050919050565b60006020820190508181036000830152613c2d81613bf1565b9050919050565b7f45434453413a20696e76616c6964207369676e6174757265202776272076616c60008201527f7565000000000000000000000000000000000000000000000000000000000000602082015250565b6000613c9060228361282b565b9150613c9b82613c34565b604082019050919050565b60006020820190508181036000830152613cbf81613c83565b9050919050565b7f45524337323155524953746f726167653a2055524920736574206f66206e6f6e60008201527f6578697374656e7420746f6b656e000000000000000000000000000000000000602082015250565b6000613d22602e8361282b565b9150613d2d82613cc6565b604082019050919050565b60006020820190508181036000830152613d5181613d15565b9050919050565b600081519050919050565b600082825260208201905092915050565b6000613d7f82613d58565b613d898185613d63565b9350613d9981856020860161283c565b613da28161286f565b840191505092915050565b6000608082019050613dc26000830187612970565b613dcf6020830186612970565b613ddc6040830185612a06565b8181036060830152613dee8184613d74565b905095945050505050565b600081519050613e0881612791565b92915050565b600060208284031215613e2457613e2361275b565b5b6000613e3284828501613df9565b91505092915050565b6000613e46826128db565b91507fffffffffffffffffffffffffffffffffffffffffffffffffffffffffffffffff821415613e7957613e78613723565b5b600182019050919050565b7f4e487b7100000000000000000000000000000000000000000000000000000000600052601260045260246000fd5b6000613ebe826128db565b9150613ec9836128db565b925082613ed957613ed8613e84565b5b828204905092915050565b6000613eef826128db565b9150613efa836128db565b925082613f0a57613f09613e84565b5b828206905092915050565b7f4e487b7100000000000000000000000000000000000000000000000000000000600052603260045260246000fd5b613f4d81613828565b82525050565b600060ff82169050919050565b613f6981613f53565b82525050565b6000608082019050613f846000830187613f44565b613f916020830186613f60565b613f9e6040830185613f44565b613fab6060830184613f44565b95945050505050565b7f4552433732313a206d696e7420746f20746865207a65726f2061646472657373600082015250565b6000613fea60208361282b565b9150613ff582613fb4565b602082019050919050565b6000602082019050818103600083015261401981613fdd565b9050919050565b7f4552433732313a20746f6b656e20616c7265616479206d696e74656400000000600082015250565b6000614056601c8361282b565b915061406182614020565b602082019050919050565b6000602082019050818103600083015261408581614049565b905091905056fea2646970667358221220d248ce60f7f2371aa1687978e3139d26c2658bfc742493d561c16471607a729c64736f6c634300080a0033",
  "linkReferences": {},
  "deployedLinkReferences": {}
}