{
  "_format": "hh-sol-artifact-1",
  "contractName": "EthArNFT",
  "sourceName": "contracts/EthArNFT.sol",
  "abi": [
    {
      "inputs": [],
      "stateMutability": "nonpayable",
      "type": "constructor"
    },
    {
      "anonymous": false,
      "inputs": [
        {
          "indexed": true,
          "internalType": "address",
          "name": "owner",
          "type": "address"
        },
        {
          "indexed": true,
          "internalType": "address",
          "name": "approved",
          "type": "address"
        },
        {
          "indexed": true,
          "internalType": "uint256",
          "name": "tokenId",
          "type": "uint256"
        }
      ],
      "name": "Approval",
      "type": "event"
    },
    {
      "anonymous": false,
      "inputs": [
        {
          "indexed": true,
          "internalType": "address",
          "name": "owner",
          "type": "address"
        },
        {
          "indexed": true,
          "internalType": "address",
          "name": "operator",
          "type": "address"
        },
        {
          "indexed": false,
          "internalType": "bool",
          "name": "approved",
          "type": "bool"
        }
      ],
      "name": "ApprovalForAll",
      "type": "event"
    },
    {
      "anonymous": false,
      "inputs": [
        {
          "indexed": true,
          "internalType": "uint256",
          "name": "tokenId",
          "type": "uint256"
        },
        {
          "indexed": false,
          "internalType": "string",
          "name": "tokenURI",
          "type": "string"
        }
      ],
      "name": "CreatedEthArNFT",
      "type": "event"
    },
    {
      "anonymous": false,
      "inputs": [
        {
          "indexed": true,
          "internalType": "address",
          "name": "previousOwner",
          "type": "address"
        },
        {
          "indexed": true,
          "internalType": "address",
          "name": "newOwner",
          "type": "address"
        }
      ],
      "name": "OwnershipTransferred",
      "type": "event"
    },
    {
      "anonymous": false,
      "inputs": [
        {
          "indexed": true,
          "internalType": "address",
          "name": "from",
          "type": "address"
        },
        {
          "indexed": true,
          "internalType": "address",
          "name": "to",
          "type": "address"
        },
        {
          "indexed": true,
          "internalType": "uint256",
          "name": "tokenId",
          "type": "uint256"
        }
      ],
      "name": "Transfer",
      "type": "event"
    },
    {
      "inputs": [],
      "name": "MAX_SUPPLY",
      "outputs": [
        {
          "internalType": "uint256",
          "name": "",
          "type": "uint256"
        }
      ],
      "stateMutability": "view",
      "type": "function"
    },
    {
      "inputs": [],
      "name": "PRICE",
      "outputs": [
        {
          "internalType": "uint256",
          "name": "",
          "type": "uint256"
        }
      ],
      "stateMutability": "view",
      "type": "function"
    },
    {
      "inputs": [
        {
          "internalType": "address",
          "name": "to",
          "type": "address"
        },
        {
          "internalType": "uint256",
          "name": "tokenId",
          "type": "uint256"
        }
      ],
      "name": "approve",
      "outputs": [],
      "stateMutability": "nonpayable",
      "type": "function"
    },
    {
      "inputs": [
        {
          "internalType": "address",
          "name": "owner",
          "type": "address"
        }
      ],
      "name": "balanceOf",
      "outputs": [
        {
          "internalType": "uint256",
          "name": "",
          "type": "uint256"
        }
      ],
      "stateMutability": "view",
      "type": "function"
    },
    {
      "inputs": [
        {
          "internalType": "uint256",
          "name": "tokenId",
          "type": "uint256"
        }
      ],
      "name": "getApproved",
      "outputs": [
        {
          "internalType": "address",
          "name": "",
          "type": "address"
        }
      ],
      "stateMutability": "view",
      "type": "function"
    },
    {
      "inputs": [
        {
          "internalType": "address",
          "name": "owner",
          "type": "address"
        },
        {
          "internalType": "address",
          "name": "operator",
          "type": "address"
        }
      ],
      "name": "isApprovedForAll",
      "outputs": [
        {
          "internalType": "bool",
          "name": "",
          "type": "bool"
        }
      ],
      "stateMutability": "view",
      "type": "function"
    },
    {
      "inputs": [
        {
          "internalType": "string",
          "name": "tokenUri",
          "type": "string"
        },
        {
          "internalType": "bytes",
          "name": "signature",
          "type": "bytes"
        }
      ],
      "name": "mint",
      "outputs": [],
      "stateMutability": "payable",
      "type": "function"
    },
    {
      "inputs": [],
      "name": "name",
      "outputs": [
        {
          "internalType": "string",
          "name": "",
          "type": "string"
        }
      ],
      "stateMutability": "view",
      "type": "function"
    },
    {
      "inputs": [],
      "name": "owner",
      "outputs": [
        {
          "internalType": "address",
          "name": "",
          "type": "address"
        }
      ],
      "stateMutability": "view",
      "type": "function"
    },
    {
      "inputs": [
        {
          "internalType": "uint256",
          "name": "tokenId",
          "type": "uint256"
        }
      ],
      "name": "ownerOf",
      "outputs": [
        {
          "internalType": "address",
          "name": "",
          "type": "address"
        }
      ],
      "stateMutability": "view",
      "type": "function"
    },
    {
      "inputs": [],
      "name": "renounceOwnership",
      "outputs": [],
      "stateMutability": "nonpayable",
      "type": "function"
    },
    {
      "inputs": [
        {
          "internalType": "address",
          "name": "from",
          "type": "address"
        },
        {
          "internalType": "address",
          "name": "to",
          "type": "address"
        },
        {
          "internalType": "uint256",
          "name": "tokenId",
          "type": "uint256"
        }
      ],
      "name": "safeTransferFrom",
      "outputs": [],
      "stateMutability": "nonpayable",
      "type": "function"
    },
    {
      "inputs": [
        {
          "internalType": "address",
          "name": "from",
          "type": "address"
        },
        {
          "internalType": "address",
          "name": "to",
          "type": "address"
        },
        {
          "internalType": "uint256",
          "name": "tokenId",
          "type": "uint256"
        },
        {
          "internalType": "bytes",
          "name": "_data",
          "type": "bytes"
        }
      ],
      "name": "safeTransferFrom",
      "outputs": [],
      "stateMutability": "nonpayable",
      "type": "function"
    },
    {
      "inputs": [
        {
          "internalType": "address",
          "name": "operator",
          "type": "address"
        },
        {
          "internalType": "bool",
          "name": "approved",
          "type": "bool"
        }
      ],
      "name": "setApprovalForAll",
      "outputs": [],
      "stateMutability": "nonpayable",
      "type": "function"
    },
    {
      "inputs": [
        {
          "internalType": "bytes4",
          "name": "interfaceId",
          "type": "bytes4"
        }
      ],
      "name": "supportsInterface",
      "outputs": [
        {
          "internalType": "bool",
          "name": "",
          "type": "bool"
        }
      ],
      "stateMutability": "view",
      "type": "function"
    },
    {
      "inputs": [],
      "name": "symbol",
      "outputs": [
        {
          "internalType": "string",
          "name": "",
          "type": "string"
        }
      ],
      "stateMutability": "view",
      "type": "function"
    },
    {
      "inputs": [],
      "name": "tokenCounter",
      "outputs": [
        {
          "internalType": "uint256",
          "name": "",
          "type": "uint256"
        }
      ],
      "stateMutability": "view",
      "type": "function"
    },
    {
      "inputs": [
        {
          "internalType": "uint256",
          "name": "tokenId",
          "type": "uint256"
        }
      ],
      "name": "tokenURI",
      "outputs": [
        {
          "internalType": "string",
          "name": "",
          "type": "string"
        }
      ],
      "stateMutability": "view",
      "type": "function"
    },
    {
      "inputs": [],
      "name": "totalSupply",
      "outputs": [
        {
          "internalType": "uint256",
          "name": "",
          "type": "uint256"
        }
      ],
      "stateMutability": "view",
      "type": "function"
    },
    {
      "inputs": [
        {
          "internalType": "address",
          "name": "from",
          "type": "address"
        },
        {
          "internalType": "address",
          "name": "to",
          "type": "address"
        },
        {
          "internalType": "uint256",
          "name": "tokenId",
          "type": "uint256"
        }
      ],
      "name": "transferFrom",
      "outputs": [],
      "stateMutability": "nonpayable",
      "type": "function"
    },
    {
      "inputs": [
        {
          "internalType": "address",
          "name": "newOwner",
          "type": "address"
        }
      ],
      "name": "transferOwnership",
      "outputs": [],
      "stateMutability": "nonpayable",
      "type": "function"
    }
  ],
  "bytecode": "0x60806040523480156200001157600080fd5b506040518060400160405280600f81526020017f4574682041727765617665204e465400000000000000000000000000000000008152506040518060400160405280600881526020017f45544841524e465400000000000000000000000000000000000000000000000081525081600090805190602001906200009692919062000203565b508060019080519060200190620000af92919062000203565b505050620000d2620000c66200013560201b60201c565b6200013d60201b60201c565b600060088190555073dba800f4da03dba3f604268aec2ad9eb28a055a4600960006101000a81548173ffffffffffffffffffffffffffffffffffffffff021916908373ffffffffffffffffffffffffffffffffffffffff16021790555062000318565b600033905090565b6000600760009054906101000a900473ffffffffffffffffffffffffffffffffffffffff16905081600760006101000a81548173ffffffffffffffffffffffffffffffffffffffff021916908373ffffffffffffffffffffffffffffffffffffffff1602179055508173ffffffffffffffffffffffffffffffffffffffff168173ffffffffffffffffffffffffffffffffffffffff167f8be0079c531659141344cd1fd0a4f28419497f9722a3daafe3b4186f6b6457e060405160405180910390a35050565b8280546200021190620002e2565b90600052602060002090601f01602090048101928262000235576000855562000281565b82601f106200025057805160ff191683800117855562000281565b8280016001018555821562000281579182015b828111156200028057825182559160200191906001019062000263565b5b50905062000290919062000294565b5090565b5b80821115620002af57600081600090555060010162000295565b5090565b7f4e487b7100000000000000000000000000000000000000000000000000000000600052602260045260246000fd5b60006002820490506001821680620002fb57607f821691505b60208210811415620003125762000311620002b3565b5b50919050565b613bc780620003286000396000f3fe60806040526004361061012a5760003560e01c806370a08231116100ab578063a22cb4651161006f578063a22cb465146103d3578063b88d4fde146103fc578063c87b56dd14610425578063d082e38114610462578063e985e9c51461048d578063f2fde38b146104ca5761012a565b806370a08231146102fe578063715018a61461033b5780638d859f3e146103525780638da5cb5b1461037d57806395d89b41146103a85761012a565b806323b872dd116100f257806323b872dd1461022857806332cb6b0c1461025157806342842e0e1461027c5780634737576e146102a55780636352211e146102c15761012a565b806301ffc9a71461012f57806306fdde031461016c578063081812fc14610197578063095ea7b3146101d457806318160ddd146101fd575b600080fd5b34801561013b57600080fd5b50610156600480360381019061015191906123c2565b6104f3565b604051610163919061240a565b60405180910390f35b34801561017857600080fd5b506101816105d5565b60405161018e91906124be565b60405180910390f35b3480156101a357600080fd5b506101be60048036038101906101b99190612516565b610667565b6040516101cb9190612584565b60405180910390f35b3480156101e057600080fd5b506101fb60048036038101906101f691906125cb565b6106ec565b005b34801561020957600080fd5b50610212610804565b60405161021f919061261a565b60405180910390f35b34801561023457600080fd5b5061024f600480360381019061024a9190612635565b61081a565b005b34801561025d57600080fd5b5061026661087a565b604051610273919061261a565b60405180910390f35b34801561028857600080fd5b506102a3600480360381019061029e9190612635565b61087f565b005b6102bf60048036038101906102ba919061285e565b61089f565b005b3480156102cd57600080fd5b506102e860048036038101906102e39190612516565b610ab3565b6040516102f59190612584565b60405180910390f35b34801561030a57600080fd5b50610325600480360381019061032091906128d6565b610b65565b604051610332919061261a565b60405180910390f35b34801561034757600080fd5b50610350610c1d565b005b34801561035e57600080fd5b50610367610ca5565b604051610374919061261a565b60405180910390f35b34801561038957600080fd5b50610392610caa565b60405161039f9190612584565b60405180910390f35b3480156103b457600080fd5b506103bd610cd4565b6040516103ca91906124be565b60405180910390f35b3480156103df57600080fd5b506103fa60048036038101906103f5919061292f565b610d66565b005b34801561040857600080fd5b50610423600480360381019061041e919061296f565b610ee7565b005b34801561043157600080fd5b5061044c60048036038101906104479190612516565b610f49565b60405161045991906124be565b60405180910390f35b34801561046e57600080fd5b5061047761109b565b604051610484919061261a565b60405180910390f35b34801561049957600080fd5b506104b460048036038101906104af91906129f2565b6110a1565b6040516104c1919061240a565b60405180910390f35b3480156104d657600080fd5b506104f160048036038101906104ec91906128d6565b611135565b005b60007f80ac58cd000000000000000000000000000000000000000000000000000000007bffffffffffffffffffffffffffffffffffffffffffffffffffffffff1916827bffffffffffffffffffffffffffffffffffffffffffffffffffffffff191614806105be57507f5b5e139f000000000000000000000000000000000000000000000000000000007bffffffffffffffffffffffffffffffffffffffffffffffffffffffff1916827bffffffffffffffffffffffffffffffffffffffffffffffffffffffff1916145b806105ce57506105cd8261122d565b5b9050919050565b6060600080546105e490612a61565b80601f016020809104026020016040519081016040528092919081815260200182805461061090612a61565b801561065d5780601f106106325761010080835404028352916020019161065d565b820191906000526020600020905b81548152906001019060200180831161064057829003601f168201915b5050505050905090565b600061067282611297565b6106b1576040517f08c379a00000000000000000000000000000000000000000000000000000000081526004016106a890612b05565b60405180910390fd5b6004600083815260200190815260200160002060009054906101000a900473ffffffffffffffffffffffffffffffffffffffff169050919050565b60006106f782610ab3565b90508073ffffffffffffffffffffffffffffffffffffffff168373ffffffffffffffffffffffffffffffffffffffff161415610768576040517f08c379a000000000000000000000000000000000000000000000000000000000815260040161075f90612b97565b60405180910390fd5b8073ffffffffffffffffffffffffffffffffffffffff16610787611303565b73ffffffffffffffffffffffffffffffffffffffff1614806107b657506107b5816107b0611303565b6110a1565b5b6107f5576040517f08c379a00000000000000000000000000000000000000000000000000000000081526004016107ec90612c29565b60405180910390fd5b6107ff838361130b565b505050565b600060016008546108159190612c78565b905090565b61082b610825611303565b826113c4565b61086a576040517f08c379a000000000000000000000000000000000000000000000000000000000815260040161086190612d40565b60405180910390fd5b6108758383836114a2565b505050565b606481565b61089a83838360405180602001604052806000815250610ee7565b505050565b60646108a9610804565b106108b357600080fd5b3460008110156108c257600080fd5b82600a816040516108d39190612d9c565b908152602001604051809103902060009054906101000a900460ff161561092f576040517f08c379a000000000000000000000000000000000000000000000000000000000815260040161092690612dff565b60405180910390fd5b83836000610962836040516020016109479190612d9c565b604051602081830303815290604052805190602001206116fe565b90506000610979838361172e90919063ffffffff16565b9050600960009054906101000a900473ffffffffffffffffffffffffffffffffffffffff1673ffffffffffffffffffffffffffffffffffffffff168173ffffffffffffffffffffffffffffffffffffffff1614610a0b576040517f08c379a0000000000000000000000000000000000000000000000000000000008152600401610a0290612e91565b60405180910390fd5b610a1733600854611755565b610a2360085489611773565b6001600854610a329190612c78565b6008819055506001600a89604051610a4a9190612d9c565b908152602001604051809103902060006101000a81548160ff0219169083151502179055506008547f6f207694e2301898adf6bb9482dca49b950a2405f2bf8c57c07822e2c195705289604051610aa191906124be565b60405180910390a25050505050505050565b6000806002600084815260200190815260200160002060009054906101000a900473ffffffffffffffffffffffffffffffffffffffff169050600073ffffffffffffffffffffffffffffffffffffffff168173ffffffffffffffffffffffffffffffffffffffff161415610b5c576040517f08c379a0000000000000000000000000000000000000000000000000000000008152600401610b5390612f23565b60405180910390fd5b80915050919050565b60008073ffffffffffffffffffffffffffffffffffffffff168273ffffffffffffffffffffffffffffffffffffffff161415610bd6576040517f08c379a0000000000000000000000000000000000000000000000000000000008152600401610bcd90612fb5565b60405180910390fd5b600360008373ffffffffffffffffffffffffffffffffffffffff1673ffffffffffffffffffffffffffffffffffffffff168152602001908152602001600020549050919050565b610c25611303565b73ffffffffffffffffffffffffffffffffffffffff16610c43610caa565b73ffffffffffffffffffffffffffffffffffffffff1614610c99576040517f08c379a0000000000000000000000000000000000000000000000000000000008152600401610c9090613021565b60405180910390fd5b610ca360006117e7565b565b600081565b6000600760009054906101000a900473ffffffffffffffffffffffffffffffffffffffff16905090565b606060018054610ce390612a61565b80601f0160208091040260200160405190810160405280929190818152602001828054610d0f90612a61565b8015610d5c5780601f10610d3157610100808354040283529160200191610d5c565b820191906000526020600020905b815481529060010190602001808311610d3f57829003601f168201915b5050505050905090565b610d6e611303565b73ffffffffffffffffffffffffffffffffffffffff168273ffffffffffffffffffffffffffffffffffffffff161415610ddc576040517f08c379a0000000000000000000000000000000000000000000000000000000008152600401610dd39061308d565b60405180910390fd5b8060056000610de9611303565b73ffffffffffffffffffffffffffffffffffffffff1673ffffffffffffffffffffffffffffffffffffffff16815260200190815260200160002060008473ffffffffffffffffffffffffffffffffffffffff1673ffffffffffffffffffffffffffffffffffffffff16815260200190815260200160002060006101000a81548160ff0219169083151502179055508173ffffffffffffffffffffffffffffffffffffffff16610e96611303565b73ffffffffffffffffffffffffffffffffffffffff167f17307eab39ab6107e8899845ad3d59bd9653f200f220920489ca2b5937696c3183604051610edb919061240a565b60405180910390a35050565b610ef8610ef2611303565b836113c4565b610f37576040517f08c379a0000000000000000000000000000000000000000000000000000000008152600401610f2e90612d40565b60405180910390fd5b610f43848484846118ad565b50505050565b6060610f5482611297565b610f93576040517f08c379a0000000000000000000000000000000000000000000000000000000008152600401610f8a9061311f565b60405180910390fd5b6000600660008481526020019081526020016000208054610fb390612a61565b80601f0160208091040260200160405190810160405280929190818152602001828054610fdf90612a61565b801561102c5780601f106110015761010080835404028352916020019161102c565b820191906000526020600020905b81548152906001019060200180831161100f57829003601f168201915b50505050509050600061103d611909565b9050600081511415611053578192505050611096565b60008251111561108857808260405160200161107092919061313f565b60405160208183030381529060405292505050611096565b61109184611920565b925050505b919050565b60085481565b6000600560008473ffffffffffffffffffffffffffffffffffffffff1673ffffffffffffffffffffffffffffffffffffffff16815260200190815260200160002060008373ffffffffffffffffffffffffffffffffffffffff1673ffffffffffffffffffffffffffffffffffffffff16815260200190815260200160002060009054906101000a900460ff16905092915050565b61113d611303565b73ffffffffffffffffffffffffffffffffffffffff1661115b610caa565b73ffffffffffffffffffffffffffffffffffffffff16146111b1576040517f08c379a00000000000000000000000000000000000000000000000000000000081526004016111a890613021565b60405180910390fd5b600073ffffffffffffffffffffffffffffffffffffffff168173ffffffffffffffffffffffffffffffffffffffff161415611221576040517f08c379a0000000000000000000000000000000000000000000000000000000008152600401611218906131d5565b60405180910390fd5b61122a816117e7565b50565b60007f01ffc9a7000000000000000000000000000000000000000000000000000000007bffffffffffffffffffffffffffffffffffffffffffffffffffffffff1916827bffffffffffffffffffffffffffffffffffffffffffffffffffffffff1916149050919050565b60008073ffffffffffffffffffffffffffffffffffffffff166002600084815260200190815260200160002060009054906101000a900473ffffffffffffffffffffffffffffffffffffffff1673ffffffffffffffffffffffffffffffffffffffff1614159050919050565b600033905090565b816004600083815260200190815260200160002060006101000a81548173ffffffffffffffffffffffffffffffffffffffff021916908373ffffffffffffffffffffffffffffffffffffffff160217905550808273ffffffffffffffffffffffffffffffffffffffff1661137e83610ab3565b73ffffffffffffffffffffffffffffffffffffffff167f8c5be1e5ebec7d5bd14f71427d1e84f3dd0314c0f7b2291e5b200ac8c7c3b92560405160405180910390a45050565b60006113cf82611297565b61140e576040517f08c379a000000000000000000000000000000000000000000000000000000000815260040161140590613267565b60405180910390fd5b600061141983610ab3565b90508073ffffffffffffffffffffffffffffffffffffffff168473ffffffffffffffffffffffffffffffffffffffff16148061148857508373ffffffffffffffffffffffffffffffffffffffff1661147084610667565b73ffffffffffffffffffffffffffffffffffffffff16145b80611499575061149881856110a1565b5b91505092915050565b8273ffffffffffffffffffffffffffffffffffffffff166114c282610ab3565b73ffffffffffffffffffffffffffffffffffffffff1614611518576040517f08c379a000000000000000000000000000000000000000000000000000000000815260040161150f906132f9565b60405180910390fd5b600073ffffffffffffffffffffffffffffffffffffffff168273ffffffffffffffffffffffffffffffffffffffff161415611588576040517f08c379a000000000000000000000000000000000000000000000000000000000815260040161157f9061338b565b60405180910390fd5b6115938383836119c7565b61159e60008261130b565b6001600360008573ffffffffffffffffffffffffffffffffffffffff1673ffffffffffffffffffffffffffffffffffffffff16815260200190815260200160002060008282546115ee91906133ab565b925050819055506001600360008473ffffffffffffffffffffffffffffffffffffffff1673ffffffffffffffffffffffffffffffffffffffff16815260200190815260200160002060008282546116459190612c78565b92505081905550816002600083815260200190815260200160002060006101000a81548173ffffffffffffffffffffffffffffffffffffffff021916908373ffffffffffffffffffffffffffffffffffffffff160217905550808273ffffffffffffffffffffffffffffffffffffffff168473ffffffffffffffffffffffffffffffffffffffff167fddf252ad1be2c89b69c2b068fc378daa952ba7f163c4a11628f55a4df523b3ef60405160405180910390a4505050565b6000816040516020016117119190613456565b604051602081830303815290604052805190602001209050919050565b600080600061173d85856119cc565b9150915061174a81611a4f565b819250505092915050565b61176f828260405180602001604052806000815250611c24565b5050565b61177c82611297565b6117bb576040517f08c379a00000000000000000000000000000000000000000000000000000000081526004016117b2906134ee565b60405180910390fd5b806006600084815260200190815260200160002090805190602001906117e29291906122b3565b505050565b6000600760009054906101000a900473ffffffffffffffffffffffffffffffffffffffff16905081600760006101000a81548173ffffffffffffffffffffffffffffffffffffffff021916908373ffffffffffffffffffffffffffffffffffffffff1602179055508173ffffffffffffffffffffffffffffffffffffffff168173ffffffffffffffffffffffffffffffffffffffff167f8be0079c531659141344cd1fd0a4f28419497f9722a3daafe3b4186f6b6457e060405160405180910390a35050565b6118b88484846114a2565b6118c484848484611c7f565b611903576040517f08c379a00000000000000000000000000000000000000000000000000000000081526004016118fa90613580565b60405180910390fd5b50505050565b606060405180602001604052806000815250905090565b606061192b82611297565b61196a576040517f08c379a000000000000000000000000000000000000000000000000000000000815260040161196190613612565b60405180910390fd5b6000611974611909565b9050600081511161199457604051806020016040528060008152506119bf565b8061199e84611e16565b6040516020016119af92919061313f565b6040516020818303038152906040525b915050919050565b505050565b600080604183511415611a0e5760008060006020860151925060408601519150606086015160001a9050611a0287828585611f77565b94509450505050611a48565b604083511415611a3f576000806020850151915060408501519050611a34868383612084565b935093505050611a48565b60006002915091505b9250929050565b60006004811115611a6357611a62613632565b5b816004811115611a7657611a75613632565b5b1415611a8157611c21565b60016004811115611a9557611a94613632565b5b816004811115611aa857611aa7613632565b5b1415611ae9576040517f08c379a0000000000000000000000000000000000000000000000000000000008152600401611ae0906136ad565b60405180910390fd5b60026004811115611afd57611afc613632565b5b816004811115611b1057611b0f613632565b5b1415611b51576040517f08c379a0000000000000000000000000000000000000000000000000000000008152600401611b4890613719565b60405180910390fd5b60036004811115611b6557611b64613632565b5b816004811115611b7857611b77613632565b5b1415611bb9576040517f08c379a0000000000000000000000000000000000000000000000000000000008152600401611bb0906137ab565b60405180910390fd5b600480811115611bcc57611bcb613632565b5b816004811115611bdf57611bde613632565b5b1415611c20576040517f08c379a0000000000000000000000000000000000000000000000000000000008152600401611c179061383d565b60405180910390fd5b5b50565b611c2e83836120d2565b611c3b6000848484611c7f565b611c7a576040517f08c379a0000000000000000000000000000000000000000000000000000000008152600401611c7190613580565b60405180910390fd5b505050565b6000611ca08473ffffffffffffffffffffffffffffffffffffffff166122a0565b15611e09578373ffffffffffffffffffffffffffffffffffffffff1663150b7a02611cc9611303565b8786866040518563ffffffff1660e01b8152600401611ceb94939291906138b2565b602060405180830381600087803b158015611d0557600080fd5b505af1925050508015611d3657506040513d601f19601f82011682018060405250810190611d339190613913565b60015b611db9573d8060008114611d66576040519150601f19603f3d011682016040523d82523d6000602084013e611d6b565b606091505b50600081511415611db1576040517f08c379a0000000000000000000000000000000000000000000000000000000008152600401611da890613580565b60405180910390fd5b805181602001fd5b63150b7a0260e01b7bffffffffffffffffffffffffffffffffffffffffffffffffffffffff1916817bffffffffffffffffffffffffffffffffffffffffffffffffffffffff191614915050611e0e565b600190505b949350505050565b60606000821415611e5e576040518060400160405280600181526020017f30000000000000000000000000000000000000000000000000000000000000008152509050611f72565b600082905060005b60008214611e90578080611e7990613940565b915050600a82611e8991906139b8565b9150611e66565b60008167ffffffffffffffff811115611eac57611eab612692565b5b6040519080825280601f01601f191660200182016040528015611ede5781602001600182028036833780820191505090505b5090505b60008514611f6b57600182611ef791906133ab565b9150600a85611f0691906139e9565b6030611f129190612c78565b60f81b818381518110611f2857611f27613a1a565b5b60200101907effffffffffffffffffffffffffffffffffffffffffffffffffffffffffffff1916908160001a905350600a85611f6491906139b8565b9450611ee2565b8093505050505b919050565b6000807f7fffffffffffffffffffffffffffffff5d576e7357a4501ddfe92f46681b20a08360001c1115611fb257600060039150915061207b565b601b8560ff1614158015611fca5750601c8560ff1614155b15611fdc57600060049150915061207b565b6000600187878787604051600081526020016040526040516120019493929190613a74565b6020604051602081039080840390855afa158015612023573d6000803e3d6000fd5b505050602060405103519050600073ffffffffffffffffffffffffffffffffffffffff168173ffffffffffffffffffffffffffffffffffffffff1614156120725760006001925092505061207b565b80600092509250505b94509492505050565b6000806000807f7fffffffffffffffffffffffffffffffffffffffffffffffffffffffffffffff85169150601b8560ff1c0190506120c487828885611f77565b935093505050935093915050565b600073ffffffffffffffffffffffffffffffffffffffff168273ffffffffffffffffffffffffffffffffffffffff161415612142576040517f08c379a000000000000000000000000000000000000000000000000000000000815260040161213990613b05565b60405180910390fd5b61214b81611297565b1561218b576040517f08c379a000000000000000000000000000000000000000000000000000000000815260040161218290613b71565b60405180910390fd5b612197600083836119c7565b6001600360008473ffffffffffffffffffffffffffffffffffffffff1673ffffffffffffffffffffffffffffffffffffffff16815260200190815260200160002060008282546121e79190612c78565b92505081905550816002600083815260200190815260200160002060006101000a81548173ffffffffffffffffffffffffffffffffffffffff021916908373ffffffffffffffffffffffffffffffffffffffff160217905550808273ffffffffffffffffffffffffffffffffffffffff16600073ffffffffffffffffffffffffffffffffffffffff167fddf252ad1be2c89b69c2b068fc378daa952ba7f163c4a11628f55a4df523b3ef60405160405180910390a45050565b600080823b905060008111915050919050565b8280546122bf90612a61565b90600052602060002090601f0160209004810192826122e15760008555612328565b82601f106122fa57805160ff1916838001178555612328565b82800160010185558215612328579182015b8281111561232757825182559160200191906001019061230c565b5b5090506123359190612339565b5090565b5b8082111561235257600081600090555060010161233a565b5090565b6000604051905090565b600080fd5b600080fd5b60007fffffffff0000000000000000000000000000000000000000000000000000000082169050919050565b61239f8161236a565b81146123aa57600080fd5b50565b6000813590506123bc81612396565b92915050565b6000602082840312156123d8576123d7612360565b5b60006123e6848285016123ad565b91505092915050565b60008115159050919050565b612404816123ef565b82525050565b600060208201905061241f60008301846123fb565b92915050565b600081519050919050565b600082825260208201905092915050565b60005b8381101561245f578082015181840152602081019050612444565b8381111561246e576000848401525b50505050565b6000601f19601f8301169050919050565b600061249082612425565b61249a8185612430565b93506124aa818560208601612441565b6124b381612474565b840191505092915050565b600060208201905081810360008301526124d88184612485565b905092915050565b6000819050919050565b6124f3816124e0565b81146124fe57600080fd5b50565b600081359050612510816124ea565b92915050565b60006020828403121561252c5761252b612360565b5b600061253a84828501612501565b91505092915050565b600073ffffffffffffffffffffffffffffffffffffffff82169050919050565b600061256e82612543565b9050919050565b61257e81612563565b82525050565b60006020820190506125996000830184612575565b92915050565b6125a881612563565b81146125b357600080fd5b50565b6000813590506125c58161259f565b92915050565b600080604083850312156125e2576125e1612360565b5b60006125f0858286016125b6565b925050602061260185828601612501565b9150509250929050565b612614816124e0565b82525050565b600060208201905061262f600083018461260b565b92915050565b60008060006060848603121561264e5761264d612360565b5b600061265c868287016125b6565b935050602061266d868287016125b6565b925050604061267e86828701612501565b9150509250925092565b600080fd5b600080fd5b7f4e487b7100000000000000000000000000000000000000000000000000000000600052604160045260246000fd5b6126ca82612474565b810181811067ffffffffffffffff821117156126e9576126e8612692565b5b80604052505050565b60006126fc612356565b905061270882826126c1565b919050565b600067ffffffffffffffff82111561272857612727612692565b5b61273182612474565b9050602081019050919050565b82818337600083830152505050565b600061276061275b8461270d565b6126f2565b90508281526020810184848401111561277c5761277b61268d565b5b61278784828561273e565b509392505050565b600082601f8301126127a4576127a3612688565b5b81356127b484826020860161274d565b91505092915050565b600067ffffffffffffffff8211156127d8576127d7612692565b5b6127e182612474565b9050602081019050919050565b60006128016127fc846127bd565b6126f2565b90508281526020810184848401111561281d5761281c61268d565b5b61282884828561273e565b509392505050565b600082601f83011261284557612844612688565b5b81356128558482602086016127ee565b91505092915050565b6000806040838503121561287557612874612360565b5b600083013567ffffffffffffffff81111561289357612892612365565b5b61289f8582860161278f565b925050602083013567ffffffffffffffff8111156128c0576128bf612365565b5b6128cc85828601612830565b9150509250929050565b6000602082840312156128ec576128eb612360565b5b60006128fa848285016125b6565b91505092915050565b61290c816123ef565b811461291757600080fd5b50565b60008135905061292981612903565b92915050565b6000806040838503121561294657612945612360565b5b6000612954858286016125b6565b92505060206129658582860161291a565b9150509250929050565b6000806000806080858703121561298957612988612360565b5b6000612997878288016125b6565b94505060206129a8878288016125b6565b93505060406129b987828801612501565b925050606085013567ffffffffffffffff8111156129da576129d9612365565b5b6129e687828801612830565b91505092959194509250565b60008060408385031215612a0957612a08612360565b5b6000612a17858286016125b6565b9250506020612a28858286016125b6565b9150509250929050565b7f4e487b7100000000000000000000000000000000000000000000000000000000600052602260045260246000fd5b60006002820490506001821680612a7957607f821691505b60208210811415612a8d57612a8c612a32565b5b50919050565b7f4552433732313a20617070726f76656420717565727920666f72206e6f6e657860008201527f697374656e7420746f6b656e0000000000000000000000000000000000000000602082015250565b6000612aef602c83612430565b9150612afa82612a93565b604082019050919050565b60006020820190508181036000830152612b1e81612ae2565b9050919050565b7f4552433732313a20617070726f76616c20746f2063757272656e74206f776e6560008201527f7200000000000000000000000000000000000000000000000000000000000000602082015250565b6000612b81602183612430565b9150612b8c82612b25565b604082019050919050565b60006020820190508181036000830152612bb081612b74565b9050919050565b7f4552433732313a20617070726f76652063616c6c6572206973206e6f74206f7760008201527f6e6572206e6f7220617070726f76656420666f7220616c6c0000000000000000602082015250565b6000612c13603883612430565b9150612c1e82612bb7565b604082019050919050565b60006020820190508181036000830152612c4281612c06565b9050919050565b7f4e487b7100000000000000000000000000000000000000000000000000000000600052601160045260246000fd5b6000612c83826124e0565b9150612c8e836124e0565b9250827fffffffffffffffffffffffffffffffffffffffffffffffffffffffffffffffff03821115612cc357612cc2612c49565b5b828201905092915050565b7f4552433732313a207472616e736665722063616c6c6572206973206e6f74206f60008201527f776e6572206e6f7220617070726f766564000000000000000000000000000000602082015250565b6000612d2a603183612430565b9150612d3582612cce565b604082019050919050565b60006020820190508181036000830152612d5981612d1d565b9050919050565b600081905092915050565b6000612d7682612425565b612d808185612d60565b9350612d90818560208601612441565b80840191505092915050565b6000612da88284612d6b565b915081905092915050565b7f546f6b656e205552492065786973747300000000000000000000000000000000600082015250565b6000612de9601083612430565b9150612df482612db3565b602082019050919050565b60006020820190508181036000830152612e1881612ddc565b9050919050565b7f4d657373616765206e6f74207369676e65642062792074727565207369676e6560008201527f722e000000000000000000000000000000000000000000000000000000000000602082015250565b6000612e7b602283612430565b9150612e8682612e1f565b604082019050919050565b60006020820190508181036000830152612eaa81612e6e565b9050919050565b7f4552433732313a206f776e657220717565727920666f72206e6f6e657869737460008201527f656e7420746f6b656e0000000000000000000000000000000000000000000000602082015250565b6000612f0d602983612430565b9150612f1882612eb1565b604082019050919050565b60006020820190508181036000830152612f3c81612f00565b9050919050565b7f4552433732313a2062616c616e636520717565727920666f7220746865207a6560008201527f726f206164647265737300000000000000000000000000000000000000000000602082015250565b6000612f9f602a83612430565b9150612faa82612f43565b604082019050919050565b60006020820190508181036000830152612fce81612f92565b9050919050565b7f4f776e61626c653a2063616c6c6572206973206e6f7420746865206f776e6572600082015250565b600061300b602083612430565b915061301682612fd5565b602082019050919050565b6000602082019050818103600083015261303a81612ffe565b9050919050565b7f4552433732313a20617070726f766520746f2063616c6c657200000000000000600082015250565b6000613077601983612430565b915061308282613041565b602082019050919050565b600060208201905081810360008301526130a68161306a565b9050919050565b7f45524337323155524953746f726167653a2055524920717565727920666f722060008201527f6e6f6e6578697374656e7420746f6b656e000000000000000000000000000000602082015250565b6000613109603183612430565b9150613114826130ad565b604082019050919050565b60006020820190508181036000830152613138816130fc565b9050919050565b600061314b8285612d6b565b91506131578284612d6b565b91508190509392505050565b7f4f776e61626c653a206e6577206f776e657220697320746865207a65726f206160008201527f6464726573730000000000000000000000000000000000000000000000000000602082015250565b60006131bf602683612430565b91506131ca82613163565b604082019050919050565b600060208201905081810360008301526131ee816131b2565b9050919050565b7f4552433732313a206f70657261746f7220717565727920666f72206e6f6e657860008201527f697374656e7420746f6b656e0000000000000000000000000000000000000000602082015250565b6000613251602c83612430565b915061325c826131f5565b604082019050919050565b6000602082019050818103600083015261328081613244565b9050919050565b7f4552433732313a207472616e73666572206f6620746f6b656e2074686174206960008201527f73206e6f74206f776e0000000000000000000000000000000000000000000000602082015250565b60006132e3602983612430565b91506132ee82613287565b604082019050919050565b60006020820190508181036000830152613312816132d6565b9050919050565b7f4552433732313a207472616e7366657220746f20746865207a65726f2061646460008201527f7265737300000000000000000000000000000000000000000000000000000000602082015250565b6000613375602483612430565b915061338082613319565b604082019050919050565b600060208201905081810360008301526133a481613368565b9050919050565b60006133b6826124e0565b91506133c1836124e0565b9250828210156133d4576133d3612c49565b5b828203905092915050565b7f19457468657265756d205369676e6564204d6573736167653a0a333200000000600082015250565b6000613415601c83612d60565b9150613420826133df565b601c82019050919050565b6000819050919050565b6000819050919050565b61345061344b8261342b565b613435565b82525050565b600061346182613408565b915061346d828461343f565b60208201915081905092915050565b7f45524337323155524953746f726167653a2055524920736574206f66206e6f6e60008201527f6578697374656e7420746f6b656e000000000000000000000000000000000000602082015250565b60006134d8602e83612430565b91506134e38261347c565b604082019050919050565b60006020820190508181036000830152613507816134cb565b9050919050565b7f4552433732313a207472616e7366657220746f206e6f6e20455243373231526560008201527f63656976657220696d706c656d656e7465720000000000000000000000000000602082015250565b600061356a603283612430565b91506135758261350e565b604082019050919050565b600060208201905081810360008301526135998161355d565b9050919050565b7f4552433732314d657461646174613a2055524920717565727920666f72206e6f60008201527f6e6578697374656e7420746f6b656e0000000000000000000000000000000000602082015250565b60006135fc602f83612430565b9150613607826135a0565b604082019050919050565b6000602082019050818103600083015261362b816135ef565b9050919050565b7f4e487b7100000000000000000000000000000000000000000000000000000000600052602160045260246000fd5b7f45434453413a20696e76616c6964207369676e61747572650000000000000000600082015250565b6000613697601883612430565b91506136a282613661565b602082019050919050565b600060208201905081810360008301526136c68161368a565b9050919050565b7f45434453413a20696e76616c6964207369676e6174757265206c656e67746800600082015250565b6000613703601f83612430565b915061370e826136cd565b602082019050919050565b60006020820190508181036000830152613732816136f6565b9050919050565b7f45434453413a20696e76616c6964207369676e6174757265202773272076616c60008201527f7565000000000000000000000000000000000000000000000000000000000000602082015250565b6000613795602283612430565b91506137a082613739565b604082019050919050565b600060208201905081810360008301526137c481613788565b9050919050565b7f45434453413a20696e76616c6964207369676e6174757265202776272076616c60008201527f7565000000000000000000000000000000000000000000000000000000000000602082015250565b6000613827602283612430565b9150613832826137cb565b604082019050919050565b600060208201905081810360008301526138568161381a565b9050919050565b600081519050919050565b600082825260208201905092915050565b60006138848261385d565b61388e8185613868565b935061389e818560208601612441565b6138a781612474565b840191505092915050565b60006080820190506138c76000830187612575565b6138d46020830186612575565b6138e1604083018561260b565b81810360608301526138f38184613879565b905095945050505050565b60008151905061390d81612396565b92915050565b60006020828403121561392957613928612360565b5b6000613937848285016138fe565b91505092915050565b600061394b826124e0565b91507fffffffffffffffffffffffffffffffffffffffffffffffffffffffffffffffff82141561397e5761397d612c49565b5b600182019050919050565b7f4e487b7100000000000000000000000000000000000000000000000000000000600052601260045260246000fd5b60006139c3826124e0565b91506139ce836124e0565b9250826139de576139dd613989565b5b828204905092915050565b60006139f4826124e0565b91506139ff836124e0565b925082613a0f57613a0e613989565b5b828206905092915050565b7f4e487b7100000000000000000000000000000000000000000000000000000000600052603260045260246000fd5b613a528161342b565b82525050565b600060ff82169050919050565b613a6e81613a58565b82525050565b6000608082019050613a896000830187613a49565b613a966020830186613a65565b613aa36040830185613a49565b613ab06060830184613a49565b95945050505050565b7f4552433732313a206d696e7420746f20746865207a65726f2061646472657373600082015250565b6000613aef602083612430565b9150613afa82613ab9565b602082019050919050565b60006020820190508181036000830152613b1e81613ae2565b9050919050565b7f4552433732313a20746f6b656e20616c7265616479206d696e74656400000000600082015250565b6000613b5b601c83612430565b9150613b6682613b25565b602082019050919050565b60006020820190508181036000830152613b8a81613b4e565b905091905056fea264697066735822122024431593c0cb71fdb6e850c97494fa8f48d3ec72095e9e523770049e1b3d2c7264736f6c63430008090033",
  "linkReferences": {},
  "deployedLinkReferences": {}
}