{
  "_format": "hh-sol-artifact-1",
  "contractName": "EthArNFT",
  "sourceName": "contracts/EthArNFT.sol",
  "abi": [
    {
      "inputs": [],
      "stateMutability": "nonpayable",
      "type": "constructor"
    },
    {
      "anonymous": false,
      "inputs": [
        {
          "indexed": true,
          "internalType": "address",
          "name": "owner",
          "type": "address"
        },
        {
          "indexed": true,
          "internalType": "address",
          "name": "approved",
          "type": "address"
        },
        {
          "indexed": true,
          "internalType": "uint256",
          "name": "tokenId",
          "type": "uint256"
        }
      ],
      "name": "Approval",
      "type": "event"
    },
    {
      "anonymous": false,
      "inputs": [
        {
          "indexed": true,
          "internalType": "address",
          "name": "owner",
          "type": "address"
        },
        {
          "indexed": true,
          "internalType": "address",
          "name": "operator",
          "type": "address"
        },
        {
          "indexed": false,
          "internalType": "bool",
          "name": "approved",
          "type": "bool"
        }
      ],
      "name": "ApprovalForAll",
      "type": "event"
    },
    {
      "anonymous": false,
      "inputs": [
        {
          "indexed": true,
          "internalType": "uint256",
          "name": "tokenId",
          "type": "uint256"
        },
        {
          "indexed": false,
          "internalType": "string",
          "name": "tokenURI",
          "type": "string"
        }
      ],
      "name": "CreatedEthArNFT",
      "type": "event"
    },
    {
      "anonymous": false,
      "inputs": [
        {
          "indexed": true,
          "internalType": "address",
          "name": "previousOwner",
          "type": "address"
        },
        {
          "indexed": true,
          "internalType": "address",
          "name": "newOwner",
          "type": "address"
        }
      ],
      "name": "OwnershipTransferred",
      "type": "event"
    },
    {
      "anonymous": false,
      "inputs": [
        {
          "indexed": true,
          "internalType": "address",
          "name": "from",
          "type": "address"
        },
        {
          "indexed": true,
          "internalType": "address",
          "name": "to",
          "type": "address"
        },
        {
          "indexed": true,
          "internalType": "uint256",
          "name": "tokenId",
          "type": "uint256"
        }
      ],
      "name": "Transfer",
      "type": "event"
    },
    {
      "inputs": [],
      "name": "MAX_SUPPLY",
      "outputs": [
        {
          "internalType": "uint256",
          "name": "",
          "type": "uint256"
        }
      ],
      "stateMutability": "view",
      "type": "function"
    },
    {
      "inputs": [],
      "name": "PRICE",
      "outputs": [
        {
          "internalType": "uint256",
          "name": "",
          "type": "uint256"
        }
      ],
      "stateMutability": "view",
      "type": "function"
    },
    {
      "inputs": [
        {
          "internalType": "address",
          "name": "to",
          "type": "address"
        },
        {
          "internalType": "uint256",
          "name": "tokenId",
          "type": "uint256"
        }
      ],
      "name": "approve",
      "outputs": [],
      "stateMutability": "nonpayable",
      "type": "function"
    },
    {
      "inputs": [
        {
          "internalType": "address",
          "name": "owner",
          "type": "address"
        }
      ],
      "name": "balanceOf",
      "outputs": [
        {
          "internalType": "uint256",
          "name": "",
          "type": "uint256"
        }
      ],
      "stateMutability": "view",
      "type": "function"
    },
    {
      "inputs": [
        {
          "internalType": "uint256",
          "name": "tokenId",
          "type": "uint256"
        }
      ],
      "name": "getApproved",
      "outputs": [
        {
          "internalType": "address",
          "name": "",
          "type": "address"
        }
      ],
      "stateMutability": "view",
      "type": "function"
    },
    {
      "inputs": [
        {
          "internalType": "address",
          "name": "owner",
          "type": "address"
        },
        {
          "internalType": "address",
          "name": "operator",
          "type": "address"
        }
      ],
      "name": "isApprovedForAll",
      "outputs": [
        {
          "internalType": "bool",
          "name": "",
          "type": "bool"
        }
      ],
      "stateMutability": "view",
      "type": "function"
    },
    {
      "inputs": [
        {
          "internalType": "string",
          "name": "tokenUri",
          "type": "string"
        },
        {
          "internalType": "bytes",
          "name": "signature",
          "type": "bytes"
        }
      ],
      "name": "mint",
      "outputs": [],
      "stateMutability": "payable",
      "type": "function"
    },
    {
      "inputs": [],
      "name": "name",
      "outputs": [
        {
          "internalType": "string",
          "name": "",
          "type": "string"
        }
      ],
      "stateMutability": "view",
      "type": "function"
    },
    {
      "inputs": [],
      "name": "owner",
      "outputs": [
        {
          "internalType": "address",
          "name": "",
          "type": "address"
        }
      ],
      "stateMutability": "view",
      "type": "function"
    },
    {
      "inputs": [
        {
          "internalType": "uint256",
          "name": "tokenId",
          "type": "uint256"
        }
      ],
      "name": "ownerOf",
      "outputs": [
        {
          "internalType": "address",
          "name": "",
          "type": "address"
        }
      ],
      "stateMutability": "view",
      "type": "function"
    },
    {
      "inputs": [],
      "name": "renounceOwnership",
      "outputs": [],
      "stateMutability": "nonpayable",
      "type": "function"
    },
    {
      "inputs": [
        {
          "internalType": "address",
          "name": "from",
          "type": "address"
        },
        {
          "internalType": "address",
          "name": "to",
          "type": "address"
        },
        {
          "internalType": "uint256",
          "name": "tokenId",
          "type": "uint256"
        }
      ],
      "name": "safeTransferFrom",
      "outputs": [],
      "stateMutability": "nonpayable",
      "type": "function"
    },
    {
      "inputs": [
        {
          "internalType": "address",
          "name": "from",
          "type": "address"
        },
        {
          "internalType": "address",
          "name": "to",
          "type": "address"
        },
        {
          "internalType": "uint256",
          "name": "tokenId",
          "type": "uint256"
        },
        {
          "internalType": "bytes",
          "name": "_data",
          "type": "bytes"
        }
      ],
      "name": "safeTransferFrom",
      "outputs": [],
      "stateMutability": "nonpayable",
      "type": "function"
    },
    {
      "inputs": [
        {
          "internalType": "address",
          "name": "operator",
          "type": "address"
        },
        {
          "internalType": "bool",
          "name": "approved",
          "type": "bool"
        }
      ],
      "name": "setApprovalForAll",
      "outputs": [],
      "stateMutability": "nonpayable",
      "type": "function"
    },
    {
      "inputs": [
        {
          "internalType": "bytes4",
          "name": "interfaceId",
          "type": "bytes4"
        }
      ],
      "name": "supportsInterface",
      "outputs": [
        {
          "internalType": "bool",
          "name": "",
          "type": "bool"
        }
      ],
      "stateMutability": "view",
      "type": "function"
    },
    {
      "inputs": [],
      "name": "symbol",
      "outputs": [
        {
          "internalType": "string",
          "name": "",
          "type": "string"
        }
      ],
      "stateMutability": "view",
      "type": "function"
    },
    {
      "inputs": [],
      "name": "tokenCounter",
      "outputs": [
        {
          "internalType": "uint256",
          "name": "",
          "type": "uint256"
        }
      ],
      "stateMutability": "view",
      "type": "function"
    },
    {
      "inputs": [
        {
          "internalType": "uint256",
          "name": "tokenId",
          "type": "uint256"
        }
      ],
      "name": "tokenURI",
      "outputs": [
        {
          "internalType": "string",
          "name": "",
          "type": "string"
        }
      ],
      "stateMutability": "view",
      "type": "function"
    },
    {
      "inputs": [],
      "name": "totalSupply",
      "outputs": [
        {
          "internalType": "uint256",
          "name": "",
          "type": "uint256"
        }
      ],
      "stateMutability": "view",
      "type": "function"
    },
    {
      "inputs": [
        {
          "internalType": "address",
          "name": "from",
          "type": "address"
        },
        {
          "internalType": "address",
          "name": "to",
          "type": "address"
        },
        {
          "internalType": "uint256",
          "name": "tokenId",
          "type": "uint256"
        }
      ],
      "name": "transferFrom",
      "outputs": [],
      "stateMutability": "nonpayable",
      "type": "function"
    },
    {
      "inputs": [
        {
          "internalType": "address",
          "name": "newOwner",
          "type": "address"
        }
      ],
      "name": "transferOwnership",
      "outputs": [],
      "stateMutability": "nonpayable",
      "type": "function"
    }
  ],
  "bytecode": "0x60806040523480156200001157600080fd5b506040518060400160405280600f81526020017f4574682041727765617665204e465400000000000000000000000000000000008152506040518060400160405280600881526020017f45544841524e465400000000000000000000000000000000000000000000000081525081600090805190602001906200009692919062000203565b508060019080519060200190620000af92919062000203565b505050620000d2620000c66200013560201b60201c565b6200013d60201b60201c565b600060088190555073dba800f4da03dba3f604268aec2ad9eb28a055a4600960006101000a81548173ffffffffffffffffffffffffffffffffffffffff021916908373ffffffffffffffffffffffffffffffffffffffff16021790555062000318565b600033905090565b6000600760009054906101000a900473ffffffffffffffffffffffffffffffffffffffff16905081600760006101000a81548173ffffffffffffffffffffffffffffffffffffffff021916908373ffffffffffffffffffffffffffffffffffffffff1602179055508173ffffffffffffffffffffffffffffffffffffffff168173ffffffffffffffffffffffffffffffffffffffff167f8be0079c531659141344cd1fd0a4f28419497f9722a3daafe3b4186f6b6457e060405160405180910390a35050565b8280546200021190620002e2565b90600052602060002090601f01602090048101928262000235576000855562000281565b82601f106200025057805160ff191683800117855562000281565b8280016001018555821562000281579182015b828111156200028057825182559160200191906001019062000263565b5b50905062000290919062000294565b5090565b5b80821115620002af57600081600090555060010162000295565b5090565b7f4e487b7100000000000000000000000000000000000000000000000000000000600052602260045260246000fd5b60006002820490506001821680620002fb57607f821691505b60208210811415620003125762000311620002b3565b5b50919050565b613c8f80620003286000396000f3fe60806040526004361061012a5760003560e01c806370a08231116100ab578063a22cb4651161006f578063a22cb465146103d3578063b88d4fde146103fc578063c87b56dd14610425578063d082e38114610462578063e985e9c51461048d578063f2fde38b146104ca5761012a565b806370a08231146102fe578063715018a61461033b5780638d859f3e146103525780638da5cb5b1461037d57806395d89b41146103a85761012a565b806323b872dd116100f257806323b872dd1461022857806332cb6b0c1461025157806342842e0e1461027c5780634737576e146102a55780636352211e146102c15761012a565b806301ffc9a71461012f57806306fdde031461016c578063081812fc14610197578063095ea7b3146101d457806318160ddd146101fd575b600080fd5b34801561013b57600080fd5b50610156600480360381019061015191906123f8565b6104f3565b6040516101639190612440565b60405180910390f35b34801561017857600080fd5b506101816105d5565b60405161018e91906124f4565b60405180910390f35b3480156101a357600080fd5b506101be60048036038101906101b9919061254c565b610667565b6040516101cb91906125ba565b60405180910390f35b3480156101e057600080fd5b506101fb60048036038101906101f69190612601565b6106ec565b005b34801561020957600080fd5b50610212610804565b60405161021f9190612650565b60405180910390f35b34801561023457600080fd5b5061024f600480360381019061024a919061266b565b61080e565b005b34801561025d57600080fd5b5061026661086e565b6040516102739190612650565b60405180910390f35b34801561028857600080fd5b506102a3600480360381019061029e919061266b565b610873565b005b6102bf60048036038101906102ba9190612894565b610893565b005b3480156102cd57600080fd5b506102e860048036038101906102e3919061254c565b610ae3565b6040516102f591906125ba565b60405180910390f35b34801561030a57600080fd5b506103256004803603810190610320919061290c565b610b95565b6040516103329190612650565b60405180910390f35b34801561034757600080fd5b50610350610c4d565b005b34801561035e57600080fd5b50610367610cd5565b6040516103749190612650565b60405180910390f35b34801561038957600080fd5b50610392610ce0565b60405161039f91906125ba565b60405180910390f35b3480156103b457600080fd5b506103bd610d0a565b6040516103ca91906124f4565b60405180910390f35b3480156103df57600080fd5b506103fa60048036038101906103f59190612965565b610d9c565b005b34801561040857600080fd5b50610423600480360381019061041e91906129a5565b610f1d565b005b34801561043157600080fd5b5061044c6004803603810190610447919061254c565b610f7f565b60405161045991906124f4565b60405180910390f35b34801561046e57600080fd5b506104776110d1565b6040516104849190612650565b60405180910390f35b34801561049957600080fd5b506104b460048036038101906104af9190612a28565b6110d7565b6040516104c19190612440565b60405180910390f35b3480156104d657600080fd5b506104f160048036038101906104ec919061290c565b61116b565b005b60007f80ac58cd000000000000000000000000000000000000000000000000000000007bffffffffffffffffffffffffffffffffffffffffffffffffffffffff1916827bffffffffffffffffffffffffffffffffffffffffffffffffffffffff191614806105be57507f5b5e139f000000000000000000000000000000000000000000000000000000007bffffffffffffffffffffffffffffffffffffffffffffffffffffffff1916827bffffffffffffffffffffffffffffffffffffffffffffffffffffffff1916145b806105ce57506105cd82611263565b5b9050919050565b6060600080546105e490612a97565b80601f016020809104026020016040519081016040528092919081815260200182805461061090612a97565b801561065d5780601f106106325761010080835404028352916020019161065d565b820191906000526020600020905b81548152906001019060200180831161064057829003601f168201915b5050505050905090565b6000610672826112cd565b6106b1576040517f08c379a00000000000000000000000000000000000000000000000000000000081526004016106a890612b3b565b60405180910390fd5b6004600083815260200190815260200160002060009054906101000a900473ffffffffffffffffffffffffffffffffffffffff169050919050565b60006106f782610ae3565b90508073ffffffffffffffffffffffffffffffffffffffff168373ffffffffffffffffffffffffffffffffffffffff161415610768576040517f08c379a000000000000000000000000000000000000000000000000000000000815260040161075f90612bcd565b60405180910390fd5b8073ffffffffffffffffffffffffffffffffffffffff16610787611339565b73ffffffffffffffffffffffffffffffffffffffff1614806107b657506107b5816107b0611339565b6110d7565b5b6107f5576040517f08c379a00000000000000000000000000000000000000000000000000000000081526004016107ec90612c5f565b60405180910390fd5b6107ff8383611341565b505050565b6000600854905090565b61081f610819611339565b826113fa565b61085e576040517f08c379a000000000000000000000000000000000000000000000000000000000815260040161085590612cf1565b60405180910390fd5b6108698383836114d8565b505050565b606481565b61088e83838360405180602001604052806000815250610f1d565b505050565b606461089d610804565b106108dd576040517f08c379a00000000000000000000000000000000000000000000000000000000081526004016108d490612d83565b60405180910390fd5b3466038d7ea4c680008110156108f257600080fd5b82600a816040516109039190612ddf565b908152602001604051809103902060009054906101000a900460ff161561095f576040517f08c379a000000000000000000000000000000000000000000000000000000000815260040161095690612e42565b60405180910390fd5b83836000610992836040516020016109779190612ddf565b60405160208183030381529060405280519060200120611734565b905060006109a9838361176490919063ffffffff16565b9050600960009054906101000a900473ffffffffffffffffffffffffffffffffffffffff1673ffffffffffffffffffffffffffffffffffffffff168173ffffffffffffffffffffffffffffffffffffffff1614610a3b576040517f08c379a0000000000000000000000000000000000000000000000000000000008152600401610a3290612ed4565b60405180910390fd5b610a473360085461178b565b610a53600854896117a9565b6001600854610a629190612f23565b6008819055506001600a89604051610a7a9190612ddf565b908152602001604051809103902060006101000a81548160ff0219169083151502179055506008547f6f207694e2301898adf6bb9482dca49b950a2405f2bf8c57c07822e2c195705289604051610ad191906124f4565b60405180910390a25050505050505050565b6000806002600084815260200190815260200160002060009054906101000a900473ffffffffffffffffffffffffffffffffffffffff169050600073ffffffffffffffffffffffffffffffffffffffff168173ffffffffffffffffffffffffffffffffffffffff161415610b8c576040517f08c379a0000000000000000000000000000000000000000000000000000000008152600401610b8390612feb565b60405180910390fd5b80915050919050565b60008073ffffffffffffffffffffffffffffffffffffffff168273ffffffffffffffffffffffffffffffffffffffff161415610c06576040517f08c379a0000000000000000000000000000000000000000000000000000000008152600401610bfd9061307d565b60405180910390fd5b600360008373ffffffffffffffffffffffffffffffffffffffff1673ffffffffffffffffffffffffffffffffffffffff168152602001908152602001600020549050919050565b610c55611339565b73ffffffffffffffffffffffffffffffffffffffff16610c73610ce0565b73ffffffffffffffffffffffffffffffffffffffff1614610cc9576040517f08c379a0000000000000000000000000000000000000000000000000000000008152600401610cc0906130e9565b60405180910390fd5b610cd3600061181d565b565b66038d7ea4c6800081565b6000600760009054906101000a900473ffffffffffffffffffffffffffffffffffffffff16905090565b606060018054610d1990612a97565b80601f0160208091040260200160405190810160405280929190818152602001828054610d4590612a97565b8015610d925780601f10610d6757610100808354040283529160200191610d92565b820191906000526020600020905b815481529060010190602001808311610d7557829003601f168201915b5050505050905090565b610da4611339565b73ffffffffffffffffffffffffffffffffffffffff168273ffffffffffffffffffffffffffffffffffffffff161415610e12576040517f08c379a0000000000000000000000000000000000000000000000000000000008152600401610e0990613155565b60405180910390fd5b8060056000610e1f611339565b73ffffffffffffffffffffffffffffffffffffffff1673ffffffffffffffffffffffffffffffffffffffff16815260200190815260200160002060008473ffffffffffffffffffffffffffffffffffffffff1673ffffffffffffffffffffffffffffffffffffffff16815260200190815260200160002060006101000a81548160ff0219169083151502179055508173ffffffffffffffffffffffffffffffffffffffff16610ecc611339565b73ffffffffffffffffffffffffffffffffffffffff167f17307eab39ab6107e8899845ad3d59bd9653f200f220920489ca2b5937696c3183604051610f119190612440565b60405180910390a35050565b610f2e610f28611339565b836113fa565b610f6d576040517f08c379a0000000000000000000000000000000000000000000000000000000008152600401610f6490612cf1565b60405180910390fd5b610f79848484846118e3565b50505050565b6060610f8a826112cd565b610fc9576040517f08c379a0000000000000000000000000000000000000000000000000000000008152600401610fc0906131e7565b60405180910390fd5b6000600660008481526020019081526020016000208054610fe990612a97565b80601f016020809104026020016040519081016040528092919081815260200182805461101590612a97565b80156110625780601f1061103757610100808354040283529160200191611062565b820191906000526020600020905b81548152906001019060200180831161104557829003601f168201915b50505050509050600061107361193f565b90506000815114156110895781925050506110cc565b6000825111156110be5780826040516020016110a6929190613207565b604051602081830303815290604052925050506110cc565b6110c784611956565b925050505b919050565b60085481565b6000600560008473ffffffffffffffffffffffffffffffffffffffff1673ffffffffffffffffffffffffffffffffffffffff16815260200190815260200160002060008373ffffffffffffffffffffffffffffffffffffffff1673ffffffffffffffffffffffffffffffffffffffff16815260200190815260200160002060009054906101000a900460ff16905092915050565b611173611339565b73ffffffffffffffffffffffffffffffffffffffff16611191610ce0565b73ffffffffffffffffffffffffffffffffffffffff16146111e7576040517f08c379a00000000000000000000000000000000000000000000000000000000081526004016111de906130e9565b60405180910390fd5b600073ffffffffffffffffffffffffffffffffffffffff168173ffffffffffffffffffffffffffffffffffffffff161415611257576040517f08c379a000000000000000000000000000000000000000000000000000000000815260040161124e9061329d565b60405180910390fd5b6112608161181d565b50565b60007f01ffc9a7000000000000000000000000000000000000000000000000000000007bffffffffffffffffffffffffffffffffffffffffffffffffffffffff1916827bffffffffffffffffffffffffffffffffffffffffffffffffffffffff1916149050919050565b60008073ffffffffffffffffffffffffffffffffffffffff166002600084815260200190815260200160002060009054906101000a900473ffffffffffffffffffffffffffffffffffffffff1673ffffffffffffffffffffffffffffffffffffffff1614159050919050565b600033905090565b816004600083815260200190815260200160002060006101000a81548173ffffffffffffffffffffffffffffffffffffffff021916908373ffffffffffffffffffffffffffffffffffffffff160217905550808273ffffffffffffffffffffffffffffffffffffffff166113b483610ae3565b73ffffffffffffffffffffffffffffffffffffffff167f8c5be1e5ebec7d5bd14f71427d1e84f3dd0314c0f7b2291e5b200ac8c7c3b92560405160405180910390a45050565b6000611405826112cd565b611444576040517f08c379a000000000000000000000000000000000000000000000000000000000815260040161143b9061332f565b60405180910390fd5b600061144f83610ae3565b90508073ffffffffffffffffffffffffffffffffffffffff168473ffffffffffffffffffffffffffffffffffffffff1614806114be57508373ffffffffffffffffffffffffffffffffffffffff166114a684610667565b73ffffffffffffffffffffffffffffffffffffffff16145b806114cf57506114ce81856110d7565b5b91505092915050565b8273ffffffffffffffffffffffffffffffffffffffff166114f882610ae3565b73ffffffffffffffffffffffffffffffffffffffff161461154e576040517f08c379a0000000000000000000000000000000000000000000000000000000008152600401611545906133c1565b60405180910390fd5b600073ffffffffffffffffffffffffffffffffffffffff168273ffffffffffffffffffffffffffffffffffffffff1614156115be576040517f08c379a00000000000000000000000000000000000000000000000000000000081526004016115b590613453565b60405180910390fd5b6115c98383836119fd565b6115d4600082611341565b6001600360008573ffffffffffffffffffffffffffffffffffffffff1673ffffffffffffffffffffffffffffffffffffffff16815260200190815260200160002060008282546116249190613473565b925050819055506001600360008473ffffffffffffffffffffffffffffffffffffffff1673ffffffffffffffffffffffffffffffffffffffff168152602001908152602001600020600082825461167b9190612f23565b92505081905550816002600083815260200190815260200160002060006101000a81548173ffffffffffffffffffffffffffffffffffffffff021916908373ffffffffffffffffffffffffffffffffffffffff160217905550808273ffffffffffffffffffffffffffffffffffffffff168473ffffffffffffffffffffffffffffffffffffffff167fddf252ad1be2c89b69c2b068fc378daa952ba7f163c4a11628f55a4df523b3ef60405160405180910390a4505050565b600081604051602001611747919061351e565b604051602081830303815290604052805190602001209050919050565b60008060006117738585611a02565b9150915061178081611a85565b819250505092915050565b6117a5828260405180602001604052806000815250611c5a565b5050565b6117b2826112cd565b6117f1576040517f08c379a00000000000000000000000000000000000000000000000000000000081526004016117e8906135b6565b60405180910390fd5b806006600084815260200190815260200160002090805190602001906118189291906122e9565b505050565b6000600760009054906101000a900473ffffffffffffffffffffffffffffffffffffffff16905081600760006101000a81548173ffffffffffffffffffffffffffffffffffffffff021916908373ffffffffffffffffffffffffffffffffffffffff1602179055508173ffffffffffffffffffffffffffffffffffffffff168173ffffffffffffffffffffffffffffffffffffffff167f8be0079c531659141344cd1fd0a4f28419497f9722a3daafe3b4186f6b6457e060405160405180910390a35050565b6118ee8484846114d8565b6118fa84848484611cb5565b611939576040517f08c379a000000000000000000000000000000000000000000000000000000000815260040161193090613648565b60405180910390fd5b50505050565b606060405180602001604052806000815250905090565b6060611961826112cd565b6119a0576040517f08c379a0000000000000000000000000000000000000000000000000000000008152600401611997906136da565b60405180910390fd5b60006119aa61193f565b905060008151116119ca57604051806020016040528060008152506119f5565b806119d484611e4c565b6040516020016119e5929190613207565b6040516020818303038152906040525b915050919050565b505050565b600080604183511415611a445760008060006020860151925060408601519150606086015160001a9050611a3887828585611fad565b94509450505050611a7e565b604083511415611a75576000806020850151915060408501519050611a6a8683836120ba565b935093505050611a7e565b60006002915091505b9250929050565b60006004811115611a9957611a986136fa565b5b816004811115611aac57611aab6136fa565b5b1415611ab757611c57565b60016004811115611acb57611aca6136fa565b5b816004811115611ade57611add6136fa565b5b1415611b1f576040517f08c379a0000000000000000000000000000000000000000000000000000000008152600401611b1690613775565b60405180910390fd5b60026004811115611b3357611b326136fa565b5b816004811115611b4657611b456136fa565b5b1415611b87576040517f08c379a0000000000000000000000000000000000000000000000000000000008152600401611b7e906137e1565b60405180910390fd5b60036004811115611b9b57611b9a6136fa565b5b816004811115611bae57611bad6136fa565b5b1415611bef576040517f08c379a0000000000000000000000000000000000000000000000000000000008152600401611be690613873565b60405180910390fd5b600480811115611c0257611c016136fa565b5b816004811115611c1557611c146136fa565b5b1415611c56576040517f08c379a0000000000000000000000000000000000000000000000000000000008152600401611c4d90613905565b60405180910390fd5b5b50565b611c648383612108565b611c716000848484611cb5565b611cb0576040517f08c379a0000000000000000000000000000000000000000000000000000000008152600401611ca790613648565b60405180910390fd5b505050565b6000611cd68473ffffffffffffffffffffffffffffffffffffffff166122d6565b15611e3f578373ffffffffffffffffffffffffffffffffffffffff1663150b7a02611cff611339565b8786866040518563ffffffff1660e01b8152600401611d21949392919061397a565b602060405180830381600087803b158015611d3b57600080fd5b505af1925050508015611d6c57506040513d601f19601f82011682018060405250810190611d6991906139db565b60015b611def573d8060008114611d9c576040519150601f19603f3d011682016040523d82523d6000602084013e611da1565b606091505b50600081511415611de7576040517f08c379a0000000000000000000000000000000000000000000000000000000008152600401611dde90613648565b60405180910390fd5b805181602001fd5b63150b7a0260e01b7bffffffffffffffffffffffffffffffffffffffffffffffffffffffff1916817bffffffffffffffffffffffffffffffffffffffffffffffffffffffff191614915050611e44565b600190505b949350505050565b60606000821415611e94576040518060400160405280600181526020017f30000000000000000000000000000000000000000000000000000000000000008152509050611fa8565b600082905060005b60008214611ec6578080611eaf90613a08565b915050600a82611ebf9190613a80565b9150611e9c565b60008167ffffffffffffffff811115611ee257611ee16126c8565b5b6040519080825280601f01601f191660200182016040528015611f145781602001600182028036833780820191505090505b5090505b60008514611fa157600182611f2d9190613473565b9150600a85611f3c9190613ab1565b6030611f489190612f23565b60f81b818381518110611f5e57611f5d613ae2565b5b60200101907effffffffffffffffffffffffffffffffffffffffffffffffffffffffffffff1916908160001a905350600a85611f9a9190613a80565b9450611f18565b8093505050505b919050565b6000807f7fffffffffffffffffffffffffffffff5d576e7357a4501ddfe92f46681b20a08360001c1115611fe85760006003915091506120b1565b601b8560ff16141580156120005750601c8560ff1614155b156120125760006004915091506120b1565b6000600187878787604051600081526020016040526040516120379493929190613b3c565b6020604051602081039080840390855afa158015612059573d6000803e3d6000fd5b505050602060405103519050600073ffffffffffffffffffffffffffffffffffffffff168173ffffffffffffffffffffffffffffffffffffffff1614156120a8576000600192509250506120b1565b80600092509250505b94509492505050565b6000806000807f7fffffffffffffffffffffffffffffffffffffffffffffffffffffffffffffff85169150601b8560ff1c0190506120fa87828885611fad565b935093505050935093915050565b600073ffffffffffffffffffffffffffffffffffffffff168273ffffffffffffffffffffffffffffffffffffffff161415612178576040517f08c379a000000000000000000000000000000000000000000000000000000000815260040161216f90613bcd565b60405180910390fd5b612181816112cd565b156121c1576040517f08c379a00000000000000000000000000000000000000000000000000000000081526004016121b890613c39565b60405180910390fd5b6121cd600083836119fd565b6001600360008473ffffffffffffffffffffffffffffffffffffffff1673ffffffffffffffffffffffffffffffffffffffff168152602001908152602001600020600082825461221d9190612f23565b92505081905550816002600083815260200190815260200160002060006101000a81548173ffffffffffffffffffffffffffffffffffffffff021916908373ffffffffffffffffffffffffffffffffffffffff160217905550808273ffffffffffffffffffffffffffffffffffffffff16600073ffffffffffffffffffffffffffffffffffffffff167fddf252ad1be2c89b69c2b068fc378daa952ba7f163c4a11628f55a4df523b3ef60405160405180910390a45050565b600080823b905060008111915050919050565b8280546122f590612a97565b90600052602060002090601f016020900481019282612317576000855561235e565b82601f1061233057805160ff191683800117855561235e565b8280016001018555821561235e579182015b8281111561235d578251825591602001919060010190612342565b5b50905061236b919061236f565b5090565b5b80821115612388576000816000905550600101612370565b5090565b6000604051905090565b600080fd5b600080fd5b60007fffffffff0000000000000000000000000000000000000000000000000000000082169050919050565b6123d5816123a0565b81146123e057600080fd5b50565b6000813590506123f2816123cc565b92915050565b60006020828403121561240e5761240d612396565b5b600061241c848285016123e3565b91505092915050565b60008115159050919050565b61243a81612425565b82525050565b60006020820190506124556000830184612431565b92915050565b600081519050919050565b600082825260208201905092915050565b60005b8381101561249557808201518184015260208101905061247a565b838111156124a4576000848401525b50505050565b6000601f19601f8301169050919050565b60006124c68261245b565b6124d08185612466565b93506124e0818560208601612477565b6124e9816124aa565b840191505092915050565b6000602082019050818103600083015261250e81846124bb565b905092915050565b6000819050919050565b61252981612516565b811461253457600080fd5b50565b60008135905061254681612520565b92915050565b60006020828403121561256257612561612396565b5b600061257084828501612537565b91505092915050565b600073ffffffffffffffffffffffffffffffffffffffff82169050919050565b60006125a482612579565b9050919050565b6125b481612599565b82525050565b60006020820190506125cf60008301846125ab565b92915050565b6125de81612599565b81146125e957600080fd5b50565b6000813590506125fb816125d5565b92915050565b6000806040838503121561261857612617612396565b5b6000612626858286016125ec565b925050602061263785828601612537565b9150509250929050565b61264a81612516565b82525050565b60006020820190506126656000830184612641565b92915050565b60008060006060848603121561268457612683612396565b5b6000612692868287016125ec565b93505060206126a3868287016125ec565b92505060406126b486828701612537565b9150509250925092565b600080fd5b600080fd5b7f4e487b7100000000000000000000000000000000000000000000000000000000600052604160045260246000fd5b612700826124aa565b810181811067ffffffffffffffff8211171561271f5761271e6126c8565b5b80604052505050565b600061273261238c565b905061273e82826126f7565b919050565b600067ffffffffffffffff82111561275e5761275d6126c8565b5b612767826124aa565b9050602081019050919050565b82818337600083830152505050565b600061279661279184612743565b612728565b9050828152602081018484840111156127b2576127b16126c3565b5b6127bd848285612774565b509392505050565b600082601f8301126127da576127d96126be565b5b81356127ea848260208601612783565b91505092915050565b600067ffffffffffffffff82111561280e5761280d6126c8565b5b612817826124aa565b9050602081019050919050565b6000612837612832846127f3565b612728565b905082815260208101848484011115612853576128526126c3565b5b61285e848285612774565b509392505050565b600082601f83011261287b5761287a6126be565b5b813561288b848260208601612824565b91505092915050565b600080604083850312156128ab576128aa612396565b5b600083013567ffffffffffffffff8111156128c9576128c861239b565b5b6128d5858286016127c5565b925050602083013567ffffffffffffffff8111156128f6576128f561239b565b5b61290285828601612866565b9150509250929050565b60006020828403121561292257612921612396565b5b6000612930848285016125ec565b91505092915050565b61294281612425565b811461294d57600080fd5b50565b60008135905061295f81612939565b92915050565b6000806040838503121561297c5761297b612396565b5b600061298a858286016125ec565b925050602061299b85828601612950565b9150509250929050565b600080600080608085870312156129bf576129be612396565b5b60006129cd878288016125ec565b94505060206129de878288016125ec565b93505060406129ef87828801612537565b925050606085013567ffffffffffffffff811115612a1057612a0f61239b565b5b612a1c87828801612866565b91505092959194509250565b60008060408385031215612a3f57612a3e612396565b5b6000612a4d858286016125ec565b9250506020612a5e858286016125ec565b9150509250929050565b7f4e487b7100000000000000000000000000000000000000000000000000000000600052602260045260246000fd5b60006002820490506001821680612aaf57607f821691505b60208210811415612ac357612ac2612a68565b5b50919050565b7f4552433732313a20617070726f76656420717565727920666f72206e6f6e657860008201527f697374656e7420746f6b656e0000000000000000000000000000000000000000602082015250565b6000612b25602c83612466565b9150612b3082612ac9565b604082019050919050565b60006020820190508181036000830152612b5481612b18565b9050919050565b7f4552433732313a20617070726f76616c20746f2063757272656e74206f776e6560008201527f7200000000000000000000000000000000000000000000000000000000000000602082015250565b6000612bb7602183612466565b9150612bc282612b5b565b604082019050919050565b60006020820190508181036000830152612be681612baa565b9050919050565b7f4552433732313a20617070726f76652063616c6c6572206973206e6f74206f7760008201527f6e6572206e6f7220617070726f76656420666f7220616c6c0000000000000000602082015250565b6000612c49603883612466565b9150612c5482612bed565b604082019050919050565b60006020820190508181036000830152612c7881612c3c565b9050919050565b7f4552433732313a207472616e736665722063616c6c6572206973206e6f74206f60008201527f776e6572206e6f7220617070726f766564000000000000000000000000000000602082015250565b6000612cdb603183612466565b9150612ce682612c7f565b604082019050919050565b60006020820190508181036000830152612d0a81612cce565b9050919050565b7f4d617820737570706c792068617320616c7265616479206265656e206d696e7460008201527f65642e0000000000000000000000000000000000000000000000000000000000602082015250565b6000612d6d602383612466565b9150612d7882612d11565b604082019050919050565b60006020820190508181036000830152612d9c81612d60565b9050919050565b600081905092915050565b6000612db98261245b565b612dc38185612da3565b9350612dd3818560208601612477565b80840191505092915050565b6000612deb8284612dae565b915081905092915050565b7f546f6b656e205552492065786973747300000000000000000000000000000000600082015250565b6000612e2c601083612466565b9150612e3782612df6565b602082019050919050565b60006020820190508181036000830152612e5b81612e1f565b9050919050565b7f4d657373616765206e6f74207369676e65642062792074727565207369676e6560008201527f722e000000000000000000000000000000000000000000000000000000000000602082015250565b6000612ebe602283612466565b9150612ec982612e62565b604082019050919050565b60006020820190508181036000830152612eed81612eb1565b9050919050565b7f4e487b7100000000000000000000000000000000000000000000000000000000600052601160045260246000fd5b6000612f2e82612516565b9150612f3983612516565b9250827fffffffffffffffffffffffffffffffffffffffffffffffffffffffffffffffff03821115612f6e57612f6d612ef4565b5b828201905092915050565b7f4552433732313a206f776e657220717565727920666f72206e6f6e657869737460008201527f656e7420746f6b656e0000000000000000000000000000000000000000000000602082015250565b6000612fd5602983612466565b9150612fe082612f79565b604082019050919050565b6000602082019050818103600083015261300481612fc8565b9050919050565b7f4552433732313a2062616c616e636520717565727920666f7220746865207a6560008201527f726f206164647265737300000000000000000000000000000000000000000000602082015250565b6000613067602a83612466565b91506130728261300b565b604082019050919050565b600060208201905081810360008301526130968161305a565b9050919050565b7f4f776e61626c653a2063616c6c6572206973206e6f7420746865206f776e6572600082015250565b60006130d3602083612466565b91506130de8261309d565b602082019050919050565b60006020820190508181036000830152613102816130c6565b9050919050565b7f4552433732313a20617070726f766520746f2063616c6c657200000000000000600082015250565b600061313f601983612466565b915061314a82613109565b602082019050919050565b6000602082019050818103600083015261316e81613132565b9050919050565b7f45524337323155524953746f726167653a2055524920717565727920666f722060008201527f6e6f6e6578697374656e7420746f6b656e000000000000000000000000000000602082015250565b60006131d1603183612466565b91506131dc82613175565b604082019050919050565b60006020820190508181036000830152613200816131c4565b9050919050565b60006132138285612dae565b915061321f8284612dae565b91508190509392505050565b7f4f776e61626c653a206e6577206f776e657220697320746865207a65726f206160008201527f6464726573730000000000000000000000000000000000000000000000000000602082015250565b6000613287602683612466565b91506132928261322b565b604082019050919050565b600060208201905081810360008301526132b68161327a565b9050919050565b7f4552433732313a206f70657261746f7220717565727920666f72206e6f6e657860008201527f697374656e7420746f6b656e0000000000000000000000000000000000000000602082015250565b6000613319602c83612466565b9150613324826132bd565b604082019050919050565b600060208201905081810360008301526133488161330c565b9050919050565b7f4552433732313a207472616e73666572206f6620746f6b656e2074686174206960008201527f73206e6f74206f776e0000000000000000000000000000000000000000000000602082015250565b60006133ab602983612466565b91506133b68261334f565b604082019050919050565b600060208201905081810360008301526133da8161339e565b9050919050565b7f4552433732313a207472616e7366657220746f20746865207a65726f2061646460008201527f7265737300000000000000000000000000000000000000000000000000000000602082015250565b600061343d602483612466565b9150613448826133e1565b604082019050919050565b6000602082019050818103600083015261346c81613430565b9050919050565b600061347e82612516565b915061348983612516565b92508282101561349c5761349b612ef4565b5b828203905092915050565b7f19457468657265756d205369676e6564204d6573736167653a0a333200000000600082015250565b60006134dd601c83612da3565b91506134e8826134a7565b601c82019050919050565b6000819050919050565b6000819050919050565b613518613513826134f3565b6134fd565b82525050565b6000613529826134d0565b91506135358284613507565b60208201915081905092915050565b7f45524337323155524953746f726167653a2055524920736574206f66206e6f6e60008201527f6578697374656e7420746f6b656e000000000000000000000000000000000000602082015250565b60006135a0602e83612466565b91506135ab82613544565b604082019050919050565b600060208201905081810360008301526135cf81613593565b9050919050565b7f4552433732313a207472616e7366657220746f206e6f6e20455243373231526560008201527f63656976657220696d706c656d656e7465720000000000000000000000000000602082015250565b6000613632603283612466565b915061363d826135d6565b604082019050919050565b6000602082019050818103600083015261366181613625565b9050919050565b7f4552433732314d657461646174613a2055524920717565727920666f72206e6f60008201527f6e6578697374656e7420746f6b656e0000000000000000000000000000000000602082015250565b60006136c4602f83612466565b91506136cf82613668565b604082019050919050565b600060208201905081810360008301526136f3816136b7565b9050919050565b7f4e487b7100000000000000000000000000000000000000000000000000000000600052602160045260246000fd5b7f45434453413a20696e76616c6964207369676e61747572650000000000000000600082015250565b600061375f601883612466565b915061376a82613729565b602082019050919050565b6000602082019050818103600083015261378e81613752565b9050919050565b7f45434453413a20696e76616c6964207369676e6174757265206c656e67746800600082015250565b60006137cb601f83612466565b91506137d682613795565b602082019050919050565b600060208201905081810360008301526137fa816137be565b9050919050565b7f45434453413a20696e76616c6964207369676e6174757265202773272076616c60008201527f7565000000000000000000000000000000000000000000000000000000000000602082015250565b600061385d602283612466565b915061386882613801565b604082019050919050565b6000602082019050818103600083015261388c81613850565b9050919050565b7f45434453413a20696e76616c6964207369676e6174757265202776272076616c60008201527f7565000000000000000000000000000000000000000000000000000000000000602082015250565b60006138ef602283612466565b91506138fa82613893565b604082019050919050565b6000602082019050818103600083015261391e816138e2565b9050919050565b600081519050919050565b600082825260208201905092915050565b600061394c82613925565b6139568185613930565b9350613966818560208601612477565b61396f816124aa565b840191505092915050565b600060808201905061398f60008301876125ab565b61399c60208301866125ab565b6139a96040830185612641565b81810360608301526139bb8184613941565b905095945050505050565b6000815190506139d5816123cc565b92915050565b6000602082840312156139f1576139f0612396565b5b60006139ff848285016139c6565b91505092915050565b6000613a1382612516565b91507fffffffffffffffffffffffffffffffffffffffffffffffffffffffffffffffff821415613a4657613a45612ef4565b5b600182019050919050565b7f4e487b7100000000000000000000000000000000000000000000000000000000600052601260045260246000fd5b6000613a8b82612516565b9150613a9683612516565b925082613aa657613aa5613a51565b5b828204905092915050565b6000613abc82612516565b9150613ac783612516565b925082613ad757613ad6613a51565b5b828206905092915050565b7f4e487b7100000000000000000000000000000000000000000000000000000000600052603260045260246000fd5b613b1a816134f3565b82525050565b600060ff82169050919050565b613b3681613b20565b82525050565b6000608082019050613b516000830187613b11565b613b5e6020830186613b2d565b613b6b6040830185613b11565b613b786060830184613b11565b95945050505050565b7f4552433732313a206d696e7420746f20746865207a65726f2061646472657373600082015250565b6000613bb7602083612466565b9150613bc282613b81565b602082019050919050565b60006020820190508181036000830152613be681613baa565b9050919050565b7f4552433732313a20746f6b656e20616c7265616479206d696e74656400000000600082015250565b6000613c23601c83612466565b9150613c2e82613bed565b602082019050919050565b60006020820190508181036000830152613c5281613c16565b905091905056fea26469706673582212201930c97f10cac74afdec5dc271032e0dc306a1541fd6a0afb09437a3f674dd4164736f6c63430008090033",
  "linkReferences": {},
  "deployedLinkReferences": {}
}