{
  "_format": "hh-sol-artifact-1",
  "contractName": "SVGNFT",
  "sourceName": "contracts/SVGNFT.sol",
  "abi": [
    {
      "inputs": [],
      "stateMutability": "nonpayable",
      "type": "constructor"
    },
    {
      "anonymous": false,
      "inputs": [
        {
          "indexed": true,
          "internalType": "address",
          "name": "owner",
          "type": "address"
        },
        {
          "indexed": true,
          "internalType": "address",
          "name": "approved",
          "type": "address"
        },
        {
          "indexed": true,
          "internalType": "uint256",
          "name": "tokenId",
          "type": "uint256"
        }
      ],
      "name": "Approval",
      "type": "event"
    },
    {
      "anonymous": false,
      "inputs": [
        {
          "indexed": true,
          "internalType": "address",
          "name": "owner",
          "type": "address"
        },
        {
          "indexed": true,
          "internalType": "address",
          "name": "operator",
          "type": "address"
        },
        {
          "indexed": false,
          "internalType": "bool",
          "name": "approved",
          "type": "bool"
        }
      ],
      "name": "ApprovalForAll",
      "type": "event"
    },
    {
      "anonymous": false,
      "inputs": [
        {
          "indexed": true,
          "internalType": "uint256",
          "name": "tokenId",
          "type": "uint256"
        },
        {
          "indexed": false,
          "internalType": "string",
          "name": "tokenURI",
          "type": "string"
        }
      ],
      "name": "CreatedSVGNFT",
      "type": "event"
    },
    {
      "anonymous": false,
      "inputs": [
        {
          "indexed": true,
          "internalType": "address",
          "name": "previousOwner",
          "type": "address"
        },
        {
          "indexed": true,
          "internalType": "address",
          "name": "newOwner",
          "type": "address"
        }
      ],
      "name": "OwnershipTransferred",
      "type": "event"
    },
    {
      "anonymous": false,
      "inputs": [
        {
          "indexed": true,
          "internalType": "address",
          "name": "from",
          "type": "address"
        },
        {
          "indexed": true,
          "internalType": "address",
          "name": "to",
          "type": "address"
        },
        {
          "indexed": true,
          "internalType": "uint256",
          "name": "tokenId",
          "type": "uint256"
        }
      ],
      "name": "Transfer",
      "type": "event"
    },
    {
      "inputs": [
        {
          "internalType": "address",
          "name": "to",
          "type": "address"
        },
        {
          "internalType": "uint256",
          "name": "tokenId",
          "type": "uint256"
        }
      ],
      "name": "approve",
      "outputs": [],
      "stateMutability": "nonpayable",
      "type": "function"
    },
    {
      "inputs": [
        {
          "internalType": "address",
          "name": "owner",
          "type": "address"
        }
      ],
      "name": "balanceOf",
      "outputs": [
        {
          "internalType": "uint256",
          "name": "",
          "type": "uint256"
        }
      ],
      "stateMutability": "view",
      "type": "function"
    },
    {
      "inputs": [
        {
          "internalType": "uint256",
          "name": "tokenId",
          "type": "uint256"
        }
      ],
      "name": "getApproved",
      "outputs": [
        {
          "internalType": "address",
          "name": "",
          "type": "address"
        }
      ],
      "stateMutability": "view",
      "type": "function"
    },
    {
      "inputs": [
        {
          "internalType": "address",
          "name": "owner",
          "type": "address"
        },
        {
          "internalType": "address",
          "name": "operator",
          "type": "address"
        }
      ],
      "name": "isApprovedForAll",
      "outputs": [
        {
          "internalType": "bool",
          "name": "",
          "type": "bool"
        }
      ],
      "stateMutability": "view",
      "type": "function"
    },
    {
      "inputs": [
        {
          "internalType": "string",
          "name": "tokenUri",
          "type": "string"
        }
      ],
      "name": "mint",
      "outputs": [],
      "stateMutability": "nonpayable",
      "type": "function"
    },
    {
      "inputs": [],
      "name": "name",
      "outputs": [
        {
          "internalType": "string",
          "name": "",
          "type": "string"
        }
      ],
      "stateMutability": "view",
      "type": "function"
    },
    {
      "inputs": [],
      "name": "owner",
      "outputs": [
        {
          "internalType": "address",
          "name": "",
          "type": "address"
        }
      ],
      "stateMutability": "view",
      "type": "function"
    },
    {
      "inputs": [
        {
          "internalType": "uint256",
          "name": "tokenId",
          "type": "uint256"
        }
      ],
      "name": "ownerOf",
      "outputs": [
        {
          "internalType": "address",
          "name": "",
          "type": "address"
        }
      ],
      "stateMutability": "view",
      "type": "function"
    },
    {
      "inputs": [],
      "name": "renounceOwnership",
      "outputs": [],
      "stateMutability": "nonpayable",
      "type": "function"
    },
    {
      "inputs": [
        {
          "internalType": "address",
          "name": "from",
          "type": "address"
        },
        {
          "internalType": "address",
          "name": "to",
          "type": "address"
        },
        {
          "internalType": "uint256",
          "name": "tokenId",
          "type": "uint256"
        }
      ],
      "name": "safeTransferFrom",
      "outputs": [],
      "stateMutability": "nonpayable",
      "type": "function"
    },
    {
      "inputs": [
        {
          "internalType": "address",
          "name": "from",
          "type": "address"
        },
        {
          "internalType": "address",
          "name": "to",
          "type": "address"
        },
        {
          "internalType": "uint256",
          "name": "tokenId",
          "type": "uint256"
        },
        {
          "internalType": "bytes",
          "name": "_data",
          "type": "bytes"
        }
      ],
      "name": "safeTransferFrom",
      "outputs": [],
      "stateMutability": "nonpayable",
      "type": "function"
    },
    {
      "inputs": [
        {
          "internalType": "address",
          "name": "operator",
          "type": "address"
        },
        {
          "internalType": "bool",
          "name": "approved",
          "type": "bool"
        }
      ],
      "name": "setApprovalForAll",
      "outputs": [],
      "stateMutability": "nonpayable",
      "type": "function"
    },
    {
      "inputs": [
        {
          "internalType": "bytes4",
          "name": "interfaceId",
          "type": "bytes4"
        }
      ],
      "name": "supportsInterface",
      "outputs": [
        {
          "internalType": "bool",
          "name": "",
          "type": "bool"
        }
      ],
      "stateMutability": "view",
      "type": "function"
    },
    {
      "inputs": [],
      "name": "symbol",
      "outputs": [
        {
          "internalType": "string",
          "name": "",
          "type": "string"
        }
      ],
      "stateMutability": "view",
      "type": "function"
    },
    {
      "inputs": [],
      "name": "tokenCounter",
      "outputs": [
        {
          "internalType": "uint256",
          "name": "",
          "type": "uint256"
        }
      ],
      "stateMutability": "view",
      "type": "function"
    },
    {
      "inputs": [
        {
          "internalType": "uint256",
          "name": "tokenId",
          "type": "uint256"
        }
      ],
      "name": "tokenURI",
      "outputs": [
        {
          "internalType": "string",
          "name": "",
          "type": "string"
        }
      ],
      "stateMutability": "view",
      "type": "function"
    },
    {
      "inputs": [
        {
          "internalType": "address",
          "name": "from",
          "type": "address"
        },
        {
          "internalType": "address",
          "name": "to",
          "type": "address"
        },
        {
          "internalType": "uint256",
          "name": "tokenId",
          "type": "uint256"
        }
      ],
      "name": "transferFrom",
      "outputs": [],
      "stateMutability": "nonpayable",
      "type": "function"
    },
    {
      "inputs": [
        {
          "internalType": "address",
          "name": "newOwner",
          "type": "address"
        }
      ],
      "name": "transferOwnership",
      "outputs": [],
      "stateMutability": "nonpayable",
      "type": "function"
    }
  ],
  "bytecode": "0x60806040523480156200001157600080fd5b506040518060400160405280600781526020017f535647204e4654000000000000000000000000000000000000000000000000008152506040518060400160405280600681526020017f7376674e46540000000000000000000000000000000000000000000000000000815250816000908051906020019062000096929190620001ae565b508060019080519060200190620000af929190620001ae565b505050620000d2620000c6620000e060201b60201c565b620000e860201b60201c565b6000600881905550620002c3565b600033905090565b6000600760009054906101000a900473ffffffffffffffffffffffffffffffffffffffff16905081600760006101000a81548173ffffffffffffffffffffffffffffffffffffffff021916908373ffffffffffffffffffffffffffffffffffffffff1602179055508173ffffffffffffffffffffffffffffffffffffffff168173ffffffffffffffffffffffffffffffffffffffff167f8be0079c531659141344cd1fd0a4f28419497f9722a3daafe3b4186f6b6457e060405160405180910390a35050565b828054620001bc906200025e565b90600052602060002090601f016020900481019282620001e057600085556200022c565b82601f10620001fb57805160ff19168380011785556200022c565b828001600101855582156200022c579182015b828111156200022b5782518255916020019190600101906200020e565b5b5090506200023b91906200023f565b5090565b5b808211156200025a57600081600090555060010162000240565b5090565b600060028204905060018216806200027757607f821691505b602082108114156200028e576200028d62000294565b5b50919050565b7f4e487b7100000000000000000000000000000000000000000000000000000000600052602260045260246000fd5b612ecf80620002d36000396000f3fe608060405234801561001057600080fd5b50600436106101165760003560e01c80638da5cb5b116100a2578063c87b56dd11610071578063c87b56dd146102cb578063d082e381146102fb578063d85d3d2714610319578063e985e9c514610335578063f2fde38b1461036557610116565b80638da5cb5b1461025757806395d89b4114610275578063a22cb46514610293578063b88d4fde146102af57610116565b806323b872dd116100e957806323b872dd146101b557806342842e0e146101d15780636352211e146101ed57806370a082311461021d578063715018a61461024d57610116565b806301ffc9a71461011b57806306fdde031461014b578063081812fc14610169578063095ea7b314610199575b600080fd5b61013560048036038101906101309190611f3c565b610381565b60405161014291906127e7565b60405180910390f35b610153610463565b6040516101609190612802565b60405180910390f35b610183600480360381019061017e9190611fcf565b6104f5565b6040516101909190612780565b60405180910390f35b6101b360048036038101906101ae9190611f00565b61057a565b005b6101cf60048036038101906101ca9190611dfa565b610692565b005b6101eb60048036038101906101e69190611dfa565b6106f2565b005b61020760048036038101906102029190611fcf565b610712565b6040516102149190612780565b60405180910390f35b61023760048036038101906102329190611d95565b6107c4565b6040516102449190612a64565b60405180910390f35b61025561087c565b005b61025f610904565b60405161026c9190612780565b60405180910390f35b61027d61092e565b60405161028a9190612802565b60405180910390f35b6102ad60048036038101906102a89190611ec4565b6109c0565b005b6102c960048036038101906102c49190611e49565b610b41565b005b6102e560048036038101906102e09190611fcf565b610ba3565b6040516102f29190612802565b60405180910390f35b610303610cf5565b6040516103109190612a64565b60405180910390f35b610333600480360381019061032e9190611f8e565b610cfb565b005b61034f600480360381019061034a9190611dbe565b610d65565b60405161035c91906127e7565b60405180910390f35b61037f600480360381019061037a9190611d95565b610df9565b005b60007f80ac58cd000000000000000000000000000000000000000000000000000000007bffffffffffffffffffffffffffffffffffffffffffffffffffffffff1916827bffffffffffffffffffffffffffffffffffffffffffffffffffffffff1916148061044c57507f5b5e139f000000000000000000000000000000000000000000000000000000007bffffffffffffffffffffffffffffffffffffffffffffffffffffffff1916827bffffffffffffffffffffffffffffffffffffffffffffffffffffffff1916145b8061045c575061045b82610ef1565b5b9050919050565b60606000805461047290612cc4565b80601f016020809104026020016040519081016040528092919081815260200182805461049e90612cc4565b80156104eb5780601f106104c0576101008083540402835291602001916104eb565b820191906000526020600020905b8154815290600101906020018083116104ce57829003601f168201915b5050505050905090565b600061050082610f5b565b61053f576040517f08c379a0000000000000000000000000000000000000000000000000000000008152600401610536906129a4565b60405180910390fd5b6004600083815260200190815260200160002060009054906101000a900473ffffffffffffffffffffffffffffffffffffffff169050919050565b600061058582610712565b90508073ffffffffffffffffffffffffffffffffffffffff168373ffffffffffffffffffffffffffffffffffffffff1614156105f6576040517f08c379a00000000000000000000000000000000000000000000000000000000081526004016105ed90612a24565b60405180910390fd5b8073ffffffffffffffffffffffffffffffffffffffff16610615610fc7565b73ffffffffffffffffffffffffffffffffffffffff16148061064457506106438161063e610fc7565b610d65565b5b610683576040517f08c379a000000000000000000000000000000000000000000000000000000000815260040161067a906128e4565b60405180910390fd5b61068d8383610fcf565b505050565b6106a361069d610fc7565b82611088565b6106e2576040517f08c379a00000000000000000000000000000000000000000000000000000000081526004016106d990612a44565b60405180910390fd5b6106ed838383611166565b505050565b61070d83838360405180602001604052806000815250610b41565b505050565b6000806002600084815260200190815260200160002060009054906101000a900473ffffffffffffffffffffffffffffffffffffffff169050600073ffffffffffffffffffffffffffffffffffffffff168173ffffffffffffffffffffffffffffffffffffffff1614156107bb576040517f08c379a00000000000000000000000000000000000000000000000000000000081526004016107b290612924565b60405180910390fd5b80915050919050565b60008073ffffffffffffffffffffffffffffffffffffffff168273ffffffffffffffffffffffffffffffffffffffff161415610835576040517f08c379a000000000000000000000000000000000000000000000000000000000815260040161082c90612904565b60405180910390fd5b600360008373ffffffffffffffffffffffffffffffffffffffff1673ffffffffffffffffffffffffffffffffffffffff168152602001908152602001600020549050919050565b610884610fc7565b73ffffffffffffffffffffffffffffffffffffffff166108a2610904565b73ffffffffffffffffffffffffffffffffffffffff16146108f8576040517f08c379a00000000000000000000000000000000000000000000000000000000081526004016108ef906129c4565b60405180910390fd5b61090260006113c2565b565b6000600760009054906101000a900473ffffffffffffffffffffffffffffffffffffffff16905090565b60606001805461093d90612cc4565b80601f016020809104026020016040519081016040528092919081815260200182805461096990612cc4565b80156109b65780601f1061098b576101008083540402835291602001916109b6565b820191906000526020600020905b81548152906001019060200180831161099957829003601f168201915b5050505050905090565b6109c8610fc7565b73ffffffffffffffffffffffffffffffffffffffff168273ffffffffffffffffffffffffffffffffffffffff161415610a36576040517f08c379a0000000000000000000000000000000000000000000000000000000008152600401610a2d906128a4565b60405180910390fd5b8060056000610a43610fc7565b73ffffffffffffffffffffffffffffffffffffffff1673ffffffffffffffffffffffffffffffffffffffff16815260200190815260200160002060008473ffffffffffffffffffffffffffffffffffffffff1673ffffffffffffffffffffffffffffffffffffffff16815260200190815260200160002060006101000a81548160ff0219169083151502179055508173ffffffffffffffffffffffffffffffffffffffff16610af0610fc7565b73ffffffffffffffffffffffffffffffffffffffff167f17307eab39ab6107e8899845ad3d59bd9653f200f220920489ca2b5937696c3183604051610b3591906127e7565b60405180910390a35050565b610b52610b4c610fc7565b83611088565b610b91576040517f08c379a0000000000000000000000000000000000000000000000000000000008152600401610b8890612a44565b60405180910390fd5b610b9d84848484611488565b50505050565b6060610bae82610f5b565b610bed576040517f08c379a0000000000000000000000000000000000000000000000000000000008152600401610be490612984565b60405180910390fd5b6000600660008481526020019081526020016000208054610c0d90612cc4565b80601f0160208091040260200160405190810160405280929190818152602001828054610c3990612cc4565b8015610c865780601f10610c5b57610100808354040283529160200191610c86565b820191906000526020600020905b815481529060010190602001808311610c6957829003601f168201915b505050505090506000610c976114e4565b9050600081511415610cad578192505050610cf0565b600082511115610ce2578082604051602001610cca92919061275c565b60405160208183030381529060405292505050610cf0565b610ceb846114fb565b925050505b919050565b60085481565b610d07336008546115a2565b610d13600854826115c0565b6001600854610d229190612b53565b6008819055506008547ff5acc616aa8ecd00e5d76674d7812f9c3c3571d662c9fba4499deefa6d0be12d82604051610d5a9190612802565b60405180910390a250565b6000600560008473ffffffffffffffffffffffffffffffffffffffff1673ffffffffffffffffffffffffffffffffffffffff16815260200190815260200160002060008373ffffffffffffffffffffffffffffffffffffffff1673ffffffffffffffffffffffffffffffffffffffff16815260200190815260200160002060009054906101000a900460ff16905092915050565b610e01610fc7565b73ffffffffffffffffffffffffffffffffffffffff16610e1f610904565b73ffffffffffffffffffffffffffffffffffffffff1614610e75576040517f08c379a0000000000000000000000000000000000000000000000000000000008152600401610e6c906129c4565b60405180910390fd5b600073ffffffffffffffffffffffffffffffffffffffff168173ffffffffffffffffffffffffffffffffffffffff161415610ee5576040517f08c379a0000000000000000000000000000000000000000000000000000000008152600401610edc90612844565b60405180910390fd5b610eee816113c2565b50565b60007f01ffc9a7000000000000000000000000000000000000000000000000000000007bffffffffffffffffffffffffffffffffffffffffffffffffffffffff1916827bffffffffffffffffffffffffffffffffffffffffffffffffffffffff1916149050919050565b60008073ffffffffffffffffffffffffffffffffffffffff166002600084815260200190815260200160002060009054906101000a900473ffffffffffffffffffffffffffffffffffffffff1673ffffffffffffffffffffffffffffffffffffffff1614159050919050565b600033905090565b816004600083815260200190815260200160002060006101000a81548173ffffffffffffffffffffffffffffffffffffffff021916908373ffffffffffffffffffffffffffffffffffffffff160217905550808273ffffffffffffffffffffffffffffffffffffffff1661104283610712565b73ffffffffffffffffffffffffffffffffffffffff167f8c5be1e5ebec7d5bd14f71427d1e84f3dd0314c0f7b2291e5b200ac8c7c3b92560405160405180910390a45050565b600061109382610f5b565b6110d2576040517f08c379a00000000000000000000000000000000000000000000000000000000081526004016110c9906128c4565b60405180910390fd5b60006110dd83610712565b90508073ffffffffffffffffffffffffffffffffffffffff168473ffffffffffffffffffffffffffffffffffffffff16148061114c57508373ffffffffffffffffffffffffffffffffffffffff16611134846104f5565b73ffffffffffffffffffffffffffffffffffffffff16145b8061115d575061115c8185610d65565b5b91505092915050565b8273ffffffffffffffffffffffffffffffffffffffff1661118682610712565b73ffffffffffffffffffffffffffffffffffffffff16146111dc576040517f08c379a00000000000000000000000000000000000000000000000000000000081526004016111d3906129e4565b60405180910390fd5b600073ffffffffffffffffffffffffffffffffffffffff168273ffffffffffffffffffffffffffffffffffffffff16141561124c576040517f08c379a000000000000000000000000000000000000000000000000000000000815260040161124390612884565b60405180910390fd5b611257838383611634565b611262600082610fcf565b6001600360008573ffffffffffffffffffffffffffffffffffffffff1673ffffffffffffffffffffffffffffffffffffffff16815260200190815260200160002060008282546112b29190612bda565b925050819055506001600360008473ffffffffffffffffffffffffffffffffffffffff1673ffffffffffffffffffffffffffffffffffffffff16815260200190815260200160002060008282546113099190612b53565b92505081905550816002600083815260200190815260200160002060006101000a81548173ffffffffffffffffffffffffffffffffffffffff021916908373ffffffffffffffffffffffffffffffffffffffff160217905550808273ffffffffffffffffffffffffffffffffffffffff168473ffffffffffffffffffffffffffffffffffffffff167fddf252ad1be2c89b69c2b068fc378daa952ba7f163c4a11628f55a4df523b3ef60405160405180910390a4505050565b6000600760009054906101000a900473ffffffffffffffffffffffffffffffffffffffff16905081600760006101000a81548173ffffffffffffffffffffffffffffffffffffffff021916908373ffffffffffffffffffffffffffffffffffffffff1602179055508173ffffffffffffffffffffffffffffffffffffffff168173ffffffffffffffffffffffffffffffffffffffff167f8be0079c531659141344cd1fd0a4f28419497f9722a3daafe3b4186f6b6457e060405160405180910390a35050565b611493848484611166565b61149f84848484611639565b6114de576040517f08c379a00000000000000000000000000000000000000000000000000000000081526004016114d590612824565b60405180910390fd5b50505050565b606060405180602001604052806000815250905090565b606061150682610f5b565b611545576040517f08c379a000000000000000000000000000000000000000000000000000000000815260040161153c90612a04565b60405180910390fd5b600061154f6114e4565b9050600081511161156f576040518060200160405280600081525061159a565b80611579846117d0565b60405160200161158a92919061275c565b6040516020818303038152906040525b915050919050565b6115bc82826040518060200160405280600081525061197d565b5050565b6115c982610f5b565b611608576040517f08c379a00000000000000000000000000000000000000000000000000000000081526004016115ff90612944565b60405180910390fd5b8060066000848152602001908152602001600020908051906020019061162f929190611bb9565b505050565b505050565b600061165a8473ffffffffffffffffffffffffffffffffffffffff166119d8565b156117c3578373ffffffffffffffffffffffffffffffffffffffff1663150b7a02611683610fc7565b8786866040518563ffffffff1660e01b81526004016116a5949392919061279b565b602060405180830381600087803b1580156116bf57600080fd5b505af19250505080156116f057506040513d601f19601f820116820180604052508101906116ed9190611f65565b60015b611773573d8060008114611720576040519150601f19603f3d011682016040523d82523d6000602084013e611725565b606091505b5060008151141561176b576040517f08c379a000000000000000000000000000000000000000000000000000000000815260040161176290612824565b60405180910390fd5b805181602001fd5b63150b7a0260e01b7bffffffffffffffffffffffffffffffffffffffffffffffffffffffff1916817bffffffffffffffffffffffffffffffffffffffffffffffffffffffff1916149150506117c8565b600190505b949350505050565b60606000821415611818576040518060400160405280600181526020017f30000000000000000000000000000000000000000000000000000000000000008152509050611978565b600082905060005b6000821461184a57808061183390612cf6565b915050600a826118439190612ba9565b9150611820565b60008167ffffffffffffffff81111561188c577f4e487b7100000000000000000000000000000000000000000000000000000000600052604160045260246000fd5b6040519080825280601f01601f1916602001820160405280156118be5781602001600182028036833780820191505090505b5090505b60008514611971576001826118d79190612bda565b9150600a856118e69190612d3f565b60306118f29190612b53565b60f81b81838151811061192e577f4e487b7100000000000000000000000000000000000000000000000000000000600052603260045260246000fd5b60200101907effffffffffffffffffffffffffffffffffffffffffffffffffffffffffffff1916908160001a905350600a8561196a9190612ba9565b94506118c2565b8093505050505b919050565b61198783836119eb565b6119946000848484611639565b6119d3576040517f08c379a00000000000000000000000000000000000000000000000000000000081526004016119ca90612824565b60405180910390fd5b505050565b600080823b905060008111915050919050565b600073ffffffffffffffffffffffffffffffffffffffff168273ffffffffffffffffffffffffffffffffffffffff161415611a5b576040517f08c379a0000000000000000000000000000000000000000000000000000000008152600401611a5290612964565b60405180910390fd5b611a6481610f5b565b15611aa4576040517f08c379a0000000000000000000000000000000000000000000000000000000008152600401611a9b90612864565b60405180910390fd5b611ab060008383611634565b6001600360008473ffffffffffffffffffffffffffffffffffffffff1673ffffffffffffffffffffffffffffffffffffffff1681526020019081526020016000206000828254611b009190612b53565b92505081905550816002600083815260200190815260200160002060006101000a81548173ffffffffffffffffffffffffffffffffffffffff021916908373ffffffffffffffffffffffffffffffffffffffff160217905550808273ffffffffffffffffffffffffffffffffffffffff16600073ffffffffffffffffffffffffffffffffffffffff167fddf252ad1be2c89b69c2b068fc378daa952ba7f163c4a11628f55a4df523b3ef60405160405180910390a45050565b828054611bc590612cc4565b90600052602060002090601f016020900481019282611be75760008555611c2e565b82601f10611c0057805160ff1916838001178555611c2e565b82800160010185558215611c2e579182015b82811115611c2d578251825591602001919060010190611c12565b5b509050611c3b9190611c3f565b5090565b5b80821115611c58576000816000905550600101611c40565b5090565b6000611c6f611c6a84612ab0565b612a7f565b905082815260208101848484011115611c8757600080fd5b611c92848285612c82565b509392505050565b6000611cad611ca884612ae0565b612a7f565b905082815260208101848484011115611cc557600080fd5b611cd0848285612c82565b509392505050565b600081359050611ce781612e3d565b92915050565b600081359050611cfc81612e54565b92915050565b600081359050611d1181612e6b565b92915050565b600081519050611d2681612e6b565b92915050565b600082601f830112611d3d57600080fd5b8135611d4d848260208601611c5c565b91505092915050565b600082601f830112611d6757600080fd5b8135611d77848260208601611c9a565b91505092915050565b600081359050611d8f81612e82565b92915050565b600060208284031215611da757600080fd5b6000611db584828501611cd8565b91505092915050565b60008060408385031215611dd157600080fd5b6000611ddf85828601611cd8565b9250506020611df085828601611cd8565b9150509250929050565b600080600060608486031215611e0f57600080fd5b6000611e1d86828701611cd8565b9350506020611e2e86828701611cd8565b9250506040611e3f86828701611d80565b9150509250925092565b60008060008060808587031215611e5f57600080fd5b6000611e6d87828801611cd8565b9450506020611e7e87828801611cd8565b9350506040611e8f87828801611d80565b925050606085013567ffffffffffffffff811115611eac57600080fd5b611eb887828801611d2c565b91505092959194509250565b60008060408385031215611ed757600080fd5b6000611ee585828601611cd8565b9250506020611ef685828601611ced565b9150509250929050565b60008060408385031215611f1357600080fd5b6000611f2185828601611cd8565b9250506020611f3285828601611d80565b9150509250929050565b600060208284031215611f4e57600080fd5b6000611f5c84828501611d02565b91505092915050565b600060208284031215611f7757600080fd5b6000611f8584828501611d17565b91505092915050565b600060208284031215611fa057600080fd5b600082013567ffffffffffffffff811115611fba57600080fd5b611fc684828501611d56565b91505092915050565b600060208284031215611fe157600080fd5b6000611fef84828501611d80565b91505092915050565b61200181612c0e565b82525050565b61201081612c20565b82525050565b600061202182612b10565b61202b8185612b26565b935061203b818560208601612c91565b61204481612e2c565b840191505092915050565b600061205a82612b1b565b6120648185612b37565b9350612074818560208601612c91565b61207d81612e2c565b840191505092915050565b600061209382612b1b565b61209d8185612b48565b93506120ad818560208601612c91565b80840191505092915050565b60006120c6603283612b37565b91507f4552433732313a207472616e7366657220746f206e6f6e20455243373231526560008301527f63656976657220696d706c656d656e74657200000000000000000000000000006020830152604082019050919050565b600061212c602683612b37565b91507f4f776e61626c653a206e6577206f776e657220697320746865207a65726f206160008301527f64647265737300000000000000000000000000000000000000000000000000006020830152604082019050919050565b6000612192601c83612b37565b91507f4552433732313a20746f6b656e20616c7265616479206d696e746564000000006000830152602082019050919050565b60006121d2602483612b37565b91507f4552433732313a207472616e7366657220746f20746865207a65726f2061646460008301527f72657373000000000000000000000000000000000000000000000000000000006020830152604082019050919050565b6000612238601983612b37565b91507f4552433732313a20617070726f766520746f2063616c6c6572000000000000006000830152602082019050919050565b6000612278602c83612b37565b91507f4552433732313a206f70657261746f7220717565727920666f72206e6f6e657860008301527f697374656e7420746f6b656e00000000000000000000000000000000000000006020830152604082019050919050565b60006122de603883612b37565b91507f4552433732313a20617070726f76652063616c6c6572206973206e6f74206f7760008301527f6e6572206e6f7220617070726f76656420666f7220616c6c00000000000000006020830152604082019050919050565b6000612344602a83612b37565b91507f4552433732313a2062616c616e636520717565727920666f7220746865207a6560008301527f726f2061646472657373000000000000000000000000000000000000000000006020830152604082019050919050565b60006123aa602983612b37565b91507f4552433732313a206f776e657220717565727920666f72206e6f6e657869737460008301527f656e7420746f6b656e00000000000000000000000000000000000000000000006020830152604082019050919050565b6000612410602e83612b37565b91507f45524337323155524953746f726167653a2055524920736574206f66206e6f6e60008301527f6578697374656e7420746f6b656e0000000000000000000000000000000000006020830152604082019050919050565b6000612476602083612b37565b91507f4552433732313a206d696e7420746f20746865207a65726f20616464726573736000830152602082019050919050565b60006124b6603183612b37565b91507f45524337323155524953746f726167653a2055524920717565727920666f722060008301527f6e6f6e6578697374656e7420746f6b656e0000000000000000000000000000006020830152604082019050919050565b600061251c602c83612b37565b91507f4552433732313a20617070726f76656420717565727920666f72206e6f6e657860008301527f697374656e7420746f6b656e00000000000000000000000000000000000000006020830152604082019050919050565b6000612582602083612b37565b91507f4f776e61626c653a2063616c6c6572206973206e6f7420746865206f776e65726000830152602082019050919050565b60006125c2602983612b37565b91507f4552433732313a207472616e73666572206f6620746f6b656e2074686174206960008301527f73206e6f74206f776e00000000000000000000000000000000000000000000006020830152604082019050919050565b6000612628602f83612b37565b91507f4552433732314d657461646174613a2055524920717565727920666f72206e6f60008301527f6e6578697374656e7420746f6b656e00000000000000000000000000000000006020830152604082019050919050565b600061268e602183612b37565b91507f4552433732313a20617070726f76616c20746f2063757272656e74206f776e6560008301527f72000000000000000000000000000000000000000000000000000000000000006020830152604082019050919050565b60006126f4603183612b37565b91507f4552433732313a207472616e736665722063616c6c6572206973206e6f74206f60008301527f776e6572206e6f7220617070726f7665640000000000000000000000000000006020830152604082019050919050565b61275681612c78565b82525050565b60006127688285612088565b91506127748284612088565b91508190509392505050565b60006020820190506127956000830184611ff8565b92915050565b60006080820190506127b06000830187611ff8565b6127bd6020830186611ff8565b6127ca604083018561274d565b81810360608301526127dc8184612016565b905095945050505050565b60006020820190506127fc6000830184612007565b92915050565b6000602082019050818103600083015261281c818461204f565b905092915050565b6000602082019050818103600083015261283d816120b9565b9050919050565b6000602082019050818103600083015261285d8161211f565b9050919050565b6000602082019050818103600083015261287d81612185565b9050919050565b6000602082019050818103600083015261289d816121c5565b9050919050565b600060208201905081810360008301526128bd8161222b565b9050919050565b600060208201905081810360008301526128dd8161226b565b9050919050565b600060208201905081810360008301526128fd816122d1565b9050919050565b6000602082019050818103600083015261291d81612337565b9050919050565b6000602082019050818103600083015261293d8161239d565b9050919050565b6000602082019050818103600083015261295d81612403565b9050919050565b6000602082019050818103600083015261297d81612469565b9050919050565b6000602082019050818103600083015261299d816124a9565b9050919050565b600060208201905081810360008301526129bd8161250f565b9050919050565b600060208201905081810360008301526129dd81612575565b9050919050565b600060208201905081810360008301526129fd816125b5565b9050919050565b60006020820190508181036000830152612a1d8161261b565b9050919050565b60006020820190508181036000830152612a3d81612681565b9050919050565b60006020820190508181036000830152612a5d816126e7565b9050919050565b6000602082019050612a79600083018461274d565b92915050565b6000604051905081810181811067ffffffffffffffff82111715612aa657612aa5612dfd565b5b8060405250919050565b600067ffffffffffffffff821115612acb57612aca612dfd565b5b601f19601f8301169050602081019050919050565b600067ffffffffffffffff821115612afb57612afa612dfd565b5b601f19601f8301169050602081019050919050565b600081519050919050565b600081519050919050565b600082825260208201905092915050565b600082825260208201905092915050565b600081905092915050565b6000612b5e82612c78565b9150612b6983612c78565b9250827fffffffffffffffffffffffffffffffffffffffffffffffffffffffffffffffff03821115612b9e57612b9d612d70565b5b828201905092915050565b6000612bb482612c78565b9150612bbf83612c78565b925082612bcf57612bce612d9f565b5b828204905092915050565b6000612be582612c78565b9150612bf083612c78565b925082821015612c0357612c02612d70565b5b828203905092915050565b6000612c1982612c58565b9050919050565b60008115159050919050565b60007fffffffff0000000000000000000000000000000000000000000000000000000082169050919050565b600073ffffffffffffffffffffffffffffffffffffffff82169050919050565b6000819050919050565b82818337600083830152505050565b60005b83811015612caf578082015181840152602081019050612c94565b83811115612cbe576000848401525b50505050565b60006002820490506001821680612cdc57607f821691505b60208210811415612cf057612cef612dce565b5b50919050565b6000612d0182612c78565b91507fffffffffffffffffffffffffffffffffffffffffffffffffffffffffffffffff821415612d3457612d33612d70565b5b600182019050919050565b6000612d4a82612c78565b9150612d5583612c78565b925082612d6557612d64612d9f565b5b828206905092915050565b7f4e487b7100000000000000000000000000000000000000000000000000000000600052601160045260246000fd5b7f4e487b7100000000000000000000000000000000000000000000000000000000600052601260045260246000fd5b7f4e487b7100000000000000000000000000000000000000000000000000000000600052602260045260246000fd5b7f4e487b7100000000000000000000000000000000000000000000000000000000600052604160045260246000fd5b6000601f19601f8301169050919050565b612e4681612c0e565b8114612e5157600080fd5b50565b612e5d81612c20565b8114612e6857600080fd5b50565b612e7481612c2c565b8114612e7f57600080fd5b50565b612e8b81612c78565b8114612e9657600080fd5b5056fea2646970667358221220b98c7e87f98290bc31b53d285fca417b1b0ff9ad6ea8becd6630ba50b06b912064736f6c63430008000033",
  "linkReferences": {},
  "deployedLinkReferences": {}
}