{
  "_format": "hh-sol-artifact-1",
  "contractName": "SVGNFT",
  "sourceName": "contracts/SVGNFT.sol",
  "abi": [
    {
      "inputs": [],
      "stateMutability": "nonpayable",
      "type": "constructor"
    },
    {
      "anonymous": false,
      "inputs": [
        {
          "indexed": true,
          "internalType": "address",
          "name": "owner",
          "type": "address"
        },
        {
          "indexed": true,
          "internalType": "address",
          "name": "approved",
          "type": "address"
        },
        {
          "indexed": true,
          "internalType": "uint256",
          "name": "tokenId",
          "type": "uint256"
        }
      ],
      "name": "Approval",
      "type": "event"
    },
    {
      "anonymous": false,
      "inputs": [
        {
          "indexed": true,
          "internalType": "address",
          "name": "owner",
          "type": "address"
        },
        {
          "indexed": true,
          "internalType": "address",
          "name": "operator",
          "type": "address"
        },
        {
          "indexed": false,
          "internalType": "bool",
          "name": "approved",
          "type": "bool"
        }
      ],
      "name": "ApprovalForAll",
      "type": "event"
    },
    {
      "anonymous": false,
      "inputs": [
        {
          "indexed": true,
          "internalType": "uint256",
          "name": "tokenId",
          "type": "uint256"
        },
        {
          "indexed": false,
          "internalType": "string",
          "name": "tokenURI",
          "type": "string"
        }
      ],
      "name": "CreatedSVGNFT",
      "type": "event"
    },
    {
      "anonymous": false,
      "inputs": [
        {
          "indexed": true,
          "internalType": "address",
          "name": "previousOwner",
          "type": "address"
        },
        {
          "indexed": true,
          "internalType": "address",
          "name": "newOwner",
          "type": "address"
        }
      ],
      "name": "OwnershipTransferred",
      "type": "event"
    },
    {
      "anonymous": false,
      "inputs": [
        {
          "indexed": true,
          "internalType": "address",
          "name": "from",
          "type": "address"
        },
        {
          "indexed": true,
          "internalType": "address",
          "name": "to",
          "type": "address"
        },
        {
          "indexed": true,
          "internalType": "uint256",
          "name": "tokenId",
          "type": "uint256"
        }
      ],
      "name": "Transfer",
      "type": "event"
    },
    {
      "inputs": [
        {
          "internalType": "address",
          "name": "to",
          "type": "address"
        },
        {
          "internalType": "uint256",
          "name": "tokenId",
          "type": "uint256"
        }
      ],
      "name": "approve",
      "outputs": [],
      "stateMutability": "nonpayable",
      "type": "function"
    },
    {
      "inputs": [
        {
          "internalType": "address",
          "name": "owner",
          "type": "address"
        }
      ],
      "name": "balanceOf",
      "outputs": [
        {
          "internalType": "uint256",
          "name": "",
          "type": "uint256"
        }
      ],
      "stateMutability": "view",
      "type": "function"
    },
    {
      "inputs": [
        {
          "internalType": "uint256",
          "name": "tokenId",
          "type": "uint256"
        }
      ],
      "name": "getApproved",
      "outputs": [
        {
          "internalType": "address",
          "name": "",
          "type": "address"
        }
      ],
      "stateMutability": "view",
      "type": "function"
    },
    {
      "inputs": [
        {
          "internalType": "address",
          "name": "owner",
          "type": "address"
        },
        {
          "internalType": "address",
          "name": "operator",
          "type": "address"
        }
      ],
      "name": "isApprovedForAll",
      "outputs": [
        {
          "internalType": "bool",
          "name": "",
          "type": "bool"
        }
      ],
      "stateMutability": "view",
      "type": "function"
    },
    {
      "inputs": [
        {
          "internalType": "string",
          "name": "tokenUri",
          "type": "string"
        },
        {
          "internalType": "bytes",
          "name": "signature",
          "type": "bytes"
        }
      ],
      "name": "mint",
      "outputs": [],
      "stateMutability": "nonpayable",
      "type": "function"
    },
    {
      "inputs": [],
      "name": "name",
      "outputs": [
        {
          "internalType": "string",
          "name": "",
          "type": "string"
        }
      ],
      "stateMutability": "view",
      "type": "function"
    },
    {
      "inputs": [],
      "name": "owner",
      "outputs": [
        {
          "internalType": "address",
          "name": "",
          "type": "address"
        }
      ],
      "stateMutability": "view",
      "type": "function"
    },
    {
      "inputs": [
        {
          "internalType": "uint256",
          "name": "tokenId",
          "type": "uint256"
        }
      ],
      "name": "ownerOf",
      "outputs": [
        {
          "internalType": "address",
          "name": "",
          "type": "address"
        }
      ],
      "stateMutability": "view",
      "type": "function"
    },
    {
      "inputs": [],
      "name": "renounceOwnership",
      "outputs": [],
      "stateMutability": "nonpayable",
      "type": "function"
    },
    {
      "inputs": [
        {
          "internalType": "address",
          "name": "from",
          "type": "address"
        },
        {
          "internalType": "address",
          "name": "to",
          "type": "address"
        },
        {
          "internalType": "uint256",
          "name": "tokenId",
          "type": "uint256"
        }
      ],
      "name": "safeTransferFrom",
      "outputs": [],
      "stateMutability": "nonpayable",
      "type": "function"
    },
    {
      "inputs": [
        {
          "internalType": "address",
          "name": "from",
          "type": "address"
        },
        {
          "internalType": "address",
          "name": "to",
          "type": "address"
        },
        {
          "internalType": "uint256",
          "name": "tokenId",
          "type": "uint256"
        },
        {
          "internalType": "bytes",
          "name": "_data",
          "type": "bytes"
        }
      ],
      "name": "safeTransferFrom",
      "outputs": [],
      "stateMutability": "nonpayable",
      "type": "function"
    },
    {
      "inputs": [
        {
          "internalType": "address",
          "name": "operator",
          "type": "address"
        },
        {
          "internalType": "bool",
          "name": "approved",
          "type": "bool"
        }
      ],
      "name": "setApprovalForAll",
      "outputs": [],
      "stateMutability": "nonpayable",
      "type": "function"
    },
    {
      "inputs": [
        {
          "internalType": "bytes4",
          "name": "interfaceId",
          "type": "bytes4"
        }
      ],
      "name": "supportsInterface",
      "outputs": [
        {
          "internalType": "bool",
          "name": "",
          "type": "bool"
        }
      ],
      "stateMutability": "view",
      "type": "function"
    },
    {
      "inputs": [],
      "name": "symbol",
      "outputs": [
        {
          "internalType": "string",
          "name": "",
          "type": "string"
        }
      ],
      "stateMutability": "view",
      "type": "function"
    },
    {
      "inputs": [],
      "name": "tokenCounter",
      "outputs": [
        {
          "internalType": "uint256",
          "name": "",
          "type": "uint256"
        }
      ],
      "stateMutability": "view",
      "type": "function"
    },
    {
      "inputs": [
        {
          "internalType": "uint256",
          "name": "tokenId",
          "type": "uint256"
        }
      ],
      "name": "tokenURI",
      "outputs": [
        {
          "internalType": "string",
          "name": "",
          "type": "string"
        }
      ],
      "stateMutability": "view",
      "type": "function"
    },
    {
      "inputs": [
        {
          "internalType": "address",
          "name": "from",
          "type": "address"
        },
        {
          "internalType": "address",
          "name": "to",
          "type": "address"
        },
        {
          "internalType": "uint256",
          "name": "tokenId",
          "type": "uint256"
        }
      ],
      "name": "transferFrom",
      "outputs": [],
      "stateMutability": "nonpayable",
      "type": "function"
    },
    {
      "inputs": [
        {
          "internalType": "address",
          "name": "newOwner",
          "type": "address"
        }
      ],
      "name": "transferOwnership",
      "outputs": [],
      "stateMutability": "nonpayable",
      "type": "function"
    }
  ],
  "bytecode": "0x60806040523480156200001157600080fd5b506040518060400160405280600781526020017f535647204e4654000000000000000000000000000000000000000000000000008152506040518060400160405280600681526020017f7376674e4654000000000000000000000000000000000000000000000000000081525081600090805190602001906200009692919062000203565b508060019080519060200190620000af92919062000203565b505050620000d2620000c66200013560201b60201c565b6200013d60201b60201c565b600060088190555073dba800f4da03dba3f604268aec2ad9eb28a055a4600960006101000a81548173ffffffffffffffffffffffffffffffffffffffff021916908373ffffffffffffffffffffffffffffffffffffffff16021790555062000318565b600033905090565b6000600760009054906101000a900473ffffffffffffffffffffffffffffffffffffffff16905081600760006101000a81548173ffffffffffffffffffffffffffffffffffffffff021916908373ffffffffffffffffffffffffffffffffffffffff1602179055508173ffffffffffffffffffffffffffffffffffffffff168173ffffffffffffffffffffffffffffffffffffffff167f8be0079c531659141344cd1fd0a4f28419497f9722a3daafe3b4186f6b6457e060405160405180910390a35050565b8280546200021190620002e2565b90600052602060002090601f01602090048101928262000235576000855562000281565b82601f106200025057805160ff191683800117855562000281565b8280016001018555821562000281579182015b828111156200028057825182559160200191906001019062000263565b5b50905062000290919062000294565b5090565b5b80821115620002af57600081600090555060010162000295565b5090565b7f4e487b7100000000000000000000000000000000000000000000000000000000600052602260045260246000fd5b60006002820490506001821680620002fb57607f821691505b60208210811415620003125762000311620002b3565b5b50919050565b613a0b80620003286000396000f3fe608060405234801561001057600080fd5b50600436106101165760003560e01c8063715018a6116100a2578063b88d4fde11610071578063b88d4fde146102cb578063c87b56dd146102e7578063d082e38114610317578063e985e9c514610335578063f2fde38b1461036557610116565b8063715018a6146102695780638da5cb5b1461027357806395d89b4114610291578063a22cb465146102af57610116565b806323b872dd116100e957806323b872dd146101b557806342842e0e146101d15780634737576e146101ed5780636352211e1461020957806370a082311461023957610116565b806301ffc9a71461011b57806306fdde031461014b578063081812fc14610169578063095ea7b314610199575b600080fd5b61013560048036038101906101309190612206565b610381565b604051610142919061224e565b60405180910390f35b610153610463565b6040516101609190612302565b60405180910390f35b610183600480360381019061017e919061235a565b6104f5565b60405161019091906123c8565b60405180910390f35b6101b360048036038101906101ae919061240f565b61057a565b005b6101cf60048036038101906101ca919061244f565b610692565b005b6101eb60048036038101906101e6919061244f565b6106f2565b005b61020760048036038101906102029190612678565b610712565b005b610223600480360381019061021e919061235a565b6108fc565b60405161023091906123c8565b60405180910390f35b610253600480360381019061024e91906126f0565b6109ae565b604051610260919061272c565b60405180910390f35b610271610a66565b005b61027b610aee565b60405161028891906123c8565b60405180910390f35b610299610b18565b6040516102a69190612302565b60405180910390f35b6102c960048036038101906102c49190612773565b610baa565b005b6102e560048036038101906102e091906127b3565b610d2b565b005b61030160048036038101906102fc919061235a565b610d8d565b60405161030e9190612302565b60405180910390f35b61031f610edf565b60405161032c919061272c565b60405180910390f35b61034f600480360381019061034a9190612836565b610ee5565b60405161035c919061224e565b60405180910390f35b61037f600480360381019061037a91906126f0565b610f79565b005b60007f80ac58cd000000000000000000000000000000000000000000000000000000007bffffffffffffffffffffffffffffffffffffffffffffffffffffffff1916827bffffffffffffffffffffffffffffffffffffffffffffffffffffffff1916148061044c57507f5b5e139f000000000000000000000000000000000000000000000000000000007bffffffffffffffffffffffffffffffffffffffffffffffffffffffff1916827bffffffffffffffffffffffffffffffffffffffffffffffffffffffff1916145b8061045c575061045b82611071565b5b9050919050565b606060008054610472906128a5565b80601f016020809104026020016040519081016040528092919081815260200182805461049e906128a5565b80156104eb5780601f106104c0576101008083540402835291602001916104eb565b820191906000526020600020905b8154815290600101906020018083116104ce57829003601f168201915b5050505050905090565b6000610500826110db565b61053f576040517f08c379a000000000000000000000000000000000000000000000000000000000815260040161053690612949565b60405180910390fd5b6004600083815260200190815260200160002060009054906101000a900473ffffffffffffffffffffffffffffffffffffffff169050919050565b6000610585826108fc565b90508073ffffffffffffffffffffffffffffffffffffffff168373ffffffffffffffffffffffffffffffffffffffff1614156105f6576040517f08c379a00000000000000000000000000000000000000000000000000000000081526004016105ed906129db565b60405180910390fd5b8073ffffffffffffffffffffffffffffffffffffffff16610615611147565b73ffffffffffffffffffffffffffffffffffffffff16148061064457506106438161063e611147565b610ee5565b5b610683576040517f08c379a000000000000000000000000000000000000000000000000000000000815260040161067a90612a6d565b60405180910390fd5b61068d838361114f565b505050565b6106a361069d611147565b82611208565b6106e2576040517f08c379a00000000000000000000000000000000000000000000000000000000081526004016106d990612aff565b60405180910390fd5b6106ed8383836112e6565b505050565b61070d83838360405180602001604052806000815250610d2b565b505050565b600a826040516107229190612b5b565b908152602001604051809103902060009054906101000a900460ff161561077e576040517f08c379a000000000000000000000000000000000000000000000000000000000815260040161077590612bbe565b60405180910390fd5b60006107af836040516020016107949190612b5b565b60405160208183030381529060405280519060200120611542565b905060006107c6838361157290919063ffffffff16565b9050600960009054906101000a900473ffffffffffffffffffffffffffffffffffffffff1673ffffffffffffffffffffffffffffffffffffffff168173ffffffffffffffffffffffffffffffffffffffff1614610858576040517f08c379a000000000000000000000000000000000000000000000000000000000815260040161084f90612c50565b60405180910390fd5b61086433600854611599565b610870600854856115b7565b600160085461087f9190612c9f565b6008819055506001600a856040516108979190612b5b565b908152602001604051809103902060006101000a81548160ff0219169083151502179055506008547ff5acc616aa8ecd00e5d76674d7812f9c3c3571d662c9fba4499deefa6d0be12d856040516108ee9190612302565b60405180910390a250505050565b6000806002600084815260200190815260200160002060009054906101000a900473ffffffffffffffffffffffffffffffffffffffff169050600073ffffffffffffffffffffffffffffffffffffffff168173ffffffffffffffffffffffffffffffffffffffff1614156109a5576040517f08c379a000000000000000000000000000000000000000000000000000000000815260040161099c90612d67565b60405180910390fd5b80915050919050565b60008073ffffffffffffffffffffffffffffffffffffffff168273ffffffffffffffffffffffffffffffffffffffff161415610a1f576040517f08c379a0000000000000000000000000000000000000000000000000000000008152600401610a1690612df9565b60405180910390fd5b600360008373ffffffffffffffffffffffffffffffffffffffff1673ffffffffffffffffffffffffffffffffffffffff168152602001908152602001600020549050919050565b610a6e611147565b73ffffffffffffffffffffffffffffffffffffffff16610a8c610aee565b73ffffffffffffffffffffffffffffffffffffffff1614610ae2576040517f08c379a0000000000000000000000000000000000000000000000000000000008152600401610ad990612e65565b60405180910390fd5b610aec600061162b565b565b6000600760009054906101000a900473ffffffffffffffffffffffffffffffffffffffff16905090565b606060018054610b27906128a5565b80601f0160208091040260200160405190810160405280929190818152602001828054610b53906128a5565b8015610ba05780601f10610b7557610100808354040283529160200191610ba0565b820191906000526020600020905b815481529060010190602001808311610b8357829003601f168201915b5050505050905090565b610bb2611147565b73ffffffffffffffffffffffffffffffffffffffff168273ffffffffffffffffffffffffffffffffffffffff161415610c20576040517f08c379a0000000000000000000000000000000000000000000000000000000008152600401610c1790612ed1565b60405180910390fd5b8060056000610c2d611147565b73ffffffffffffffffffffffffffffffffffffffff1673ffffffffffffffffffffffffffffffffffffffff16815260200190815260200160002060008473ffffffffffffffffffffffffffffffffffffffff1673ffffffffffffffffffffffffffffffffffffffff16815260200190815260200160002060006101000a81548160ff0219169083151502179055508173ffffffffffffffffffffffffffffffffffffffff16610cda611147565b73ffffffffffffffffffffffffffffffffffffffff167f17307eab39ab6107e8899845ad3d59bd9653f200f220920489ca2b5937696c3183604051610d1f919061224e565b60405180910390a35050565b610d3c610d36611147565b83611208565b610d7b576040517f08c379a0000000000000000000000000000000000000000000000000000000008152600401610d7290612aff565b60405180910390fd5b610d87848484846116f1565b50505050565b6060610d98826110db565b610dd7576040517f08c379a0000000000000000000000000000000000000000000000000000000008152600401610dce90612f63565b60405180910390fd5b6000600660008481526020019081526020016000208054610df7906128a5565b80601f0160208091040260200160405190810160405280929190818152602001828054610e23906128a5565b8015610e705780601f10610e4557610100808354040283529160200191610e70565b820191906000526020600020905b815481529060010190602001808311610e5357829003601f168201915b505050505090506000610e8161174d565b9050600081511415610e97578192505050610eda565b600082511115610ecc578082604051602001610eb4929190612f83565b60405160208183030381529060405292505050610eda565b610ed584611764565b925050505b919050565b60085481565b6000600560008473ffffffffffffffffffffffffffffffffffffffff1673ffffffffffffffffffffffffffffffffffffffff16815260200190815260200160002060008373ffffffffffffffffffffffffffffffffffffffff1673ffffffffffffffffffffffffffffffffffffffff16815260200190815260200160002060009054906101000a900460ff16905092915050565b610f81611147565b73ffffffffffffffffffffffffffffffffffffffff16610f9f610aee565b73ffffffffffffffffffffffffffffffffffffffff1614610ff5576040517f08c379a0000000000000000000000000000000000000000000000000000000008152600401610fec90612e65565b60405180910390fd5b600073ffffffffffffffffffffffffffffffffffffffff168173ffffffffffffffffffffffffffffffffffffffff161415611065576040517f08c379a000000000000000000000000000000000000000000000000000000000815260040161105c90613019565b60405180910390fd5b61106e8161162b565b50565b60007f01ffc9a7000000000000000000000000000000000000000000000000000000007bffffffffffffffffffffffffffffffffffffffffffffffffffffffff1916827bffffffffffffffffffffffffffffffffffffffffffffffffffffffff1916149050919050565b60008073ffffffffffffffffffffffffffffffffffffffff166002600084815260200190815260200160002060009054906101000a900473ffffffffffffffffffffffffffffffffffffffff1673ffffffffffffffffffffffffffffffffffffffff1614159050919050565b600033905090565b816004600083815260200190815260200160002060006101000a81548173ffffffffffffffffffffffffffffffffffffffff021916908373ffffffffffffffffffffffffffffffffffffffff160217905550808273ffffffffffffffffffffffffffffffffffffffff166111c2836108fc565b73ffffffffffffffffffffffffffffffffffffffff167f8c5be1e5ebec7d5bd14f71427d1e84f3dd0314c0f7b2291e5b200ac8c7c3b92560405160405180910390a45050565b6000611213826110db565b611252576040517f08c379a0000000000000000000000000000000000000000000000000000000008152600401611249906130ab565b60405180910390fd5b600061125d836108fc565b90508073ffffffffffffffffffffffffffffffffffffffff168473ffffffffffffffffffffffffffffffffffffffff1614806112cc57508373ffffffffffffffffffffffffffffffffffffffff166112b4846104f5565b73ffffffffffffffffffffffffffffffffffffffff16145b806112dd57506112dc8185610ee5565b5b91505092915050565b8273ffffffffffffffffffffffffffffffffffffffff16611306826108fc565b73ffffffffffffffffffffffffffffffffffffffff161461135c576040517f08c379a00000000000000000000000000000000000000000000000000000000081526004016113539061313d565b60405180910390fd5b600073ffffffffffffffffffffffffffffffffffffffff168273ffffffffffffffffffffffffffffffffffffffff1614156113cc576040517f08c379a00000000000000000000000000000000000000000000000000000000081526004016113c3906131cf565b60405180910390fd5b6113d783838361180b565b6113e260008261114f565b6001600360008573ffffffffffffffffffffffffffffffffffffffff1673ffffffffffffffffffffffffffffffffffffffff168152602001908152602001600020600082825461143291906131ef565b925050819055506001600360008473ffffffffffffffffffffffffffffffffffffffff1673ffffffffffffffffffffffffffffffffffffffff16815260200190815260200160002060008282546114899190612c9f565b92505081905550816002600083815260200190815260200160002060006101000a81548173ffffffffffffffffffffffffffffffffffffffff021916908373ffffffffffffffffffffffffffffffffffffffff160217905550808273ffffffffffffffffffffffffffffffffffffffff168473ffffffffffffffffffffffffffffffffffffffff167fddf252ad1be2c89b69c2b068fc378daa952ba7f163c4a11628f55a4df523b3ef60405160405180910390a4505050565b600081604051602001611555919061329a565b604051602081830303815290604052805190602001209050919050565b60008060006115818585611810565b9150915061158e81611893565b819250505092915050565b6115b3828260405180602001604052806000815250611a68565b5050565b6115c0826110db565b6115ff576040517f08c379a00000000000000000000000000000000000000000000000000000000081526004016115f690613332565b60405180910390fd5b806006600084815260200190815260200160002090805190602001906116269291906120f7565b505050565b6000600760009054906101000a900473ffffffffffffffffffffffffffffffffffffffff16905081600760006101000a81548173ffffffffffffffffffffffffffffffffffffffff021916908373ffffffffffffffffffffffffffffffffffffffff1602179055508173ffffffffffffffffffffffffffffffffffffffff168173ffffffffffffffffffffffffffffffffffffffff167f8be0079c531659141344cd1fd0a4f28419497f9722a3daafe3b4186f6b6457e060405160405180910390a35050565b6116fc8484846112e6565b61170884848484611ac3565b611747576040517f08c379a000000000000000000000000000000000000000000000000000000000815260040161173e906133c4565b60405180910390fd5b50505050565b606060405180602001604052806000815250905090565b606061176f826110db565b6117ae576040517f08c379a00000000000000000000000000000000000000000000000000000000081526004016117a590613456565b60405180910390fd5b60006117b861174d565b905060008151116117d85760405180602001604052806000815250611803565b806117e284611c5a565b6040516020016117f3929190612f83565b6040516020818303038152906040525b915050919050565b505050565b6000806041835114156118525760008060006020860151925060408601519150606086015160001a905061184687828585611dbb565b9450945050505061188c565b604083511415611883576000806020850151915060408501519050611878868383611ec8565b93509350505061188c565b60006002915091505b9250929050565b600060048111156118a7576118a6613476565b5b8160048111156118ba576118b9613476565b5b14156118c557611a65565b600160048111156118d9576118d8613476565b5b8160048111156118ec576118eb613476565b5b141561192d576040517f08c379a0000000000000000000000000000000000000000000000000000000008152600401611924906134f1565b60405180910390fd5b6002600481111561194157611940613476565b5b81600481111561195457611953613476565b5b1415611995576040517f08c379a000000000000000000000000000000000000000000000000000000000815260040161198c9061355d565b60405180910390fd5b600360048111156119a9576119a8613476565b5b8160048111156119bc576119bb613476565b5b14156119fd576040517f08c379a00000000000000000000000000000000000000000000000000000000081526004016119f4906135ef565b60405180910390fd5b600480811115611a1057611a0f613476565b5b816004811115611a2357611a22613476565b5b1415611a64576040517f08c379a0000000000000000000000000000000000000000000000000000000008152600401611a5b90613681565b60405180910390fd5b5b50565b611a728383611f16565b611a7f6000848484611ac3565b611abe576040517f08c379a0000000000000000000000000000000000000000000000000000000008152600401611ab5906133c4565b60405180910390fd5b505050565b6000611ae48473ffffffffffffffffffffffffffffffffffffffff166120e4565b15611c4d578373ffffffffffffffffffffffffffffffffffffffff1663150b7a02611b0d611147565b8786866040518563ffffffff1660e01b8152600401611b2f94939291906136f6565b602060405180830381600087803b158015611b4957600080fd5b505af1925050508015611b7a57506040513d601f19601f82011682018060405250810190611b779190613757565b60015b611bfd573d8060008114611baa576040519150601f19603f3d011682016040523d82523d6000602084013e611baf565b606091505b50600081511415611bf5576040517f08c379a0000000000000000000000000000000000000000000000000000000008152600401611bec906133c4565b60405180910390fd5b805181602001fd5b63150b7a0260e01b7bffffffffffffffffffffffffffffffffffffffffffffffffffffffff1916817bffffffffffffffffffffffffffffffffffffffffffffffffffffffff191614915050611c52565b600190505b949350505050565b60606000821415611ca2576040518060400160405280600181526020017f30000000000000000000000000000000000000000000000000000000000000008152509050611db6565b600082905060005b60008214611cd4578080611cbd90613784565b915050600a82611ccd91906137fc565b9150611caa565b60008167ffffffffffffffff811115611cf057611cef6124ac565b5b6040519080825280601f01601f191660200182016040528015611d225781602001600182028036833780820191505090505b5090505b60008514611daf57600182611d3b91906131ef565b9150600a85611d4a919061382d565b6030611d569190612c9f565b60f81b818381518110611d6c57611d6b61385e565b5b60200101907effffffffffffffffffffffffffffffffffffffffffffffffffffffffffffff1916908160001a905350600a85611da891906137fc565b9450611d26565b8093505050505b919050565b6000807f7fffffffffffffffffffffffffffffff5d576e7357a4501ddfe92f46681b20a08360001c1115611df6576000600391509150611ebf565b601b8560ff1614158015611e0e5750601c8560ff1614155b15611e20576000600491509150611ebf565b600060018787878760405160008152602001604052604051611e4594939291906138b8565b6020604051602081039080840390855afa158015611e67573d6000803e3d6000fd5b505050602060405103519050600073ffffffffffffffffffffffffffffffffffffffff168173ffffffffffffffffffffffffffffffffffffffff161415611eb657600060019250925050611ebf565b80600092509250505b94509492505050565b6000806000807f7fffffffffffffffffffffffffffffffffffffffffffffffffffffffffffffff85169150601b8560ff1c019050611f0887828885611dbb565b935093505050935093915050565b600073ffffffffffffffffffffffffffffffffffffffff168273ffffffffffffffffffffffffffffffffffffffff161415611f86576040517f08c379a0000000000000000000000000000000000000000000000000000000008152600401611f7d90613949565b60405180910390fd5b611f8f816110db565b15611fcf576040517f08c379a0000000000000000000000000000000000000000000000000000000008152600401611fc6906139b5565b60405180910390fd5b611fdb6000838361180b565b6001600360008473ffffffffffffffffffffffffffffffffffffffff1673ffffffffffffffffffffffffffffffffffffffff168152602001908152602001600020600082825461202b9190612c9f565b92505081905550816002600083815260200190815260200160002060006101000a81548173ffffffffffffffffffffffffffffffffffffffff021916908373ffffffffffffffffffffffffffffffffffffffff160217905550808273ffffffffffffffffffffffffffffffffffffffff16600073ffffffffffffffffffffffffffffffffffffffff167fddf252ad1be2c89b69c2b068fc378daa952ba7f163c4a11628f55a4df523b3ef60405160405180910390a45050565b600080823b905060008111915050919050565b828054612103906128a5565b90600052602060002090601f016020900481019282612125576000855561216c565b82601f1061213e57805160ff191683800117855561216c565b8280016001018555821561216c579182015b8281111561216b578251825591602001919060010190612150565b5b509050612179919061217d565b5090565b5b8082111561219657600081600090555060010161217e565b5090565b6000604051905090565b600080fd5b600080fd5b60007fffffffff0000000000000000000000000000000000000000000000000000000082169050919050565b6121e3816121ae565b81146121ee57600080fd5b50565b600081359050612200816121da565b92915050565b60006020828403121561221c5761221b6121a4565b5b600061222a848285016121f1565b91505092915050565b60008115159050919050565b61224881612233565b82525050565b6000602082019050612263600083018461223f565b92915050565b600081519050919050565b600082825260208201905092915050565b60005b838110156122a3578082015181840152602081019050612288565b838111156122b2576000848401525b50505050565b6000601f19601f8301169050919050565b60006122d482612269565b6122de8185612274565b93506122ee818560208601612285565b6122f7816122b8565b840191505092915050565b6000602082019050818103600083015261231c81846122c9565b905092915050565b6000819050919050565b61233781612324565b811461234257600080fd5b50565b6000813590506123548161232e565b92915050565b6000602082840312156123705761236f6121a4565b5b600061237e84828501612345565b91505092915050565b600073ffffffffffffffffffffffffffffffffffffffff82169050919050565b60006123b282612387565b9050919050565b6123c2816123a7565b82525050565b60006020820190506123dd60008301846123b9565b92915050565b6123ec816123a7565b81146123f757600080fd5b50565b600081359050612409816123e3565b92915050565b60008060408385031215612426576124256121a4565b5b6000612434858286016123fa565b925050602061244585828601612345565b9150509250929050565b600080600060608486031215612468576124676121a4565b5b6000612476868287016123fa565b9350506020612487868287016123fa565b925050604061249886828701612345565b9150509250925092565b600080fd5b600080fd5b7f4e487b7100000000000000000000000000000000000000000000000000000000600052604160045260246000fd5b6124e4826122b8565b810181811067ffffffffffffffff82111715612503576125026124ac565b5b80604052505050565b600061251661219a565b905061252282826124db565b919050565b600067ffffffffffffffff821115612542576125416124ac565b5b61254b826122b8565b9050602081019050919050565b82818337600083830152505050565b600061257a61257584612527565b61250c565b905082815260208101848484011115612596576125956124a7565b5b6125a1848285612558565b509392505050565b600082601f8301126125be576125bd6124a2565b5b81356125ce848260208601612567565b91505092915050565b600067ffffffffffffffff8211156125f2576125f16124ac565b5b6125fb826122b8565b9050602081019050919050565b600061261b612616846125d7565b61250c565b905082815260208101848484011115612637576126366124a7565b5b612642848285612558565b509392505050565b600082601f83011261265f5761265e6124a2565b5b813561266f848260208601612608565b91505092915050565b6000806040838503121561268f5761268e6121a4565b5b600083013567ffffffffffffffff8111156126ad576126ac6121a9565b5b6126b9858286016125a9565b925050602083013567ffffffffffffffff8111156126da576126d96121a9565b5b6126e68582860161264a565b9150509250929050565b600060208284031215612706576127056121a4565b5b6000612714848285016123fa565b91505092915050565b61272681612324565b82525050565b6000602082019050612741600083018461271d565b92915050565b61275081612233565b811461275b57600080fd5b50565b60008135905061276d81612747565b92915050565b6000806040838503121561278a576127896121a4565b5b6000612798858286016123fa565b92505060206127a98582860161275e565b9150509250929050565b600080600080608085870312156127cd576127cc6121a4565b5b60006127db878288016123fa565b94505060206127ec878288016123fa565b93505060406127fd87828801612345565b925050606085013567ffffffffffffffff81111561281e5761281d6121a9565b5b61282a8782880161264a565b91505092959194509250565b6000806040838503121561284d5761284c6121a4565b5b600061285b858286016123fa565b925050602061286c858286016123fa565b9150509250929050565b7f4e487b7100000000000000000000000000000000000000000000000000000000600052602260045260246000fd5b600060028204905060018216806128bd57607f821691505b602082108114156128d1576128d0612876565b5b50919050565b7f4552433732313a20617070726f76656420717565727920666f72206e6f6e657860008201527f697374656e7420746f6b656e0000000000000000000000000000000000000000602082015250565b6000612933602c83612274565b915061293e826128d7565b604082019050919050565b6000602082019050818103600083015261296281612926565b9050919050565b7f4552433732313a20617070726f76616c20746f2063757272656e74206f776e6560008201527f7200000000000000000000000000000000000000000000000000000000000000602082015250565b60006129c5602183612274565b91506129d082612969565b604082019050919050565b600060208201905081810360008301526129f4816129b8565b9050919050565b7f4552433732313a20617070726f76652063616c6c6572206973206e6f74206f7760008201527f6e6572206e6f7220617070726f76656420666f7220616c6c0000000000000000602082015250565b6000612a57603883612274565b9150612a62826129fb565b604082019050919050565b60006020820190508181036000830152612a8681612a4a565b9050919050565b7f4552433732313a207472616e736665722063616c6c6572206973206e6f74206f60008201527f776e6572206e6f7220617070726f766564000000000000000000000000000000602082015250565b6000612ae9603183612274565b9150612af482612a8d565b604082019050919050565b60006020820190508181036000830152612b1881612adc565b9050919050565b600081905092915050565b6000612b3582612269565b612b3f8185612b1f565b9350612b4f818560208601612285565b80840191505092915050565b6000612b678284612b2a565b915081905092915050565b7f546f6b656e205552492065786973747300000000000000000000000000000000600082015250565b6000612ba8601083612274565b9150612bb382612b72565b602082019050919050565b60006020820190508181036000830152612bd781612b9b565b9050919050565b7f4d657373616765206e6f74207369676e65642062792074727565207369676e6560008201527f722e000000000000000000000000000000000000000000000000000000000000602082015250565b6000612c3a602283612274565b9150612c4582612bde565b604082019050919050565b60006020820190508181036000830152612c6981612c2d565b9050919050565b7f4e487b7100000000000000000000000000000000000000000000000000000000600052601160045260246000fd5b6000612caa82612324565b9150612cb583612324565b9250827fffffffffffffffffffffffffffffffffffffffffffffffffffffffffffffffff03821115612cea57612ce9612c70565b5b828201905092915050565b7f4552433732313a206f776e657220717565727920666f72206e6f6e657869737460008201527f656e7420746f6b656e0000000000000000000000000000000000000000000000602082015250565b6000612d51602983612274565b9150612d5c82612cf5565b604082019050919050565b60006020820190508181036000830152612d8081612d44565b9050919050565b7f4552433732313a2062616c616e636520717565727920666f7220746865207a6560008201527f726f206164647265737300000000000000000000000000000000000000000000602082015250565b6000612de3602a83612274565b9150612dee82612d87565b604082019050919050565b60006020820190508181036000830152612e1281612dd6565b9050919050565b7f4f776e61626c653a2063616c6c6572206973206e6f7420746865206f776e6572600082015250565b6000612e4f602083612274565b9150612e5a82612e19565b602082019050919050565b60006020820190508181036000830152612e7e81612e42565b9050919050565b7f4552433732313a20617070726f766520746f2063616c6c657200000000000000600082015250565b6000612ebb601983612274565b9150612ec682612e85565b602082019050919050565b60006020820190508181036000830152612eea81612eae565b9050919050565b7f45524337323155524953746f726167653a2055524920717565727920666f722060008201527f6e6f6e6578697374656e7420746f6b656e000000000000000000000000000000602082015250565b6000612f4d603183612274565b9150612f5882612ef1565b604082019050919050565b60006020820190508181036000830152612f7c81612f40565b9050919050565b6000612f8f8285612b2a565b9150612f9b8284612b2a565b91508190509392505050565b7f4f776e61626c653a206e6577206f776e657220697320746865207a65726f206160008201527f6464726573730000000000000000000000000000000000000000000000000000602082015250565b6000613003602683612274565b915061300e82612fa7565b604082019050919050565b6000602082019050818103600083015261303281612ff6565b9050919050565b7f4552433732313a206f70657261746f7220717565727920666f72206e6f6e657860008201527f697374656e7420746f6b656e0000000000000000000000000000000000000000602082015250565b6000613095602c83612274565b91506130a082613039565b604082019050919050565b600060208201905081810360008301526130c481613088565b9050919050565b7f4552433732313a207472616e73666572206f6620746f6b656e2074686174206960008201527f73206e6f74206f776e0000000000000000000000000000000000000000000000602082015250565b6000613127602983612274565b9150613132826130cb565b604082019050919050565b600060208201905081810360008301526131568161311a565b9050919050565b7f4552433732313a207472616e7366657220746f20746865207a65726f2061646460008201527f7265737300000000000000000000000000000000000000000000000000000000602082015250565b60006131b9602483612274565b91506131c48261315d565b604082019050919050565b600060208201905081810360008301526131e8816131ac565b9050919050565b60006131fa82612324565b915061320583612324565b92508282101561321857613217612c70565b5b828203905092915050565b7f19457468657265756d205369676e6564204d6573736167653a0a333200000000600082015250565b6000613259601c83612b1f565b915061326482613223565b601c82019050919050565b6000819050919050565b6000819050919050565b61329461328f8261326f565b613279565b82525050565b60006132a58261324c565b91506132b18284613283565b60208201915081905092915050565b7f45524337323155524953746f726167653a2055524920736574206f66206e6f6e60008201527f6578697374656e7420746f6b656e000000000000000000000000000000000000602082015250565b600061331c602e83612274565b9150613327826132c0565b604082019050919050565b6000602082019050818103600083015261334b8161330f565b9050919050565b7f4552433732313a207472616e7366657220746f206e6f6e20455243373231526560008201527f63656976657220696d706c656d656e7465720000000000000000000000000000602082015250565b60006133ae603283612274565b91506133b982613352565b604082019050919050565b600060208201905081810360008301526133dd816133a1565b9050919050565b7f4552433732314d657461646174613a2055524920717565727920666f72206e6f60008201527f6e6578697374656e7420746f6b656e0000000000000000000000000000000000602082015250565b6000613440602f83612274565b915061344b826133e4565b604082019050919050565b6000602082019050818103600083015261346f81613433565b9050919050565b7f4e487b7100000000000000000000000000000000000000000000000000000000600052602160045260246000fd5b7f45434453413a20696e76616c6964207369676e61747572650000000000000000600082015250565b60006134db601883612274565b91506134e6826134a5565b602082019050919050565b6000602082019050818103600083015261350a816134ce565b9050919050565b7f45434453413a20696e76616c6964207369676e6174757265206c656e67746800600082015250565b6000613547601f83612274565b915061355282613511565b602082019050919050565b600060208201905081810360008301526135768161353a565b9050919050565b7f45434453413a20696e76616c6964207369676e6174757265202773272076616c60008201527f7565000000000000000000000000000000000000000000000000000000000000602082015250565b60006135d9602283612274565b91506135e48261357d565b604082019050919050565b60006020820190508181036000830152613608816135cc565b9050919050565b7f45434453413a20696e76616c6964207369676e6174757265202776272076616c60008201527f7565000000000000000000000000000000000000000000000000000000000000602082015250565b600061366b602283612274565b91506136768261360f565b604082019050919050565b6000602082019050818103600083015261369a8161365e565b9050919050565b600081519050919050565b600082825260208201905092915050565b60006136c8826136a1565b6136d281856136ac565b93506136e2818560208601612285565b6136eb816122b8565b840191505092915050565b600060808201905061370b60008301876123b9565b61371860208301866123b9565b613725604083018561271d565b818103606083015261373781846136bd565b905095945050505050565b600081519050613751816121da565b92915050565b60006020828403121561376d5761376c6121a4565b5b600061377b84828501613742565b91505092915050565b600061378f82612324565b91507fffffffffffffffffffffffffffffffffffffffffffffffffffffffffffffffff8214156137c2576137c1612c70565b5b600182019050919050565b7f4e487b7100000000000000000000000000000000000000000000000000000000600052601260045260246000fd5b600061380782612324565b915061381283612324565b925082613822576138216137cd565b5b828204905092915050565b600061383882612324565b915061384383612324565b925082613853576138526137cd565b5b828206905092915050565b7f4e487b7100000000000000000000000000000000000000000000000000000000600052603260045260246000fd5b6138968161326f565b82525050565b600060ff82169050919050565b6138b28161389c565b82525050565b60006080820190506138cd600083018761388d565b6138da60208301866138a9565b6138e7604083018561388d565b6138f4606083018461388d565b95945050505050565b7f4552433732313a206d696e7420746f20746865207a65726f2061646472657373600082015250565b6000613933602083612274565b915061393e826138fd565b602082019050919050565b6000602082019050818103600083015261396281613926565b9050919050565b7f4552433732313a20746f6b656e20616c7265616479206d696e74656400000000600082015250565b600061399f601c83612274565b91506139aa82613969565b602082019050919050565b600060208201905081810360008301526139ce81613992565b905091905056fea26469706673582212201765ae045d628ef192dc3dcad74da510125233c710d3793655e5e6c2dae2ea7c64736f6c63430008090033",
  "linkReferences": {},
  "deployedLinkReferences": {}
}